{
  "_format": "hh-sol-artifact-1",
  "contractName": "FoteisonGame",
  "sourceName": "contracts/FoteisonGame.sol",
  "abi": [
    {
      "inputs": [],
      "stateMutability": "nonpayable",
      "type": "constructor"
    },
    {
      "anonymous": false,
      "inputs": [],
      "name": "InsufficientBalance",
      "type": "event"
    },
    {
      "inputs": [],
      "name": "backToStart",
      "outputs": [],
      "stateMutability": "nonpayable",
      "type": "function"
    },
    {
      "inputs": [],
      "name": "confirmUser",
      "outputs": [
        {
          "components": [
            {
              "internalType": "bool",
              "name": "initialized",
              "type": "bool"
            },
            {
              "internalType": "uint256",
              "name": "squareId",
              "type": "uint256"
            },
            {
              "internalType": "uint256",
              "name": "userBalance",
              "type": "uint256"
            },
            {
              "internalType": "bool",
              "name": "userQuestStatus",
              "type": "bool"
            }
          ],
          "internalType": "struct FoteisonGame.User",
          "name": "",
          "type": "tuple"
        }
      ],
      "stateMutability": "view",
      "type": "function"
    },
    {
      "inputs": [
        {
          "internalType": "string",
          "name": "_createrENS",
          "type": "string"
        },
        {
          "internalType": "uint256",
          "name": "_squareId",
          "type": "uint256"
        },
        {
          "internalType": "uint256",
          "name": "_backendSquareId",
          "type": "uint256"
        },
        {
          "internalType": "string",
          "name": "_squareDescription",
          "type": "string"
        },
        {
          "internalType": "string",
          "name": "_squareNftURL",
          "type": "string"
        },
        {
          "internalType": "uint256",
          "name": "_squareBalance",
          "type": "uint256"
        },
        {
          "internalType": "bool",
          "name": "_IsBalanceAdd",
          "type": "bool"
        },
        {
          "internalType": "string",
          "name": "_questContractAddress",
          "type": "string"
        },
        {
          "internalType": "string",
          "name": "_questDescription",
          "type": "string"
        },
        {
          "internalType": "string",
          "name": "_createrIcon",
          "type": "string"
        }
      ],
      "name": "createSquare",
      "outputs": [],
      "stateMutability": "nonpayable",
      "type": "function"
    },
    {
      "inputs": [
        {
          "internalType": "uint256",
          "name": "_squareId",
          "type": "uint256"
        },
        {
          "internalType": "uint256",
          "name": "_userBalance",
          "type": "uint256"
        },
        {
          "internalType": "bool",
          "name": "_userQuestStatus",
          "type": "bool"
        }
      ],
      "name": "createUser",
      "outputs": [],
      "stateMutability": "nonpayable",
      "type": "function"
    },
    {
      "inputs": [
        {
          "internalType": "uint256",
          "name": "squareId",
          "type": "uint256"
        }
      ],
      "name": "getAdjacentSquareIds",
      "outputs": [
        {
          "internalType": "uint256[]",
          "name": "",
          "type": "uint256[]"
        }
      ],
      "stateMutability": "view",
      "type": "function"
    },
    {
      "inputs": [],
      "name": "getAllSquareNftURLs",
      "outputs": [
        {
          "internalType": "uint256[]",
          "name": "",
          "type": "uint256[]"
        },
        {
          "internalType": "string[]",
          "name": "",
          "type": "string[]"
        }
      ],
      "stateMutability": "view",
      "type": "function"
    },
    {
      "inputs": [
        {
          "internalType": "uint256",
          "name": "squareId",
          "type": "uint256"
        }
      ],
      "name": "getSquare",
      "outputs": [
        {
          "components": [
            {
              "internalType": "address",
              "name": "createrAddress",
              "type": "address"
            },
            {
              "internalType": "string",
              "name": "createrENS",
              "type": "string"
            },
            {
              "internalType": "string",
              "name": "createrIcon",
              "type": "string"
            },
            {
              "internalType": "string",
              "name": "squareDescription",
              "type": "string"
            },
            {
              "internalType": "string",
              "name": "squareNftURL",
              "type": "string"
            },
            {
              "internalType": "uint256",
              "name": "squareBalance",
              "type": "uint256"
            },
            {
              "internalType": "bool",
              "name": "IsBalanceAdd",
              "type": "bool"
            },
            {
              "internalType": "string",
              "name": "questContractAddress",
              "type": "string"
            },
            {
              "internalType": "string",
              "name": "questDescription",
              "type": "string"
            },
            {
              "internalType": "uint256[]",
              "name": "adjacentSquareIds",
              "type": "uint256[]"
            }
          ],
          "internalType": "struct FoteisonGame.Square",
          "name": "",
          "type": "tuple"
        }
      ],
      "stateMutability": "view",
      "type": "function"
    },
    {
      "inputs": [
        {
          "internalType": "uint256",
          "name": "squareId",
          "type": "uint256"
        }
      ],
      "name": "getSquareNftURL",
      "outputs": [
        {
          "internalType": "string",
          "name": "",
          "type": "string"
        }
      ],
      "stateMutability": "view",
      "type": "function"
    },
    {
      "inputs": [
        {
          "internalType": "uint256",
          "name": "_diceNumber",
          "type": "uint256"
        },
        {
          "internalType": "uint256",
          "name": "_currentSquareId",
          "type": "uint256"
        }
      ],
      "name": "moveUser",
      "outputs": [
        {
          "internalType": "uint256[]",
          "name": "",
          "type": "uint256[]"
        }
      ],
      "stateMutability": "view",
      "type": "function"
    },
    {
      "inputs": [
        {
          "internalType": "uint256",
          "name": "",
          "type": "uint256"
        }
      ],
      "name": "squareIdToSquare",
      "outputs": [
        {
          "internalType": "address",
          "name": "createrAddress",
          "type": "address"
        },
        {
          "internalType": "string",
          "name": "createrENS",
          "type": "string"
        },
        {
          "internalType": "string",
          "name": "createrIcon",
          "type": "string"
        },
        {
          "internalType": "string",
          "name": "squareDescription",
          "type": "string"
        },
        {
          "internalType": "string",
          "name": "squareNftURL",
          "type": "string"
        },
        {
          "internalType": "uint256",
          "name": "squareBalance",
          "type": "uint256"
        },
        {
          "internalType": "bool",
          "name": "IsBalanceAdd",
          "type": "bool"
        },
        {
          "internalType": "string",
          "name": "questContractAddress",
          "type": "string"
        },
        {
          "internalType": "string",
          "name": "questDescription",
          "type": "string"
        }
      ],
      "stateMutability": "view",
      "type": "function"
    },
    {
      "inputs": [
        {
          "internalType": "uint256",
          "name": "",
          "type": "uint256"
        }
      ],
      "name": "squareIdToSquareNftURL",
      "outputs": [
        {
          "internalType": "string",
          "name": "",
          "type": "string"
        }
      ],
      "stateMutability": "view",
      "type": "function"
    },
    {
      "inputs": [
        {
          "internalType": "uint256",
          "name": "",
          "type": "uint256"
        }
      ],
      "name": "squares",
      "outputs": [
        {
          "internalType": "address",
          "name": "createrAddress",
          "type": "address"
        },
        {
          "internalType": "string",
          "name": "createrENS",
          "type": "string"
        },
        {
          "internalType": "string",
          "name": "createrIcon",
          "type": "string"
        },
        {
          "internalType": "string",
          "name": "squareDescription",
          "type": "string"
        },
        {
          "internalType": "string",
          "name": "squareNftURL",
          "type": "string"
        },
        {
          "internalType": "uint256",
          "name": "squareBalance",
          "type": "uint256"
        },
        {
          "internalType": "bool",
          "name": "IsBalanceAdd",
          "type": "bool"
        },
        {
          "internalType": "string",
          "name": "questContractAddress",
          "type": "string"
        },
        {
          "internalType": "string",
          "name": "questDescription",
          "type": "string"
        }
      ],
      "stateMutability": "view",
      "type": "function"
    },
    {
      "inputs": [
        {
          "internalType": "uint256",
          "name": "_backendSquareId",
          "type": "uint256"
        },
        {
          "internalType": "uint256",
          "name": "_squareId",
          "type": "uint256"
        }
      ],
      "name": "updateAdjacentSquareIds",
      "outputs": [],
      "stateMutability": "nonpayable",
      "type": "function"
    },
    {
      "inputs": [
        {
          "internalType": "uint256",
          "name": "_squareId",
          "type": "uint256"
        },
        {
          "internalType": "uint256",
          "name": "_userBalance",
          "type": "uint256"
        },
        {
          "internalType": "bool",
          "name": "_userQuestStatus",
          "type": "bool"
        }
      ],
      "name": "updateUser",
      "outputs": [],
      "stateMutability": "nonpayable",
      "type": "function"
    },
    {
      "inputs": [
        {
          "internalType": "address",
          "name": "",
          "type": "address"
        }
      ],
      "name": "users",
      "outputs": [
        {
          "internalType": "bool",
          "name": "initialized",
          "type": "bool"
        },
        {
          "internalType": "uint256",
          "name": "squareId",
          "type": "uint256"
        },
        {
          "internalType": "uint256",
          "name": "userBalance",
          "type": "uint256"
        },
        {
          "internalType": "bool",
          "name": "userQuestStatus",
          "type": "bool"
        }
      ],
      "stateMutability": "view",
      "type": "function"
    }
  ],
  "bytecode": "0x60806040523480156200001157600080fd5b50620000e76040518060400160405280600c81526020017f73686572316f636b2e65746800000000000000000000000000000000000000008152506104fb66038d7ea4c680006040518060400160405280601881526020017f486572652069732074686520737461727420737175617265000000000000000081525060405180608001604052806046815260200162003a1260469139600060016040518060200160405280600081525060405180602001604052806000815250604051806020016040528060008152506200012b60201b60201c565b60405180608001604052806046815260200162003a1260469139600260006104fb8152602001908152602001600020908162000124919062000811565b50620008f8565b60006040518061014001604052803373ffffffffffffffffffffffffffffffffffffffff1681526020018c8152602001838152602001898152602001888152602001878152602001861515815260200160008651116200019b57604051806020016040528060008152506200019d565b855b81526020016000855111620001c25760405180602001604052806000815250620001c4565b845b8152602001600067ffffffffffffffff811115620001e757620001e6620005a2565b5b604051908082528060200260200182016040528015620002165781602001602082028036833780820191505090505b508152509050806000808c815260200190815260200160002060008201518160000160006101000a81548173ffffffffffffffffffffffffffffffffffffffff021916908373ffffffffffffffffffffffffffffffffffffffff16021790555060208201518160010190816200028d919062000811565b506040820151816002019081620002a5919062000811565b506060820151816003019081620002bd919062000811565b506080820151816004019081620002d5919062000811565b5060a0820151816005015560c08201518160060160006101000a81548160ff02191690831515021790555060e082015181600701908162000317919062000811565b5061010082015181600801908162000330919062000811565b506101208201518160090190805190602001906200035092919062000526565b5090505086600260008c8152602001908152602001600020908162000376919062000811565b5060038190806001815401808255809150506001900390600052602060002090600a020160009091909190915060008201518160000160006101000a81548173ffffffffffffffffffffffffffffffffffffffff021916908373ffffffffffffffffffffffffffffffffffffffff160217905550602082015181600101908162000401919062000811565b50604082015181600201908162000419919062000811565b50606082015181600301908162000431919062000811565b50608082015181600401908162000449919062000811565b5060a0820151816005015560c08201518160060160006101000a81548160ff02191690831515021790555060e08201518160070190816200048b919062000811565b50610100820151816008019081620004a4919062000811565b50610120820151816009019080519060200190620004c492919062000526565b505050620004d9898b620004e660201b60201c565b5050505050505050505050565b6000808381526020019081526020016000206009018190806001815401808255809150506001900390600052602060002001600090919091909150555050565b82805482825590600052602060002090810192821562000565579160200282015b828111156200056457825182559160200191906001019062000547565b5b50905062000574919062000578565b5090565b5b808211156200059357600081600090555060010162000579565b5090565b600081519050919050565b7f4e487b7100000000000000000000000000000000000000000000000000000000600052604160045260246000fd5b7f4e487b7100000000000000000000000000000000000000000000000000000000600052602260045260246000fd5b600060028204905060018216806200061957607f821691505b6020821081036200062f576200062e620005d1565b5b50919050565b60008190508160005260206000209050919050565b60006020601f8301049050919050565b600082821b905092915050565b600060088302620006997fffffffffffffffffffffffffffffffffffffffffffffffffffffffffffffffff826200065a565b620006a586836200065a565b95508019841693508086168417925050509392505050565b6000819050919050565b6000819050919050565b6000620006f2620006ec620006e684620006bd565b620006c7565b620006bd565b9050919050565b6000819050919050565b6200070e83620006d1565b620007266200071d82620006f9565b84845462000667565b825550505050565b600090565b6200073d6200072e565b6200074a81848462000703565b505050565b5b8181101562000772576200076660008262000733565b60018101905062000750565b5050565b601f821115620007c1576200078b8162000635565b62000796846200064a565b81016020851015620007a6578190505b620007be620007b5856200064a565b8301826200074f565b50505b505050565b600082821c905092915050565b6000620007e660001984600802620007c6565b1980831691505092915050565b6000620008018383620007d3565b9150826002028217905092915050565b6200081c8262000597565b67ffffffffffffffff811115620008385762000837620005a2565b5b62000844825462000600565b6200085182828562000776565b600060209050601f83116001811462000889576000841562000874578287015190505b620008808582620007f3565b865550620008f0565b601f198416620008998662000635565b60005b82811015620008c3578489015182556001820191506020850194506020810190506200089c565b86831015620008e35784890151620008df601f891682620007d3565b8355505b6001600288020188555050505b505050505050565b61310a80620009086000396000f3fe608060405234801561001057600080fd5b50600436106100f55760003560e01c806383df62ed11610097578063c250f1ea11610066578063c250f1ea146102be578063d0928f77146102da578063e81a6d6e146102f6578063f5f1fcbb14610314576100f5565b806383df62ed146102195780639509af0314610223578063a87430ba1461025b578063b81ad3d81461028e576100f5565b8063479f0090116100d3578063479f009014610181578063619dd1b4146101b157806369634ada146101cd5780637fd3f445146101fd576100f5565b80631d1d15d4146100fa5780632e60629014610132578063303819a014610162575b600080fd5b610114600480360381019061010f91906120a2565b610344565b604051610129999897969594939291906121ca565b60405180910390f35b61014c60048036038101906101479190612281565b6106ff565b604051610159919061237f565b60405180910390f35b61016a61092b565b6040516101789291906124ad565b60405180910390f35b61019b600480360381019061019691906120a2565b610c32565b6040516101a89190612675565b60405180910390f35b6101cb60048036038101906101c691906126c3565b61109e565b005b6101e760048036038101906101e291906120a2565b611165565b6040516101f49190612716565b60405180910390f35b6102176004803603810190610212919061286d565b61120a565b005b610221611597565b005b61023d600480360381019061023891906120a2565b611685565b604051610252999897969594939291906121ca565b60405180910390f35b61027560048036038101906102709190612a20565b611a30565b6040516102859493929190612a4d565b60405180910390f35b6102a860048036038101906102a391906120a2565b611a7a565b6040516102b59190612716565b60405180910390f35b6102d860048036038101906102d391906126c3565b611b1a565b005b6102f460048036038101906102ef9190612281565b611c79565b005b6102fe611cb9565b60405161030b9190612ae7565b60405180910390f35b61032e600480360381019061032991906120a2565b611d5a565b60405161033b919061237f565b60405180910390f35b6003818154811061035457600080fd5b90600052602060002090600a02016000915090508060000160009054906101000a900473ffffffffffffffffffffffffffffffffffffffff169080600101805461039d90612b31565b80601f01602080910402602001604051908101604052809291908181526020018280546103c990612b31565b80156104165780601f106103eb57610100808354040283529160200191610416565b820191906000526020600020905b8154815290600101906020018083116103f957829003601f168201915b50505050509080600201805461042b90612b31565b80601f016020809104026020016040519081016040528092919081815260200182805461045790612b31565b80156104a45780601f10610479576101008083540402835291602001916104a4565b820191906000526020600020905b81548152906001019060200180831161048757829003601f168201915b5050505050908060030180546104b990612b31565b80601f01602080910402602001604051908101604052809291908181526020018280546104e590612b31565b80156105325780601f1061050757610100808354040283529160200191610532565b820191906000526020600020905b81548152906001019060200180831161051557829003601f168201915b50505050509080600401805461054790612b31565b80601f016020809104026020016040519081016040528092919081815260200182805461057390612b31565b80156105c05780601f10610595576101008083540402835291602001916105c0565b820191906000526020600020905b8154815290600101906020018083116105a357829003601f168201915b5050505050908060050154908060060160009054906101000a900460ff16908060070180546105ee90612b31565b80601f016020809104026020016040519081016040528092919081815260200182805461061a90612b31565b80156106675780601f1061063c57610100808354040283529160200191610667565b820191906000526020600020905b81548152906001019060200180831161064a57829003601f168201915b50505050509080600801805461067c90612b31565b80601f01602080910402602001604051908101604052809291908181526020018280546106a890612b31565b80156106f55780601f106106ca576101008083540402835291602001916106f5565b820191906000526020600020905b8154815290600101906020018083116106d857829003601f168201915b5050505050905089565b6060600080600084815260200190815260200160002060090180548060200260200160405190810160405280929190818152602001828054801561076257602002820191906000526020600020905b81548152602001906001019080831161074e575b5050505050905060008151036107c457600067ffffffffffffffff81111561078d5761078c612742565b5b6040519080825280602002602001820160405280156107bb5781602001602082028036833780820191505090505b50915050610925565b60008467ffffffffffffffff8111156107e0576107df612742565b5b60405190808252806020026020018201604052801561080e5781602001602082028036833780820191505090505b50905060005b8581101561091e5760008351031561091e576000835142338460405160200161083f93929190612bcb565b6040516020818303038152906040528051906020012060001c6108629190612c37565b9050600084828151811061087957610878612c68565b5b602002602001015190508084848151811061089757610896612c68565b5b60200260200101818152505060008082815260200190815260200160002060090180548060200260200160405190810160405280929190818152602001828054801561090257602002820191906000526020600020905b8154815260200190600101908083116108ee575b505050505094505050808061091690612cc6565b915050610814565b5080925050505b92915050565b60608060006109c467ffffffffffffffff81111561094c5761094b612742565b5b60405190808252806020026020018201604052801561097a5781602001602082028036833780820191505090505b50905060006109c467ffffffffffffffff81111561099b5761099a612742565b5b6040519080825280602002602001820160405280156109ce57816020015b60608152602001906001900390816109b95790505b5090506000805b6109c4811015610af15760008190506000600260008381526020019081526020016000208054610a0490612b31565b80601f0160208091040260200160405190810160405280929190818152602001828054610a3090612b31565b8015610a7d5780601f10610a5257610100808354040283529160200191610a7d565b820191906000526020600020905b815481529060010190602001808311610a6057829003601f168201915b50505050509050600081511115610adc5781868581518110610aa257610aa1612c68565b5b60200260200101818152505080858581518110610ac257610ac1612c68565b5b60200260200101819052508380610ad890612cc6565b9450505b50508080610ae990612cc6565b9150506109d5565b5060008167ffffffffffffffff811115610b0e57610b0d612742565b5b604051908082528060200260200182016040528015610b3c5781602001602082028036833780820191505090505b50905060008267ffffffffffffffff811115610b5b57610b5a612742565b5b604051908082528060200260200182016040528015610b8e57816020015b6060815260200190600190039081610b795790505b50905060005b83811015610c2257858181518110610baf57610bae612c68565b5b6020026020010151838281518110610bca57610bc9612c68565b5b602002602001018181525050848181518110610be957610be8612c68565b5b6020026020010151828281518110610c0457610c03612c68565b5b60200260200101819052508080610c1a90612cc6565b915050610b94565b5081819650965050505050509091565b610c3a611f57565b600080838152602001908152602001600020604051806101400160405290816000820160009054906101000a900473ffffffffffffffffffffffffffffffffffffffff1673ffffffffffffffffffffffffffffffffffffffff1673ffffffffffffffffffffffffffffffffffffffff168152602001600182018054610cbe90612b31565b80601f0160208091040260200160405190810160405280929190818152602001828054610cea90612b31565b8015610d375780601f10610d0c57610100808354040283529160200191610d37565b820191906000526020600020905b815481529060010190602001808311610d1a57829003601f168201915b50505050508152602001600282018054610d5090612b31565b80601f0160208091040260200160405190810160405280929190818152602001828054610d7c90612b31565b8015610dc95780601f10610d9e57610100808354040283529160200191610dc9565b820191906000526020600020905b815481529060010190602001808311610dac57829003601f168201915b50505050508152602001600382018054610de290612b31565b80601f0160208091040260200160405190810160405280929190818152602001828054610e0e90612b31565b8015610e5b5780601f10610e3057610100808354040283529160200191610e5b565b820191906000526020600020905b815481529060010190602001808311610e3e57829003601f168201915b50505050508152602001600482018054610e7490612b31565b80601f0160208091040260200160405190810160405280929190818152602001828054610ea090612b31565b8015610eed5780601f10610ec257610100808354040283529160200191610eed565b820191906000526020600020905b815481529060010190602001808311610ed057829003601f168201915b50505050508152602001600582015481526020016006820160009054906101000a900460ff16151515158152602001600782018054610f2b90612b31565b80601f0160208091040260200160405190810160405280929190818152602001828054610f5790612b31565b8015610fa45780601f10610f7957610100808354040283529160200191610fa4565b820191906000526020600020905b815481529060010190602001808311610f8757829003601f168201915b50505050508152602001600882018054610fbd90612b31565b80601f0160208091040260200160405190810160405280929190818152602001828054610fe990612b31565b80156110365780601f1061100b57610100808354040283529160200191611036565b820191906000526020600020905b81548152906001019060200180831161101957829003601f168201915b505050505081526020016009820180548060200260200160405190810160405280929190818152602001828054801561108e57602002820191906000526020600020905b81548152602001906001019080831161107a575b5050505050815250509050919050565b60006040518060800160405280600115158152602001858152602001848152602001831515815250905080600160003373ffffffffffffffffffffffffffffffffffffffff1673ffffffffffffffffffffffffffffffffffffffff16815260200190815260200160002060008201518160000160006101000a81548160ff021916908315150217905550602082015181600101556040820151816002015560608201518160030160006101000a81548160ff02191690831515021790555090505050505050565b606060026000838152602001908152602001600020805461118590612b31565b80601f01602080910402602001604051908101604052809291908181526020018280546111b190612b31565b80156111fe5780601f106111d3576101008083540402835291602001916111fe565b820191906000526020600020905b8154815290600101906020018083116111e157829003601f168201915b50505050509050919050565b60006040518061014001604052803373ffffffffffffffffffffffffffffffffffffffff1681526020018c815260200183815260200189815260200188815260200187815260200186151581526020016000865111611278576040518060200160405280600081525061127a565b855b8152602001600085511161129d576040518060200160405280600081525061129f565b845b8152602001600067ffffffffffffffff8111156112bf576112be612742565b5b6040519080825280602002602001820160405280156112ed5781602001602082028036833780820191505090505b508152509050806000808c815260200190815260200160002060008201518160000160006101000a81548173ffffffffffffffffffffffffffffffffffffffff021916908373ffffffffffffffffffffffffffffffffffffffff16021790555060208201518160010190816113629190612eba565b5060408201518160020190816113789190612eba565b50606082015181600301908161138e9190612eba565b5060808201518160040190816113a49190612eba565b5060a0820151816005015560c08201518160060160006101000a81548160ff02191690831515021790555060e08201518160070190816113e49190612eba565b506101008201518160080190816113fb9190612eba565b50610120820151816009019080519060200190611419929190611fc2565b5090505086600260008c8152602001908152602001600020908161143d9190612eba565b5060038190806001815401808255809150506001900390600052602060002090600a020160009091909190915060008201518160000160006101000a81548173ffffffffffffffffffffffffffffffffffffffff021916908373ffffffffffffffffffffffffffffffffffffffff16021790555060208201518160010190816114c69190612eba565b5060408201518160020190816114dc9190612eba565b5060608201518160030190816114f29190612eba565b5060808201518160040190816115089190612eba565b5060a0820151816005015560c08201518160060160006101000a81548160ff02191690831515021790555060e08201518160070190816115489190612eba565b5061010082015181600801908161155f9190612eba565b5061012082015181600901908051906020019061157d929190611fc2565b50505061158a898b611c79565b5050505050505050505050565b6104fb600160003373ffffffffffffffffffffffffffffffffffffffff1673ffffffffffffffffffffffffffffffffffffffff168152602001908152602001600020600101819055506103e8600160003373ffffffffffffffffffffffffffffffffffffffff1673ffffffffffffffffffffffffffffffffffffffff1681526020019081526020016000206002018190555060018060003373ffffffffffffffffffffffffffffffffffffffff1673ffffffffffffffffffffffffffffffffffffffff16815260200190815260200160002060030160006101000a81548160ff021916908315150217905550565b60006020528060005260406000206000915090508060000160009054906101000a900473ffffffffffffffffffffffffffffffffffffffff16908060010180546116ce90612b31565b80601f01602080910402602001604051908101604052809291908181526020018280546116fa90612b31565b80156117475780601f1061171c57610100808354040283529160200191611747565b820191906000526020600020905b81548152906001019060200180831161172a57829003601f168201915b50505050509080600201805461175c90612b31565b80601f016020809104026020016040519081016040528092919081815260200182805461178890612b31565b80156117d55780601f106117aa576101008083540402835291602001916117d5565b820191906000526020600020905b8154815290600101906020018083116117b857829003601f168201915b5050505050908060030180546117ea90612b31565b80601f016020809104026020016040519081016040528092919081815260200182805461181690612b31565b80156118635780601f1061183857610100808354040283529160200191611863565b820191906000526020600020905b81548152906001019060200180831161184657829003601f168201915b50505050509080600401805461187890612b31565b80601f01602080910402602001604051908101604052809291908181526020018280546118a490612b31565b80156118f15780601f106118c6576101008083540402835291602001916118f1565b820191906000526020600020905b8154815290600101906020018083116118d457829003601f168201915b5050505050908060050154908060060160009054906101000a900460ff169080600701805461191f90612b31565b80601f016020809104026020016040519081016040528092919081815260200182805461194b90612b31565b80156119985780601f1061196d57610100808354040283529160200191611998565b820191906000526020600020905b81548152906001019060200180831161197b57829003601f168201915b5050505050908060080180546119ad90612b31565b80601f01602080910402602001604051908101604052809291908181526020018280546119d990612b31565b8015611a265780601f106119fb57610100808354040283529160200191611a26565b820191906000526020600020905b815481529060010190602001808311611a0957829003601f168201915b5050505050905089565b60016020528060005260406000206000915090508060000160009054906101000a900460ff16908060010154908060020154908060030160009054906101000a900460ff16905084565b60026020528060005260406000206000915090508054611a9990612b31565b80601f0160208091040260200160405190810160405280929190818152602001828054611ac590612b31565b8015611b125780601f10611ae757610100808354040283529160200191611b12565b820191906000526020600020905b815481529060010190602001808311611af557829003601f168201915b505050505081565b600160003373ffffffffffffffffffffffffffffffffffffffff1673ffffffffffffffffffffffffffffffffffffffff16815260200190815260200160002060000160009054906101000a900460ff16611b7a57611b7983838361109e565b5b6000806000858152602001908152602001600020600501541115611bb2576000611ba384611dc7565b905080611bb05750611c74565b505b604051602001611bc190612fbd565b60405160208183030381529060405280519060200120600080858152602001908152602001600020600701604051602001611bfc9190613055565b6040516020818303038152906040528051906020012014611c73576000600160003373ffffffffffffffffffffffffffffffffffffffff1673ffffffffffffffffffffffffffffffffffffffff16815260200190815260200160002060030160006101000a81548160ff0219169083151502179055505b5b505050565b6000808381526020019081526020016000206009018190806001815401808255809150506001900390600052602060002001600090919091909150555050565b611cc161200f565b600160003373ffffffffffffffffffffffffffffffffffffffff1673ffffffffffffffffffffffffffffffffffffffff1681526020019081526020016000206040518060800160405290816000820160009054906101000a900460ff1615151515815260200160018201548152602001600282015481526020016003820160009054906101000a900460ff161515151581525050905090565b6060600080838152602001908152602001600020600901805480602002602001604051908101604052809291908181526020018280548015611dbb57602002820191906000526020600020905b815481526020019060010190808311611da7575b50505050509050919050565b600080600160003373ffffffffffffffffffffffffffffffffffffffff1673ffffffffffffffffffffffffffffffffffffffff168152602001908152602001600020600201549050600080600085815260200190815260200160002060050154905060008085815260200190815260200160002060060160009054906101000a900460ff1615611eb45760008183611e5f919061306c565b905080600160003373ffffffffffffffffffffffffffffffffffffffff1673ffffffffffffffffffffffffffffffffffffffff1681526020019081526020016000206002018190555060019350505050611f52565b80821115611f1f5760008183611eca91906130a0565b905080600160003373ffffffffffffffffffffffffffffffffffffffff1673ffffffffffffffffffffffffffffffffffffffff1681526020019081526020016000206002018190555060019350505050611f52565b7ff4d678b8ce6b5157126b1484a53523762a93571537a7d5ae97d8014a44715c9460405160405180910390a16000925050505b919050565b604051806101400160405280600073ffffffffffffffffffffffffffffffffffffffff16815260200160608152602001606081526020016060815260200160608152602001600081526020016000151581526020016060815260200160608152602001606081525090565b828054828255906000526020600020908101928215611ffe579160200282015b82811115611ffd578251825591602001919060010190611fe2565b5b50905061200b919061203b565b5090565b604051806080016040528060001515815260200160008152602001600081526020016000151581525090565b5b8082111561205457600081600090555060010161203c565b5090565b6000604051905090565b600080fd5b600080fd5b6000819050919050565b61207f8161206c565b811461208a57600080fd5b50565b60008135905061209c81612076565b92915050565b6000602082840312156120b8576120b7612062565b5b60006120c68482850161208d565b91505092915050565b600073ffffffffffffffffffffffffffffffffffffffff82169050919050565b60006120fa826120cf565b9050919050565b61210a816120ef565b82525050565b600081519050919050565b600082825260208201905092915050565b60005b8381101561214a57808201518184015260208101905061212f565b60008484015250505050565b6000601f19601f8301169050919050565b600061217282612110565b61217c818561211b565b935061218c81856020860161212c565b61219581612156565b840191505092915050565b6121a98161206c565b82525050565b60008115159050919050565b6121c4816121af565b82525050565b6000610120820190506121e0600083018c612101565b81810360208301526121f2818b612167565b90508181036040830152612206818a612167565b9050818103606083015261221a8189612167565b9050818103608083015261222e8188612167565b905061223d60a08301876121a0565b61224a60c08301866121bb565b81810360e083015261225c8185612167565b90508181036101008301526122718184612167565b90509a9950505050505050505050565b6000806040838503121561229857612297612062565b5b60006122a68582860161208d565b92505060206122b78582860161208d565b9150509250929050565b600081519050919050565b600082825260208201905092915050565b6000819050602082019050919050565b6122f68161206c565b82525050565b600061230883836122ed565b60208301905092915050565b6000602082019050919050565b600061232c826122c1565b61233681856122cc565b9350612341836122dd565b8060005b8381101561237257815161235988826122fc565b975061236483612314565b925050600181019050612345565b5085935050505092915050565b600060208201905081810360008301526123998184612321565b905092915050565b600081519050919050565b600082825260208201905092915050565b6000819050602082019050919050565b600082825260208201905092915050565b60006123e982612110565b6123f381856123cd565b935061240381856020860161212c565b61240c81612156565b840191505092915050565b600061242383836123de565b905092915050565b6000602082019050919050565b6000612443826123a1565b61244d81856123ac565b93508360208202850161245f856123bd565b8060005b8581101561249b578484038952815161247c8582612417565b94506124878361242b565b925060208a01995050600181019050612463565b50829750879550505050505092915050565b600060408201905081810360008301526124c78185612321565b905081810360208301526124db8184612438565b90509392505050565b6124ed816120ef565b82525050565b6124fc816121af565b82525050565b600082825260208201905092915050565b600061251e826122c1565b6125288185612502565b9350612533836122dd565b8060005b8381101561256457815161254b88826122fc565b975061255683612314565b925050600181019050612537565b5085935050505092915050565b60006101408301600083015161258a60008601826124e4565b50602083015184820360208601526125a282826123de565b915050604083015184820360408601526125bc82826123de565b915050606083015184820360608601526125d682826123de565b915050608083015184820360808601526125f082826123de565b91505060a083015161260560a08601826122ed565b5060c083015161261860c08601826124f3565b5060e083015184820360e086015261263082826123de565b91505061010083015184820361010086015261264c82826123de565b9150506101208301518482036101208601526126688282612513565b9150508091505092915050565b6000602082019050818103600083015261268f8184612571565b905092915050565b6126a0816121af565b81146126ab57600080fd5b50565b6000813590506126bd81612697565b92915050565b6000806000606084860312156126dc576126db612062565b5b60006126ea8682870161208d565b93505060206126fb8682870161208d565b925050604061270c868287016126ae565b9150509250925092565b600060208201905081810360008301526127308184612167565b905092915050565b600080fd5b600080fd5b7f4e487b7100000000000000000000000000000000000000000000000000000000600052604160045260246000fd5b61277a82612156565b810181811067ffffffffffffffff8211171561279957612798612742565b5b80604052505050565b60006127ac612058565b90506127b88282612771565b919050565b600067ffffffffffffffff8211156127d8576127d7612742565b5b6127e182612156565b9050602081019050919050565b82818337600083830152505050565b600061281061280b846127bd565b6127a2565b90508281526020810184848401111561282c5761282b61273d565b5b6128378482856127ee565b509392505050565b600082601f83011261285457612853612738565b5b81356128648482602086016127fd565b91505092915050565b6000806000806000806000806000806101408b8d03121561289157612890612062565b5b60008b013567ffffffffffffffff8111156128af576128ae612067565b5b6128bb8d828e0161283f565b9a505060206128cc8d828e0161208d565b99505060406128dd8d828e0161208d565b98505060608b013567ffffffffffffffff8111156128fe576128fd612067565b5b61290a8d828e0161283f565b97505060808b013567ffffffffffffffff81111561292b5761292a612067565b5b6129378d828e0161283f565b96505060a06129488d828e0161208d565b95505060c06129598d828e016126ae565b94505060e08b013567ffffffffffffffff81111561297a57612979612067565b5b6129868d828e0161283f565b9350506101008b013567ffffffffffffffff8111156129a8576129a7612067565b5b6129b48d828e0161283f565b9250506101208b013567ffffffffffffffff8111156129d6576129d5612067565b5b6129e28d828e0161283f565b9150509295989b9194979a5092959850565b6129fd816120ef565b8114612a0857600080fd5b50565b600081359050612a1a816129f4565b92915050565b600060208284031215612a3657612a35612062565b5b6000612a4484828501612a0b565b91505092915050565b6000608082019050612a6260008301876121bb565b612a6f60208301866121a0565b612a7c60408301856121a0565b612a8960608301846121bb565b95945050505050565b608082016000820151612aa860008501826124f3565b506020820151612abb60208501826122ed565b506040820151612ace60408501826122ed565b506060820151612ae160608501826124f3565b50505050565b6000608082019050612afc6000830184612a92565b92915050565b7f4e487b7100000000000000000000000000000000000000000000000000000000600052602260045260246000fd5b60006002820490506001821680612b4957607f821691505b602082108103612b5c57612b5b612b02565b5b50919050565b6000819050919050565b612b7d612b788261206c565b612b62565b82525050565b60008160601b9050919050565b6000612b9b82612b83565b9050919050565b6000612bad82612b90565b9050919050565b612bc5612bc0826120ef565b612ba2565b82525050565b6000612bd78286612b6c565b602082019150612be78285612bb4565b601482019150612bf78284612b6c565b602082019150819050949350505050565b7f4e487b7100000000000000000000000000000000000000000000000000000000600052601260045260246000fd5b6000612c428261206c565b9150612c4d8361206c565b925082612c5d57612c5c612c08565b5b828206905092915050565b7f4e487b7100000000000000000000000000000000000000000000000000000000600052603260045260246000fd5b7f4e487b7100000000000000000000000000000000000000000000000000000000600052601160045260246000fd5b6000612cd18261206c565b91507fffffffffffffffffffffffffffffffffffffffffffffffffffffffffffffffff8203612d0357612d02612c97565b5b600182019050919050565b60008190508160005260206000209050919050565b60006020601f8301049050919050565b600082821b905092915050565b600060088302612d707fffffffffffffffffffffffffffffffffffffffffffffffffffffffffffffffff82612d33565b612d7a8683612d33565b95508019841693508086168417925050509392505050565b6000819050919050565b6000612db7612db2612dad8461206c565b612d92565b61206c565b9050919050565b6000819050919050565b612dd183612d9c565b612de5612ddd82612dbe565b848454612d40565b825550505050565b600090565b612dfa612ded565b612e05818484612dc8565b505050565b5b81811015612e2957612e1e600082612df2565b600181019050612e0b565b5050565b601f821115612e6e57612e3f81612d0e565b612e4884612d23565b81016020851015612e57578190505b612e6b612e6385612d23565b830182612e0a565b50505b505050565b600082821c905092915050565b6000612e9160001984600802612e73565b1980831691505092915050565b6000612eaa8383612e80565b9150826002028217905092915050565b612ec382612110565b67ffffffffffffffff811115612edc57612edb612742565b5b612ee68254612b31565b612ef1828285612e2d565b600060209050601f831160018114612f245760008415612f12578287015190505b612f1c8582612e9e565b865550612f84565b601f198416612f3286612d0e565b60005b82811015612f5a57848901518255600182019150602085019450602081019050612f35565b86831015612f775784890151612f73601f891682612e80565b8355505b6001600288020188555050505b505050505050565b600081905092915050565b50565b6000612fa7600083612f8c565b9150612fb282612f97565b600082019050919050565b6000612fc882612f9a565b9150819050919050565b60008154612fdf81612b31565b612fe98186612f8c565b9450600182166000811461300457600181146130195761304c565b60ff198316865281151582028601935061304c565b61302285612d0e565b60005b8381101561304457815481890152600182019150602081019050613025565b838801955050505b50505092915050565b60006130618284612fd2565b915081905092915050565b60006130778261206c565b91506130828361206c565b925082820190508082111561309a57613099612c97565b5b92915050565b60006130ab8261206c565b91506130b68361206c565b92508282039050818111156130ce576130cd612c97565b5b9291505056fea2646970667358221220ce8a80879712195314486b02a926103355bd1c21c2bbcb36f15e239b0dea83ae64736f6c6343000812003368747470733a2f2f7468756d622e61632d696c6c7573742e636f6d2f63662f63663565383039343762633837336561356365313438393436376332363161325f772e6a706567",
  "linkReferences": {},
  "deployedLinkReferences": {}
}