{
    "_format": "hh-sol-artifact-1",
    "contractName": "FoteisonGame",
    "sourceName": "contracts/FoteisonGame.sol",
    "abi": [
        {
            "inputs": [],
            "stateMutability": "nonpayable",
            "type": "constructor"
        },
        {
            "anonymous": false,
            "inputs": [],
            "name": "InsufficientBalance",
            "type": "event"
        },
        {
            "anonymous": false,
            "inputs": [],
            "name": "NoConnectedSquares",
            "type": "event"
        },
        {
            "anonymous": false,
            "inputs": [
                {
                    "indexed": false,
                    "internalType": "uint256[]",
                    "name": "selectedSquareIds",
                    "type": "uint256[]"
                }
            ],
            "name": "SquareSelected",
            "type": "event"
        },
        {
            "anonymous": false,
            "inputs": [
                {
                    "indexed": false,
                    "internalType": "uint256",
                    "name": "newUserBalance",
                    "type": "uint256"
                }
            ],
            "name": "UserBalanceChanged",
            "type": "event"
        },
        {
            "inputs": [],
            "name": "backToStart",
            "outputs": [],
            "stateMutability": "nonpayable",
            "type": "function"
        },
        {
            "inputs": [
                {
                    "internalType": "uint256",
                    "name": "_squareId",
                    "type": "uint256"
                },
                {
                    "internalType": "string",
                    "name": "_createrIcon",
                    "type": "string"
                },
                {
                    "internalType": "string",
                    "name": "_description",
                    "type": "string"
                },
                {
                    "internalType": "uint256",
                    "name": "_backendSquareId",
                    "type": "uint256"
                },
                {
                    "internalType": "string",
                    "name": "_nftURL",
                    "type": "string"
                },
                {
                    "internalType": "string",
                    "name": "_questDescription",
                    "type": "string"
                },
                {
                    "internalType": "address",
                    "name": "_questContractAddress",
                    "type": "address"
                },
                {
                    "internalType": "uint256",
                    "name": "_squareBalance",
                    "type": "uint256"
                }
            ],
            "name": "createSquare",
            "outputs": [],
            "stateMutability": "nonpayable",
            "type": "function"
        },
        {
            "inputs": [],
            "name": "createUser",
            "outputs": [
                {
                    "internalType": "uint256",
                    "name": "squareId",
                    "type": "uint256"
                },
                {
                    "internalType": "uint256",
                    "name": "userBalance",
                    "type": "uint256"
                },
                {
                    "internalType": "bool",
                    "name": "userQuestStatus",
                    "type": "bool"
                }
            ],
            "stateMutability": "nonpayable",
            "type": "function"
        },
        {
            "inputs": [
                {
                    "internalType": "uint256",
                    "name": "squareId",
                    "type": "uint256"
                }
            ],
            "name": "getSquare",
            "outputs": [
                {
                    "components": [
                        {
                            "internalType": "address",
                            "name": "createrAddress",
                            "type": "address"
                        },
                        {
                            "internalType": "string",
                            "name": "createrIcon",
                            "type": "string"
                        },
                        {
                            "internalType": "string",
                            "name": "description",
                            "type": "string"
                        },
                        {
                            "internalType": "uint256[]",
                            "name": "adjacentSquareIds",
                            "type": "uint256[]"
                        },
                        {
                            "internalType": "string",
                            "name": "nftURL",
                            "type": "string"
                        },
                        {
                            "internalType": "string",
                            "name": "questDescription",
                            "type": "string"
                        },
                        {
                            "internalType": "address",
                            "name": "questContractAddress",
                            "type": "address"
                        },
                        {
                            "internalType": "uint256",
                            "name": "squareBalance",
                            "type": "uint256"
                        }
                    ],
                    "internalType": "struct FoteisonGame.Square",
                    "name": "",
                    "type": "tuple"
                }
            ],
            "stateMutability": "view",
            "type": "function"
        },
        {
            "inputs": [
                {
                    "internalType": "uint256",
                    "name": "_diceNumber",
                    "type": "uint256"
                }
            ],
            "name": "moveUser",
            "outputs": [],
            "stateMutability": "nonpayable",
            "type": "function"
        },
        {
            "inputs": [
                {
                    "internalType": "uint256",
                    "name": "",
                    "type": "uint256"
                }
            ],
            "name": "squareIdToSquare",
            "outputs": [
                {
                    "internalType": "address",
                    "name": "createrAddress",
                    "type": "address"
                },
                {
                    "internalType": "string",
                    "name": "createrIcon",
                    "type": "string"
                },
                {
                    "internalType": "string",
                    "name": "description",
                    "type": "string"
                },
                {
                    "internalType": "string",
                    "name": "nftURL",
                    "type": "string"
                },
                {
                    "internalType": "string",
                    "name": "questDescription",
                    "type": "string"
                },
                {
                    "internalType": "address",
                    "name": "questContractAddress",
                    "type": "address"
                },
                {
                    "internalType": "uint256",
                    "name": "squareBalance",
                    "type": "uint256"
                }
            ],
            "stateMutability": "view",
            "type": "function"
        },
        {
            "inputs": [
                {
                    "internalType": "uint256",
                    "name": "",
                    "type": "uint256"
                }
            ],
            "name": "squares",
            "outputs": [
                {
                    "internalType": "address",
                    "name": "createrAddress",
                    "type": "address"
                },
                {
                    "internalType": "string",
                    "name": "createrIcon",
                    "type": "string"
                },
                {
                    "internalType": "string",
                    "name": "description",
                    "type": "string"
                },
                {
                    "internalType": "string",
                    "name": "nftURL",
                    "type": "string"
                },
                {
                    "internalType": "string",
                    "name": "questDescription",
                    "type": "string"
                },
                {
                    "internalType": "address",
                    "name": "questContractAddress",
                    "type": "address"
                },
                {
                    "internalType": "uint256",
                    "name": "squareBalance",
                    "type": "uint256"
                }
            ],
            "stateMutability": "view",
            "type": "function"
        },
        {
            "inputs": [
                {
                    "internalType": "uint256",
                    "name": "_backendSquareId",
                    "type": "uint256"
                },
                {
                    "internalType": "uint256",
                    "name": "_squareId",
                    "type": "uint256"
                }
            ],
            "name": "updateAdjacentSquareIds",
            "outputs": [],
            "stateMutability": "nonpayable",
            "type": "function"
        },
        {
            "inputs": [
                {
                    "internalType": "address",
                    "name": "",
                    "type": "address"
                }
            ],
            "name": "users",
            "outputs": [
                {
                    "internalType": "uint256",
                    "name": "squareId",
                    "type": "uint256"
                },
                {
                    "internalType": "uint256",
                    "name": "userBalance",
                    "type": "uint256"
                },
                {
                    "internalType": "bool",
                    "name": "userQuestStatus",
                    "type": "bool"
                }
            ],
            "stateMutability": "view",
            "type": "function"
        }
    ],
    "bytecode": "0x60806040523480156200001157600080fd5b506200011560006040518060400160405280600881526020017f4e454b4f50554c550000000000000000000000000000000000000000000000008152506040518060400160405280600581526020017f4e454d554900000000000000000000000000000000000000000000000000000081525060006040518060400160405280600681526020017f6e667455524c00000000000000000000000000000000000000000000000000008152506040518060400160405280601081526020017f71756573744465736372697074696f6e000000000000000000000000000000008152507301d48ea6a728f91b74b0e2f36d9ae4012838356960006200011b60201b60201c565b6200093f565b60006040518061010001604052803373ffffffffffffffffffffffffffffffffffffffff168152602001898152602001888152602001600067ffffffffffffffff8111156200016f576200016e620005de565b5b6040519080825280602002602001820160405280156200019e5781602001602082028036833780820191505090505b5081526020016000875111620001ea576040518060400160405280600f81526020017f44454641554c545f4e46545f55524c0000000000000000000000000000000000815250620001ec565b865b8152602001600086511162000237576040518060400160405280601981526020017f44454641554c545f51554553545f4445534352495054494f4e0000000000000081525062000239565b855b8152602001600073ffffffffffffffffffffffffffffffffffffffff168573ffffffffffffffffffffffffffffffffffffffff16036200027b5760006200027d565b845b73ffffffffffffffffffffffffffffffffffffffff168152602001838152509050806000808b815260200190815260200160002060008201518160000160006101000a81548173ffffffffffffffffffffffffffffffffffffffff021916908373ffffffffffffffffffffffffffffffffffffffff16021790555060208201518160010190816200030f919062000858565b50604082015181600201908162000327919062000858565b506060820151816003019080519060200190620003469291906200056d565b5060808201518160040190816200035e919062000858565b5060a082015181600501908162000376919062000858565b5060c08201518160060160006101000a81548173ffffffffffffffffffffffffffffffffffffffff021916908373ffffffffffffffffffffffffffffffffffffffff16021790555060e08201518160070155905050600281908060018154018082558091505060019003906000526020600020906008020160009091909190915060008201518160000160006101000a81548173ffffffffffffffffffffffffffffffffffffffff021916908373ffffffffffffffffffffffffffffffffffffffff160217905550602082015181600101908162000455919062000858565b5060408201518160020190816200046d919062000858565b5060608201518160030190805190602001906200048c9291906200056d565b506080820151816004019081620004a4919062000858565b5060a0820151816005019081620004bc919062000858565b5060c08201518160060160006101000a81548173ffffffffffffffffffffffffffffffffffffffff021916908373ffffffffffffffffffffffffffffffffffffffff16021790555060e08201518160070155505062000522868a6200052d60201b60201c565b505050505050505050565b6000808381526020019081526020016000206003018190806001815401808255809150506001900390600052602060002001600090919091909150555050565b828054828255906000526020600020908101928215620005ac579160200282015b82811115620005ab5782518255916020019190600101906200058e565b5b509050620005bb9190620005bf565b5090565b5b80821115620005da576000816000905550600101620005c0565b5090565b7f4e487b7100000000000000000000000000000000000000000000000000000000600052604160045260246000fd5b600081519050919050565b7f4e487b7100000000000000000000000000000000000000000000000000000000600052602260045260246000fd5b600060028204905060018216806200066057607f821691505b60208210810362000676576200067562000618565b5b50919050565b60008190508160005260206000209050919050565b60006020601f8301049050919050565b600082821b905092915050565b600060088302620006e07fffffffffffffffffffffffffffffffffffffffffffffffffffffffffffffffff82620006a1565b620006ec8683620006a1565b95508019841693508086168417925050509392505050565b6000819050919050565b6000819050919050565b600062000739620007336200072d8462000704565b6200070e565b62000704565b9050919050565b6000819050919050565b620007558362000718565b6200076d620007648262000740565b848454620006ae565b825550505050565b600090565b6200078462000775565b620007918184846200074a565b505050565b5b81811015620007b957620007ad6000826200077a565b60018101905062000797565b5050565b601f8211156200080857620007d2816200067c565b620007dd8462000691565b81016020851015620007ed578190505b62000805620007fc8562000691565b83018262000796565b50505b505050565b600082821c905092915050565b60006200082d600019846008026200080d565b1980831691505092915050565b60006200084883836200081a565b9150826002028217905092915050565b62000863826200060d565b67ffffffffffffffff8111156200087f576200087e620005de565b5b6200088b825462000647565b62000898828285620007bd565b600060209050601f831160018114620008d05760008415620008bb578287015190505b620008c785826200083a565b86555062000937565b601f198416620008e0866200067c565b60005b828110156200090a57848901518255600182019150602085019450602081019050620008e3565b868310156200092a578489015162000926601f8916826200081a565b8355505b6001600288020188555050505b505050505050565b6121f3806200094f6000396000f3fe608060405234801561001057600080fd5b50600436106100935760003560e01c806383df62ed1161006657806383df62ed1461013a5780639509af03146101445780639b36de9c1461017a578063a87430ba14610196578063d0928f77146101c857610093565b80631d1d15d41461009857806325ad91ce146100ce578063479f0090146100ee578063546728a91461011e575b600080fd5b6100b260048036038101906100ad91906115bf565b6101e4565b6040516100c597969594939291906116cc565b60405180910390f35b6100d6610496565b6040516100e593929190611772565b60405180910390f35b610108600480360381019061010391906115bf565b610667565b604051610115919061198c565b60405180910390f35b610138600480360381019061013391906115bf565b6109ea565b005b610142610ca8565b005b61015e600480360381019061015991906115bf565b610d95565b60405161017197969594939291906116cc565b60405180910390f35b610194600480360381019061018f9190611b0f565b611037565b005b6101b060048036038101906101ab9190611c35565b611423565b6040516101bf93929190611772565b60405180910390f35b6101e260048036038101906101dd9190611c62565b61145a565b005b600281815481106101f457600080fd5b90600052602060002090600802016000915090508060000160009054906101000a900473ffffffffffffffffffffffffffffffffffffffff169080600101805461023d90611cd1565b80601f016020809104026020016040519081016040528092919081815260200182805461026990611cd1565b80156102b65780601f1061028b576101008083540402835291602001916102b6565b820191906000526020600020905b81548152906001019060200180831161029957829003601f168201915b5050505050908060020180546102cb90611cd1565b80601f01602080910402602001604051908101604052809291908181526020018280546102f790611cd1565b80156103445780601f1061031957610100808354040283529160200191610344565b820191906000526020600020905b81548152906001019060200180831161032757829003601f168201915b50505050509080600401805461035990611cd1565b80601f016020809104026020016040519081016040528092919081815260200182805461038590611cd1565b80156103d25780601f106103a7576101008083540402835291602001916103d2565b820191906000526020600020905b8154815290600101906020018083116103b557829003601f168201915b5050505050908060050180546103e790611cd1565b80601f016020809104026020016040519081016040528092919081815260200182805461041390611cd1565b80156104605780601f1061043557610100808354040283529160200191610460565b820191906000526020600020905b81548152906001019060200180831161044357829003601f168201915b5050505050908060060160009054906101000a900473ffffffffffffffffffffffffffffffffffffffff16908060070154905087565b600080600080600160003373ffffffffffffffffffffffffffffffffffffffff1673ffffffffffffffffffffffffffffffffffffffff16815260200190815260200160002060000154146105c557600160003373ffffffffffffffffffffffffffffffffffffffff1673ffffffffffffffffffffffffffffffffffffffff16815260200190815260200160002060000154600160003373ffffffffffffffffffffffffffffffffffffffff1673ffffffffffffffffffffffffffffffffffffffff16815260200190815260200160002060010154600160003373ffffffffffffffffffffffffffffffffffffffff1673ffffffffffffffffffffffffffffffffffffffff16815260200190815260200160002060020160009054906101000a900460ff16925092509250610662565b60006040518060600160405280600081526020016000815260200160011515815250905080600160003373ffffffffffffffffffffffffffffffffffffffff1673ffffffffffffffffffffffffffffffffffffffff168152602001908152602001600020600082015181600001556020820151816001015560408201518160020160006101000a81548160ff021916908315150217905550905050505b909192565b61066f61149a565b600080838152602001908152602001600020604051806101000160405290816000820160009054906101000a900473ffffffffffffffffffffffffffffffffffffffff1673ffffffffffffffffffffffffffffffffffffffff1673ffffffffffffffffffffffffffffffffffffffff1681526020016001820180546106f390611cd1565b80601f016020809104026020016040519081016040528092919081815260200182805461071f90611cd1565b801561076c5780601f106107415761010080835404028352916020019161076c565b820191906000526020600020905b81548152906001019060200180831161074f57829003601f168201915b5050505050815260200160028201805461078590611cd1565b80601f01602080910402602001604051908101604052809291908181526020018280546107b190611cd1565b80156107fe5780601f106107d3576101008083540402835291602001916107fe565b820191906000526020600020905b8154815290600101906020018083116107e157829003601f168201915b505050505081526020016003820180548060200260200160405190810160405280929190818152602001828054801561085657602002820191906000526020600020905b815481526020019060010190808311610842575b5050505050815260200160048201805461086f90611cd1565b80601f016020809104026020016040519081016040528092919081815260200182805461089b90611cd1565b80156108e85780601f106108bd576101008083540402835291602001916108e8565b820191906000526020600020905b8154815290600101906020018083116108cb57829003601f168201915b5050505050815260200160058201805461090190611cd1565b80601f016020809104026020016040519081016040528092919081815260200182805461092d90611cd1565b801561097a5780601f1061094f5761010080835404028352916020019161097a565b820191906000526020600020905b81548152906001019060200180831161095d57829003601f168201915b505050505081526020016006820160009054906101000a900473ffffffffffffffffffffffffffffffffffffffff1673ffffffffffffffffffffffffffffffffffffffff1673ffffffffffffffffffffffffffffffffffffffff1681526020016007820154815250509050919050565b6000600160003373ffffffffffffffffffffffffffffffffffffffff1673ffffffffffffffffffffffffffffffffffffffff1681526020019081526020016000206000015490506000806000838152602001908152602001600020600301805480602002602001604051908101604052809291908181526020018280548015610a9257602002820191906000526020600020905b815481526020019060010190808311610a7e575b5050505050905060008367ffffffffffffffff811115610ab557610ab46119b8565b5b604051908082528060200260200182016040528015610ae35781602001602082028036833780820191505090505b5090506000825103610b20577fc88f78efb5ac85889bf8050572811f32eb30e97bab8264e76379820396abff5160405160405180910390a1610ca2565b60005b84811015610c69576000835103610b70577f47753d74fe6a602edb08f6ac34fd9e3aac7bdc8725260d91f8fae9b2c6f1c7ce82604051610b639190611d71565b60405180910390a1610c56565b60008351423384604051602001610b8993929190611dfc565b6040516020818303038152906040528051906020012060001c610bac9190611e68565b90506000848281518110610bc357610bc2611e99565b5b6020026020010151905080848481518110610be157610be0611e99565b5b602002602001018181525050600080828152602001908152602001600020600301805480602002602001604051908101604052809291908181526020018280548015610c4c57602002820191906000526020600020905b815481526020019060010190808311610c38575b5050505050945050505b8080610c6190611ef7565b915050610b23565b507f47753d74fe6a602edb08f6ac34fd9e3aac7bdc8725260d91f8fae9b2c6f1c7ce81604051610c999190611d71565b60405180910390a15b50505050565b6000600160003373ffffffffffffffffffffffffffffffffffffffff1673ffffffffffffffffffffffffffffffffffffffff168152602001908152602001600020600001819055506103e8600160003373ffffffffffffffffffffffffffffffffffffffff1673ffffffffffffffffffffffffffffffffffffffff1681526020019081526020016000206001018190555060018060003373ffffffffffffffffffffffffffffffffffffffff1673ffffffffffffffffffffffffffffffffffffffff16815260200190815260200160002060020160006101000a81548160ff021916908315150217905550565b60006020528060005260406000206000915090508060000160009054906101000a900473ffffffffffffffffffffffffffffffffffffffff1690806001018054610dde90611cd1565b80601f0160208091040260200160405190810160405280929190818152602001828054610e0a90611cd1565b8015610e575780601f10610e2c57610100808354040283529160200191610e57565b820191906000526020600020905b815481529060010190602001808311610e3a57829003601f168201915b505050505090806002018054610e6c90611cd1565b80601f0160208091040260200160405190810160405280929190818152602001828054610e9890611cd1565b8015610ee55780601f10610eba57610100808354040283529160200191610ee5565b820191906000526020600020905b815481529060010190602001808311610ec857829003601f168201915b505050505090806004018054610efa90611cd1565b80601f0160208091040260200160405190810160405280929190818152602001828054610f2690611cd1565b8015610f735780601f10610f4857610100808354040283529160200191610f73565b820191906000526020600020905b815481529060010190602001808311610f5657829003601f168201915b505050505090806005018054610f8890611cd1565b80601f0160208091040260200160405190810160405280929190818152602001828054610fb490611cd1565b80156110015780601f10610fd657610100808354040283529160200191611001565b820191906000526020600020905b815481529060010190602001808311610fe457829003601f168201915b5050505050908060060160009054906101000a900473ffffffffffffffffffffffffffffffffffffffff16908060070154905087565b60006040518061010001604052803373ffffffffffffffffffffffffffffffffffffffff168152602001898152602001888152602001600067ffffffffffffffff811115611088576110876119b8565b5b6040519080825280602002602001820160405280156110b65781602001602082028036833780820191505090505b5081526020016000875111611100576040518060400160405280600f81526020017f44454641554c545f4e46545f55524c0000000000000000000000000000000000815250611102565b865b8152602001600086511161114b576040518060400160405280601981526020017f44454641554c545f51554553545f4445534352495054494f4e0000000000000081525061114d565b855b8152602001600073ffffffffffffffffffffffffffffffffffffffff168573ffffffffffffffffffffffffffffffffffffffff160361118d57600061118f565b845b73ffffffffffffffffffffffffffffffffffffffff168152602001838152509050806000808b815260200190815260200160002060008201518160000160006101000a81548173ffffffffffffffffffffffffffffffffffffffff021916908373ffffffffffffffffffffffffffffffffffffffff160217905550602082015181600101908161121f91906120eb565b50604082015181600201908161123591906120eb565b50606082015181600301908051906020019061125292919061150b565b50608082015181600401908161126891906120eb565b5060a082015181600501908161127e91906120eb565b5060c08201518160060160006101000a81548173ffffffffffffffffffffffffffffffffffffffff021916908373ffffffffffffffffffffffffffffffffffffffff16021790555060e08201518160070155905050600281908060018154018082558091505060019003906000526020600020906008020160009091909190915060008201518160000160006101000a81548173ffffffffffffffffffffffffffffffffffffffff021916908373ffffffffffffffffffffffffffffffffffffffff160217905550602082015181600101908161135b91906120eb565b50604082015181600201908161137191906120eb565b50606082015181600301908051906020019061138e92919061150b565b5060808201518160040190816113a491906120eb565b5060a08201518160050190816113ba91906120eb565b5060c08201518160060160006101000a81548173ffffffffffffffffffffffffffffffffffffffff021916908373ffffffffffffffffffffffffffffffffffffffff16021790555060e082015181600701555050611418868a61145a565b505050505050505050565b60016020528060005260406000206000915090508060000154908060010154908060020160009054906101000a900460ff16905083565b6000808381526020019081526020016000206003018190806001815401808255809150506001900390600052602060002001600090919091909150555050565b604051806101000160405280600073ffffffffffffffffffffffffffffffffffffffff1681526020016060815260200160608152602001606081526020016060815260200160608152602001600073ffffffffffffffffffffffffffffffffffffffff168152602001600081525090565b828054828255906000526020600020908101928215611547579160200282015b8281111561154657825182559160200191906001019061152b565b5b5090506115549190611558565b5090565b5b80821115611571576000816000905550600101611559565b5090565b6000604051905090565b600080fd5b600080fd5b6000819050919050565b61159c81611589565b81146115a757600080fd5b50565b6000813590506115b981611593565b92915050565b6000602082840312156115d5576115d461157f565b5b60006115e3848285016115aa565b91505092915050565b600073ffffffffffffffffffffffffffffffffffffffff82169050919050565b6000611617826115ec565b9050919050565b6116278161160c565b82525050565b600081519050919050565b600082825260208201905092915050565b60005b8381101561166757808201518184015260208101905061164c565b60008484015250505050565b6000601f19601f8301169050919050565b600061168f8261162d565b6116998185611638565b93506116a9818560208601611649565b6116b281611673565b840191505092915050565b6116c681611589565b82525050565b600060e0820190506116e1600083018a61161e565b81810360208301526116f38189611684565b905081810360408301526117078188611684565b9050818103606083015261171b8187611684565b9050818103608083015261172f8186611684565b905061173e60a083018561161e565b61174b60c08301846116bd565b98975050505050505050565b60008115159050919050565b61176c81611757565b82525050565b600060608201905061178760008301866116bd565b61179460208301856116bd565b6117a16040830184611763565b949350505050565b6117b28161160c565b82525050565b600082825260208201905092915050565b60006117d48261162d565b6117de81856117b8565b93506117ee818560208601611649565b6117f781611673565b840191505092915050565b600081519050919050565b600082825260208201905092915050565b6000819050602082019050919050565b61183781611589565b82525050565b6000611849838361182e565b60208301905092915050565b6000602082019050919050565b600061186d82611802565b611877818561180d565b93506118828361181e565b8060005b838110156118b357815161189a888261183d565b97506118a583611855565b925050600181019050611886565b5085935050505092915050565b6000610100830160008301516118d960008601826117a9565b50602083015184820360208601526118f182826117c9565b9150506040830151848203604086015261190b82826117c9565b915050606083015184820360608601526119258282611862565b9150506080830151848203608086015261193f82826117c9565b91505060a083015184820360a086015261195982826117c9565b91505060c083015161196e60c08601826117a9565b5060e083015161198160e086018261182e565b508091505092915050565b600060208201905081810360008301526119a681846118c0565b905092915050565b600080fd5b600080fd5b7f4e487b7100000000000000000000000000000000000000000000000000000000600052604160045260246000fd5b6119f082611673565b810181811067ffffffffffffffff82111715611a0f57611a0e6119b8565b5b80604052505050565b6000611a22611575565b9050611a2e82826119e7565b919050565b600067ffffffffffffffff821115611a4e57611a4d6119b8565b5b611a5782611673565b9050602081019050919050565b82818337600083830152505050565b6000611a86611a8184611a33565b611a18565b905082815260208101848484011115611aa257611aa16119b3565b5b611aad848285611a64565b509392505050565b600082601f830112611aca57611ac96119ae565b5b8135611ada848260208601611a73565b91505092915050565b611aec8161160c565b8114611af757600080fd5b50565b600081359050611b0981611ae3565b92915050565b600080600080600080600080610100898b031215611b3057611b2f61157f565b5b6000611b3e8b828c016115aa565b985050602089013567ffffffffffffffff811115611b5f57611b5e611584565b5b611b6b8b828c01611ab5565b975050604089013567ffffffffffffffff811115611b8c57611b8b611584565b5b611b988b828c01611ab5565b9650506060611ba98b828c016115aa565b955050608089013567ffffffffffffffff811115611bca57611bc9611584565b5b611bd68b828c01611ab5565b94505060a089013567ffffffffffffffff811115611bf757611bf6611584565b5b611c038b828c01611ab5565b93505060c0611c148b828c01611afa565b92505060e0611c258b828c016115aa565b9150509295985092959890939650565b600060208284031215611c4b57611c4a61157f565b5b6000611c5984828501611afa565b91505092915050565b60008060408385031215611c7957611c7861157f565b5b6000611c87858286016115aa565b9250506020611c98858286016115aa565b9150509250929050565b7f4e487b7100000000000000000000000000000000000000000000000000000000600052602260045260246000fd5b60006002820490506001821680611ce957607f821691505b602082108103611cfc57611cfb611ca2565b5b50919050565b600082825260208201905092915050565b6000611d1e82611802565b611d288185611d02565b9350611d338361181e565b8060005b83811015611d64578151611d4b888261183d565b9750611d5683611855565b925050600181019050611d37565b5085935050505092915050565b60006020820190508181036000830152611d8b8184611d13565b905092915050565b6000819050919050565b611dae611da982611589565b611d93565b82525050565b60008160601b9050919050565b6000611dcc82611db4565b9050919050565b6000611dde82611dc1565b9050919050565b611df6611df18261160c565b611dd3565b82525050565b6000611e088286611d9d565b602082019150611e188285611de5565b601482019150611e288284611d9d565b602082019150819050949350505050565b7f4e487b7100000000000000000000000000000000000000000000000000000000600052601260045260246000fd5b6000611e7382611589565b9150611e7e83611589565b925082611e8e57611e8d611e39565b5b828206905092915050565b7f4e487b7100000000000000000000000000000000000000000000000000000000600052603260045260246000fd5b7f4e487b7100000000000000000000000000000000000000000000000000000000600052601160045260246000fd5b6000611f0282611589565b91507fffffffffffffffffffffffffffffffffffffffffffffffffffffffffffffffff8203611f3457611f33611ec8565b5b600182019050919050565b60008190508160005260206000209050919050565b60006020601f8301049050919050565b600082821b905092915050565b600060088302611fa17fffffffffffffffffffffffffffffffffffffffffffffffffffffffffffffffff82611f64565b611fab8683611f64565b95508019841693508086168417925050509392505050565b6000819050919050565b6000611fe8611fe3611fde84611589565b611fc3565b611589565b9050919050565b6000819050919050565b61200283611fcd565b61201661200e82611fef565b848454611f71565b825550505050565b600090565b61202b61201e565b612036818484611ff9565b505050565b5b8181101561205a5761204f600082612023565b60018101905061203c565b5050565b601f82111561209f5761207081611f3f565b61207984611f54565b81016020851015612088578190505b61209c61209485611f54565b83018261203b565b50505b505050565b600082821c905092915050565b60006120c2600019846008026120a4565b1980831691505092915050565b60006120db83836120b1565b9150826002028217905092915050565b6120f48261162d565b67ffffffffffffffff81111561210d5761210c6119b8565b5b6121178254611cd1565b61212282828561205e565b600060209050601f8311600181146121555760008415612143578287015190505b61214d85826120cf565b8655506121b5565b601f19841661216386611f3f565b60005b8281101561218b57848901518255600182019150602085019450602081019050612166565b868310156121a857848901516121a4601f8916826120b1565b8355505b6001600288020188555050505b50505050505056fea2646970667358221220427ba060ecba35acff6dc705c114e42f2efd1da31ed7f740124460ece5c9211164736f6c63430008120033",
    "linkReferences": {},
    "deployedLinkReferences": {}
}