{
  "_format": "hh-sol-artifact-1",
  "contractName": "FoteisonGame",
  "sourceName": "contracts/FoteisonGame.sol",
  "abi": [
    {
      "inputs": [],
      "stateMutability": "nonpayable",
      "type": "constructor"
    },
    {
      "anonymous": false,
      "inputs": [],
      "name": "InsufficientBalance",
      "type": "event"
    },
    {
      "inputs": [],
      "name": "QuestStatusToTrue",
      "outputs": [],
      "stateMutability": "nonpayable",
      "type": "function"
    },
    {
      "inputs": [],
      "name": "backToStart",
      "outputs": [],
      "stateMutability": "nonpayable",
      "type": "function"
    },
    {
      "inputs": [],
      "name": "confirmUser",
      "outputs": [
        {
          "components": [
            {
              "internalType": "bool",
              "name": "initialized",
              "type": "bool"
            },
            {
              "internalType": "uint256",
              "name": "squareId",
              "type": "uint256"
            },
            {
              "internalType": "uint256",
              "name": "userBalance",
              "type": "uint256"
            },
            {
              "internalType": "bool",
              "name": "userQuestStatus",
              "type": "bool"
            }
          ],
          "internalType": "struct FoteisonGame.User",
          "name": "",
          "type": "tuple"
        }
      ],
      "stateMutability": "view",
      "type": "function"
    },
    {
      "inputs": [
        {
          "internalType": "string",
          "name": "_createrENS",
          "type": "string"
        },
        {
          "internalType": "uint256",
          "name": "_squareId",
          "type": "uint256"
        },
        {
          "internalType": "uint256",
          "name": "_backendSquareId",
          "type": "uint256"
        },
        {
          "internalType": "string",
          "name": "_squareDescription",
          "type": "string"
        },
        {
          "internalType": "string",
          "name": "_squareNftURL",
          "type": "string"
        },
        {
          "internalType": "uint256",
          "name": "_squareBalance",
          "type": "uint256"
        },
        {
          "internalType": "bool",
          "name": "_IsBalanceAdd",
          "type": "bool"
        },
        {
          "internalType": "string",
          "name": "_questContractAddress",
          "type": "string"
        },
        {
          "internalType": "string",
          "name": "_questDescription",
          "type": "string"
        },
        {
          "internalType": "string",
          "name": "_createrIcon",
          "type": "string"
        }
      ],
      "name": "createSquare",
      "outputs": [],
      "stateMutability": "nonpayable",
      "type": "function"
    },
    {
      "inputs": [
        {
          "internalType": "uint256",
          "name": "_squareId",
          "type": "uint256"
        },
        {
          "internalType": "uint256",
          "name": "_userBalance",
          "type": "uint256"
        },
        {
          "internalType": "bool",
          "name": "_userQuestStatus",
          "type": "bool"
        }
      ],
      "name": "createUser",
      "outputs": [],
      "stateMutability": "nonpayable",
      "type": "function"
    },
    {
      "inputs": [
        {
          "internalType": "uint256",
          "name": "squareId",
          "type": "uint256"
        }
      ],
      "name": "getAdjacentSquareIds",
      "outputs": [
        {
          "internalType": "uint256[]",
          "name": "",
          "type": "uint256[]"
        }
      ],
      "stateMutability": "view",
      "type": "function"
    },
    {
      "inputs": [],
      "name": "getAllSquareNftURLs",
      "outputs": [
        {
          "internalType": "uint256[]",
          "name": "",
          "type": "uint256[]"
        },
        {
          "internalType": "string[]",
          "name": "",
          "type": "string[]"
        }
      ],
      "stateMutability": "view",
      "type": "function"
    },
    {
      "inputs": [
        {
          "internalType": "uint256",
          "name": "squareId",
          "type": "uint256"
        }
      ],
      "name": "getSquare",
      "outputs": [
        {
          "components": [
            {
              "internalType": "address",
              "name": "createrAddress",
              "type": "address"
            },
            {
              "internalType": "string",
              "name": "createrENS",
              "type": "string"
            },
            {
              "internalType": "string",
              "name": "createrIcon",
              "type": "string"
            },
            {
              "internalType": "string",
              "name": "squareDescription",
              "type": "string"
            },
            {
              "internalType": "string",
              "name": "squareNftURL",
              "type": "string"
            },
            {
              "internalType": "uint256",
              "name": "squareBalance",
              "type": "uint256"
            },
            {
              "internalType": "bool",
              "name": "IsBalanceAdd",
              "type": "bool"
            },
            {
              "internalType": "string",
              "name": "questContractAddress",
              "type": "string"
            },
            {
              "internalType": "string",
              "name": "questDescription",
              "type": "string"
            },
            {
              "internalType": "uint256[]",
              "name": "adjacentSquareIds",
              "type": "uint256[]"
            }
          ],
          "internalType": "struct FoteisonGame.Square",
          "name": "",
          "type": "tuple"
        }
      ],
      "stateMutability": "view",
      "type": "function"
    },
    {
      "inputs": [
        {
          "internalType": "uint256",
          "name": "squareId",
          "type": "uint256"
        }
      ],
      "name": "getSquareNftURL",
      "outputs": [
        {
          "internalType": "string",
          "name": "",
          "type": "string"
        }
      ],
      "stateMutability": "view",
      "type": "function"
    },
    {
      "inputs": [
        {
          "internalType": "uint256",
          "name": "_diceNumber",
          "type": "uint256"
        },
        {
          "internalType": "uint256",
          "name": "_currentSquareId",
          "type": "uint256"
        }
      ],
      "name": "moveUser",
      "outputs": [
        {
          "internalType": "uint256[]",
          "name": "",
          "type": "uint256[]"
        }
      ],
      "stateMutability": "view",
      "type": "function"
    },
    {
      "inputs": [
        {
          "internalType": "uint256",
          "name": "",
          "type": "uint256"
        }
      ],
      "name": "squareIdToSquare",
      "outputs": [
        {
          "internalType": "address",
          "name": "createrAddress",
          "type": "address"
        },
        {
          "internalType": "string",
          "name": "createrENS",
          "type": "string"
        },
        {
          "internalType": "string",
          "name": "createrIcon",
          "type": "string"
        },
        {
          "internalType": "string",
          "name": "squareDescription",
          "type": "string"
        },
        {
          "internalType": "string",
          "name": "squareNftURL",
          "type": "string"
        },
        {
          "internalType": "uint256",
          "name": "squareBalance",
          "type": "uint256"
        },
        {
          "internalType": "bool",
          "name": "IsBalanceAdd",
          "type": "bool"
        },
        {
          "internalType": "string",
          "name": "questContractAddress",
          "type": "string"
        },
        {
          "internalType": "string",
          "name": "questDescription",
          "type": "string"
        }
      ],
      "stateMutability": "view",
      "type": "function"
    },
    {
      "inputs": [
        {
          "internalType": "uint256",
          "name": "",
          "type": "uint256"
        }
      ],
      "name": "squareIdToSquareNftURL",
      "outputs": [
        {
          "internalType": "string",
          "name": "",
          "type": "string"
        }
      ],
      "stateMutability": "view",
      "type": "function"
    },
    {
      "inputs": [
        {
          "internalType": "uint256",
          "name": "",
          "type": "uint256"
        }
      ],
      "name": "squares",
      "outputs": [
        {
          "internalType": "address",
          "name": "createrAddress",
          "type": "address"
        },
        {
          "internalType": "string",
          "name": "createrENS",
          "type": "string"
        },
        {
          "internalType": "string",
          "name": "createrIcon",
          "type": "string"
        },
        {
          "internalType": "string",
          "name": "squareDescription",
          "type": "string"
        },
        {
          "internalType": "string",
          "name": "squareNftURL",
          "type": "string"
        },
        {
          "internalType": "uint256",
          "name": "squareBalance",
          "type": "uint256"
        },
        {
          "internalType": "bool",
          "name": "IsBalanceAdd",
          "type": "bool"
        },
        {
          "internalType": "string",
          "name": "questContractAddress",
          "type": "string"
        },
        {
          "internalType": "string",
          "name": "questDescription",
          "type": "string"
        }
      ],
      "stateMutability": "view",
      "type": "function"
    },
    {
      "inputs": [
        {
          "internalType": "uint256",
          "name": "_backendSquareId",
          "type": "uint256"
        },
        {
          "internalType": "uint256",
          "name": "_squareId",
          "type": "uint256"
        }
      ],
      "name": "updateAdjacentSquareIds",
      "outputs": [],
      "stateMutability": "nonpayable",
      "type": "function"
    },
    {
      "inputs": [
        {
          "internalType": "uint256",
          "name": "_squareId",
          "type": "uint256"
        },
        {
          "internalType": "uint256",
          "name": "_userBalance",
          "type": "uint256"
        },
        {
          "internalType": "bool",
          "name": "_userQuestStatus",
          "type": "bool"
        }
      ],
      "name": "updateUser",
      "outputs": [],
      "stateMutability": "nonpayable",
      "type": "function"
    },
    {
      "inputs": [
        {
          "internalType": "address",
          "name": "",
          "type": "address"
        }
      ],
      "name": "users",
      "outputs": [
        {
          "internalType": "bool",
          "name": "initialized",
          "type": "bool"
        },
        {
          "internalType": "uint256",
          "name": "squareId",
          "type": "uint256"
        },
        {
          "internalType": "uint256",
          "name": "userBalance",
          "type": "uint256"
        },
        {
          "internalType": "bool",
          "name": "userQuestStatus",
          "type": "bool"
        }
      ],
      "stateMutability": "view",
      "type": "function"
    }
  ],
  "bytecode": "0x60806040523480156200001157600080fd5b50620000e76040518060400160405280601081526020017f5361746f736869204e616b616d6f746f000000000000000000000000000000008152506104fb66038d7ea4c680006040518060400160405280600d81526020017f47656e6573697320426c6f636b0000000000000000000000000000000000000081525060405180608001604052806046815260200162003c7c60469139600060016040518060200160405280600081525060405180602001604052806000815250604051806020016040528060008152506200012b60201b60201c565b60405180608001604052806046815260200162003c7c60469139600260006104fb8152602001908152602001600020908162000124919062000811565b50620008f8565b60006040518061014001604052803373ffffffffffffffffffffffffffffffffffffffff1681526020018c8152602001838152602001898152602001888152602001878152602001861515815260200160008651116200019b57604051806020016040528060008152506200019d565b855b81526020016000855111620001c25760405180602001604052806000815250620001c4565b845b8152602001600067ffffffffffffffff811115620001e757620001e6620005a2565b5b604051908082528060200260200182016040528015620002165781602001602082028036833780820191505090505b508152509050806000808c815260200190815260200160002060008201518160000160006101000a81548173ffffffffffffffffffffffffffffffffffffffff021916908373ffffffffffffffffffffffffffffffffffffffff16021790555060208201518160010190816200028d919062000811565b506040820151816002019081620002a5919062000811565b506060820151816003019081620002bd919062000811565b506080820151816004019081620002d5919062000811565b5060a0820151816005015560c08201518160060160006101000a81548160ff02191690831515021790555060e082015181600701908162000317919062000811565b5061010082015181600801908162000330919062000811565b506101208201518160090190805190602001906200035092919062000526565b5090505086600260008c8152602001908152602001600020908162000376919062000811565b5060038190806001815401808255809150506001900390600052602060002090600a020160009091909190915060008201518160000160006101000a81548173ffffffffffffffffffffffffffffffffffffffff021916908373ffffffffffffffffffffffffffffffffffffffff160217905550602082015181600101908162000401919062000811565b50604082015181600201908162000419919062000811565b50606082015181600301908162000431919062000811565b50608082015181600401908162000449919062000811565b5060a0820151816005015560c08201518160060160006101000a81548160ff02191690831515021790555060e08201518160070190816200048b919062000811565b50610100820151816008019081620004a4919062000811565b50610120820151816009019080519060200190620004c492919062000526565b505050620004d9898b620004e660201b60201c565b5050505050505050505050565b6000808381526020019081526020016000206009018190806001815401808255809150506001900390600052602060002001600090919091909150555050565b82805482825590600052602060002090810192821562000565579160200282015b828111156200056457825182559160200191906001019062000547565b5b50905062000574919062000578565b5090565b5b808211156200059357600081600090555060010162000579565b5090565b600081519050919050565b7f4e487b7100000000000000000000000000000000000000000000000000000000600052604160045260246000fd5b7f4e487b7100000000000000000000000000000000000000000000000000000000600052602260045260246000fd5b600060028204905060018216806200061957607f821691505b6020821081036200062f576200062e620005d1565b5b50919050565b60008190508160005260206000209050919050565b60006020601f8301049050919050565b600082821b905092915050565b600060088302620006997fffffffffffffffffffffffffffffffffffffffffffffffffffffffffffffffff826200065a565b620006a586836200065a565b95508019841693508086168417925050509392505050565b6000819050919050565b6000819050919050565b6000620006f2620006ec620006e684620006bd565b620006c7565b620006bd565b9050919050565b6000819050919050565b6200070e83620006d1565b620007266200071d82620006f9565b84845462000667565b825550505050565b600090565b6200073d6200072e565b6200074a81848462000703565b505050565b5b8181101562000772576200076660008262000733565b60018101905062000750565b5050565b601f821115620007c1576200078b8162000635565b62000796846200064a565b81016020851015620007a6578190505b620007be620007b5856200064a565b8301826200074f565b50505b505050565b600082821c905092915050565b6000620007e660001984600802620007c6565b1980831691505092915050565b6000620008018383620007d3565b9150826002028217905092915050565b6200081c8262000597565b67ffffffffffffffff811115620008385762000837620005a2565b5b62000844825462000600565b6200085182828562000776565b600060209050601f83116001811462000889576000841562000874578287015190505b620008808582620007f3565b865550620008f0565b601f198416620008998662000635565b60005b82811015620008c3578489015182556001820191506020850194506020810190506200089c565b86831015620008e35784890151620008df601f891682620007d3565b8355505b6001600288020188555050505b505050505050565b61337480620009086000396000f3fe608060405234801561001057600080fd5b50600436106101005760003560e01c80639509af0311610097578063c250f1ea11610066578063c250f1ea146102d3578063d0928f77146102ef578063e81a6d6e1461030b578063f5f1fcbb1461032957610100565b80639509af031461022e578063a87430ba14610266578063afb3167d14610299578063b81ad3d8146102a357610100565b8063619dd1b4116100d3578063619dd1b4146101bc57806369634ada146101d85780637fd3f4451461020857806383df62ed1461022457610100565b80631d1d15d4146101055780632e6062901461013d578063303819a01461016d578063479f00901461018c575b600080fd5b61011f600480360381019061011a91906122a0565b610359565b604051610134999897969594939291906123c8565b60405180910390f35b6101576004803603810190610152919061247f565b610714565b604051610164919061257d565b60405180910390f35b6101756109f7565b6040516101839291906126ab565b60405180910390f35b6101a660048036038101906101a191906122a0565b610cfe565b6040516101b39190612873565b60405180910390f35b6101d660048036038101906101d191906128c1565b61116a565b005b6101f260048036038101906101ed91906122a0565b611231565b6040516101ff9190612914565b60405180910390f35b610222600480360381019061021d9190612a6b565b6112d6565b005b61022c611663565b005b610248600480360381019061024391906122a0565b6117ac565b60405161025d999897969594939291906123c8565b60405180910390f35b610280600480360381019061027b9190612c1e565b611b57565b6040516102909493929190612c4b565b60405180910390f35b6102a1611ba1565b005b6102bd60048036038101906102b891906122a0565b611bfd565b6040516102ca9190612914565b60405180910390f35b6102ed60048036038101906102e891906128c1565b611c9d565b005b6103096004803603810190610304919061247f565b611e77565b005b610313611eb7565b6040516103209190612ce5565b60405180910390f35b610343600480360381019061033e91906122a0565b611f58565b604051610350919061257d565b60405180910390f35b6003818154811061036957600080fd5b90600052602060002090600a02016000915090508060000160009054906101000a900473ffffffffffffffffffffffffffffffffffffffff16908060010180546103b290612d2f565b80601f01602080910402602001604051908101604052809291908181526020018280546103de90612d2f565b801561042b5780601f106104005761010080835404028352916020019161042b565b820191906000526020600020905b81548152906001019060200180831161040e57829003601f168201915b50505050509080600201805461044090612d2f565b80601f016020809104026020016040519081016040528092919081815260200182805461046c90612d2f565b80156104b95780601f1061048e576101008083540402835291602001916104b9565b820191906000526020600020905b81548152906001019060200180831161049c57829003601f168201915b5050505050908060030180546104ce90612d2f565b80601f01602080910402602001604051908101604052809291908181526020018280546104fa90612d2f565b80156105475780601f1061051c57610100808354040283529160200191610547565b820191906000526020600020905b81548152906001019060200180831161052a57829003601f168201915b50505050509080600401805461055c90612d2f565b80601f016020809104026020016040519081016040528092919081815260200182805461058890612d2f565b80156105d55780601f106105aa576101008083540402835291602001916105d5565b820191906000526020600020905b8154815290600101906020018083116105b857829003601f168201915b5050505050908060050154908060060160009054906101000a900460ff169080600701805461060390612d2f565b80601f016020809104026020016040519081016040528092919081815260200182805461062f90612d2f565b801561067c5780601f106106515761010080835404028352916020019161067c565b820191906000526020600020905b81548152906001019060200180831161065f57829003601f168201915b50505050509080600801805461069190612d2f565b80601f01602080910402602001604051908101604052809291908181526020018280546106bd90612d2f565b801561070a5780601f106106df5761010080835404028352916020019161070a565b820191906000526020600020905b8154815290600101906020018083116106ed57829003601f168201915b5050505050905089565b6060600080600084815260200190815260200160002060090180548060200260200160405190810160405280929190818152602001828054801561077757602002820191906000526020600020905b815481526020019060010190808311610763575b5050505050905060008151036107d957600067ffffffffffffffff8111156107a2576107a1612940565b5b6040519080825280602002602001820160405280156107d05781602001602082028036833780820191505090505b509150506109f1565b60008467ffffffffffffffff8111156107f5576107f4612940565b5b6040519080825280602002602001820160405280156108235781602001602082028036833780820191505090505b5090506000805b8681101561094257600084510315610942576000845142338460405160200161085593929190612dc9565b6040516020818303038152906040528051906020012060001c6108789190612e35565b9050600085828151811061088f5761088e612e66565b5b60200260200101519050808584815181106108ad576108ac612e66565b5b60200260200101818152505083806108c490612ec4565b94505060008082815260200190815260200160002060090180548060200260200160405190810160405280929190818152602001828054801561092657602002820191906000526020600020905b815481526020019060010190808311610912575b505050505095505050808061093a90612ec4565b91505061082a565b5060008167ffffffffffffffff81111561095f5761095e612940565b5b60405190808252806020026020018201604052801561098d5781602001602082028036833780820191505090505b50905060005b828110156109e8578381815181106109ae576109ad612e66565b5b60200260200101518282815181106109c9576109c8612e66565b5b60200260200101818152505080806109e090612ec4565b915050610993565b50809450505050505b92915050565b60608060006109c467ffffffffffffffff811115610a1857610a17612940565b5b604051908082528060200260200182016040528015610a465781602001602082028036833780820191505090505b50905060006109c467ffffffffffffffff811115610a6757610a66612940565b5b604051908082528060200260200182016040528015610a9a57816020015b6060815260200190600190039081610a855790505b5090506000805b6109c4811015610bbd5760008190506000600260008381526020019081526020016000208054610ad090612d2f565b80601f0160208091040260200160405190810160405280929190818152602001828054610afc90612d2f565b8015610b495780601f10610b1e57610100808354040283529160200191610b49565b820191906000526020600020905b815481529060010190602001808311610b2c57829003601f168201915b50505050509050600081511115610ba85781868581518110610b6e57610b6d612e66565b5b60200260200101818152505080858581518110610b8e57610b8d612e66565b5b60200260200101819052508380610ba490612ec4565b9450505b50508080610bb590612ec4565b915050610aa1565b5060008167ffffffffffffffff811115610bda57610bd9612940565b5b604051908082528060200260200182016040528015610c085781602001602082028036833780820191505090505b50905060008267ffffffffffffffff811115610c2757610c26612940565b5b604051908082528060200260200182016040528015610c5a57816020015b6060815260200190600190039081610c455790505b50905060005b83811015610cee57858181518110610c7b57610c7a612e66565b5b6020026020010151838281518110610c9657610c95612e66565b5b602002602001018181525050848181518110610cb557610cb4612e66565b5b6020026020010151828281518110610cd057610ccf612e66565b5b60200260200101819052508080610ce690612ec4565b915050610c60565b5081819650965050505050509091565b610d06612155565b600080838152602001908152602001600020604051806101400160405290816000820160009054906101000a900473ffffffffffffffffffffffffffffffffffffffff1673ffffffffffffffffffffffffffffffffffffffff1673ffffffffffffffffffffffffffffffffffffffff168152602001600182018054610d8a90612d2f565b80601f0160208091040260200160405190810160405280929190818152602001828054610db690612d2f565b8015610e035780601f10610dd857610100808354040283529160200191610e03565b820191906000526020600020905b815481529060010190602001808311610de657829003601f168201915b50505050508152602001600282018054610e1c90612d2f565b80601f0160208091040260200160405190810160405280929190818152602001828054610e4890612d2f565b8015610e955780601f10610e6a57610100808354040283529160200191610e95565b820191906000526020600020905b815481529060010190602001808311610e7857829003601f168201915b50505050508152602001600382018054610eae90612d2f565b80601f0160208091040260200160405190810160405280929190818152602001828054610eda90612d2f565b8015610f275780601f10610efc57610100808354040283529160200191610f27565b820191906000526020600020905b815481529060010190602001808311610f0a57829003601f168201915b50505050508152602001600482018054610f4090612d2f565b80601f0160208091040260200160405190810160405280929190818152602001828054610f6c90612d2f565b8015610fb95780601f10610f8e57610100808354040283529160200191610fb9565b820191906000526020600020905b815481529060010190602001808311610f9c57829003601f168201915b50505050508152602001600582015481526020016006820160009054906101000a900460ff16151515158152602001600782018054610ff790612d2f565b80601f016020809104026020016040519081016040528092919081815260200182805461102390612d2f565b80156110705780601f1061104557610100808354040283529160200191611070565b820191906000526020600020905b81548152906001019060200180831161105357829003601f168201915b5050505050815260200160088201805461108990612d2f565b80601f01602080910402602001604051908101604052809291908181526020018280546110b590612d2f565b80156111025780601f106110d757610100808354040283529160200191611102565b820191906000526020600020905b8154815290600101906020018083116110e557829003601f168201915b505050505081526020016009820180548060200260200160405190810160405280929190818152602001828054801561115a57602002820191906000526020600020905b815481526020019060010190808311611146575b5050505050815250509050919050565b60006040518060800160405280600115158152602001858152602001848152602001831515815250905080600160003373ffffffffffffffffffffffffffffffffffffffff1673ffffffffffffffffffffffffffffffffffffffff16815260200190815260200160002060008201518160000160006101000a81548160ff021916908315150217905550602082015181600101556040820151816002015560608201518160030160006101000a81548160ff02191690831515021790555090505050505050565b606060026000838152602001908152602001600020805461125190612d2f565b80601f016020809104026020016040519081016040528092919081815260200182805461127d90612d2f565b80156112ca5780601f1061129f576101008083540402835291602001916112ca565b820191906000526020600020905b8154815290600101906020018083116112ad57829003601f168201915b50505050509050919050565b60006040518061014001604052803373ffffffffffffffffffffffffffffffffffffffff1681526020018c8152602001838152602001898152602001888152602001878152602001861515815260200160008651116113445760405180602001604052806000815250611346565b855b81526020016000855111611369576040518060200160405280600081525061136b565b845b8152602001600067ffffffffffffffff81111561138b5761138a612940565b5b6040519080825280602002602001820160405280156113b95781602001602082028036833780820191505090505b508152509050806000808c815260200190815260200160002060008201518160000160006101000a81548173ffffffffffffffffffffffffffffffffffffffff021916908373ffffffffffffffffffffffffffffffffffffffff160217905550602082015181600101908161142e91906130b8565b50604082015181600201908161144491906130b8565b50606082015181600301908161145a91906130b8565b50608082015181600401908161147091906130b8565b5060a0820151816005015560c08201518160060160006101000a81548160ff02191690831515021790555060e08201518160070190816114b091906130b8565b506101008201518160080190816114c791906130b8565b506101208201518160090190805190602001906114e59291906121c0565b5090505086600260008c8152602001908152602001600020908161150991906130b8565b5060038190806001815401808255809150506001900390600052602060002090600a020160009091909190915060008201518160000160006101000a81548173ffffffffffffffffffffffffffffffffffffffff021916908373ffffffffffffffffffffffffffffffffffffffff160217905550602082015181600101908161159291906130b8565b5060408201518160020190816115a891906130b8565b5060608201518160030190816115be91906130b8565b5060808201518160040190816115d491906130b8565b5060a0820151816005015560c08201518160060160006101000a81548160ff02191690831515021790555060e082015181600701908161161491906130b8565b5061010082015181600801908161162b91906130b8565b506101208201518160090190805190602001906116499291906121c0565b505050611656898b611e77565b5050505050505050505050565b6000600160003373ffffffffffffffffffffffffffffffffffffffff1673ffffffffffffffffffffffffffffffffffffffff16815260200190815260200160002060000160006101000a81548160ff0219169083151502179055506104fb600160003373ffffffffffffffffffffffffffffffffffffffff1673ffffffffffffffffffffffffffffffffffffffff168152602001908152602001600020600101819055506103e8600160003373ffffffffffffffffffffffffffffffffffffffff1673ffffffffffffffffffffffffffffffffffffffff1681526020019081526020016000206002018190555060018060003373ffffffffffffffffffffffffffffffffffffffff1673ffffffffffffffffffffffffffffffffffffffff16815260200190815260200160002060030160006101000a81548160ff021916908315150217905550565b60006020528060005260406000206000915090508060000160009054906101000a900473ffffffffffffffffffffffffffffffffffffffff16908060010180546117f590612d2f565b80601f016020809104026020016040519081016040528092919081815260200182805461182190612d2f565b801561186e5780601f106118435761010080835404028352916020019161186e565b820191906000526020600020905b81548152906001019060200180831161185157829003601f168201915b50505050509080600201805461188390612d2f565b80601f01602080910402602001604051908101604052809291908181526020018280546118af90612d2f565b80156118fc5780601f106118d1576101008083540402835291602001916118fc565b820191906000526020600020905b8154815290600101906020018083116118df57829003601f168201915b50505050509080600301805461191190612d2f565b80601f016020809104026020016040519081016040528092919081815260200182805461193d90612d2f565b801561198a5780601f1061195f5761010080835404028352916020019161198a565b820191906000526020600020905b81548152906001019060200180831161196d57829003601f168201915b50505050509080600401805461199f90612d2f565b80601f01602080910402602001604051908101604052809291908181526020018280546119cb90612d2f565b8015611a185780601f106119ed57610100808354040283529160200191611a18565b820191906000526020600020905b8154815290600101906020018083116119fb57829003601f168201915b5050505050908060050154908060060160009054906101000a900460ff1690806007018054611a4690612d2f565b80601f0160208091040260200160405190810160405280929190818152602001828054611a7290612d2f565b8015611abf5780601f10611a9457610100808354040283529160200191611abf565b820191906000526020600020905b815481529060010190602001808311611aa257829003601f168201915b505050505090806008018054611ad490612d2f565b80601f0160208091040260200160405190810160405280929190818152602001828054611b0090612d2f565b8015611b4d5780601f10611b2257610100808354040283529160200191611b4d565b820191906000526020600020905b815481529060010190602001808311611b3057829003601f168201915b5050505050905089565b60016020528060005260406000206000915090508060000160009054906101000a900460ff16908060010154908060020154908060030160009054906101000a900460ff16905084565b60018060003373ffffffffffffffffffffffffffffffffffffffff1673ffffffffffffffffffffffffffffffffffffffff16815260200190815260200160002060030160006101000a81548160ff021916908315150217905550565b60026020528060005260406000206000915090508054611c1c90612d2f565b80601f0160208091040260200160405190810160405280929190818152602001828054611c4890612d2f565b8015611c955780601f10611c6a57610100808354040283529160200191611c95565b820191906000526020600020905b815481529060010190602001808311611c7857829003601f168201915b505050505081565b600160003373ffffffffffffffffffffffffffffffffffffffff1673ffffffffffffffffffffffffffffffffffffffff16815260200190815260200160002060000160009054906101000a900460ff16611cfd57611cfc83838361116a565b5b82600160003373ffffffffffffffffffffffffffffffffffffffff1673ffffffffffffffffffffffffffffffffffffffff168152602001908152602001600020600101819055506000806000858152602001908152602001600020600501541115611db1576000611d6d84611fc5565b905080611daf576040517f08c379a0000000000000000000000000000000000000000000000000000000008152600401611da6906131d6565b60405180910390fd5b505b604051602001611dc090613227565b60405160208183030381529060405280519060200120600080858152602001908152602001600020600701604051602001611dfb91906132bf565b6040516020818303038152906040528051906020012014611e72576000600160003373ffffffffffffffffffffffffffffffffffffffff1673ffffffffffffffffffffffffffffffffffffffff16815260200190815260200160002060030160006101000a81548160ff0219169083151502179055505b505050565b6000808381526020019081526020016000206009018190806001815401808255809150506001900390600052602060002001600090919091909150555050565b611ebf61220d565b600160003373ffffffffffffffffffffffffffffffffffffffff1673ffffffffffffffffffffffffffffffffffffffff1681526020019081526020016000206040518060800160405290816000820160009054906101000a900460ff1615151515815260200160018201548152602001600282015481526020016003820160009054906101000a900460ff161515151581525050905090565b6060600080838152602001908152602001600020600901805480602002602001604051908101604052809291908181526020018280548015611fb957602002820191906000526020600020905b815481526020019060010190808311611fa5575b50505050509050919050565b600080600160003373ffffffffffffffffffffffffffffffffffffffff1673ffffffffffffffffffffffffffffffffffffffff168152602001908152602001600020600201549050600080600085815260200190815260200160002060050154905060008085815260200190815260200160002060060160009054906101000a900460ff16156120b2576000818361205d91906132d6565b905080600160003373ffffffffffffffffffffffffffffffffffffffff1673ffffffffffffffffffffffffffffffffffffffff1681526020019081526020016000206002018190555060019350505050612150565b8082111561211d57600081836120c8919061330a565b905080600160003373ffffffffffffffffffffffffffffffffffffffff1673ffffffffffffffffffffffffffffffffffffffff1681526020019081526020016000206002018190555060019350505050612150565b7ff4d678b8ce6b5157126b1484a53523762a93571537a7d5ae97d8014a44715c9460405160405180910390a16000925050505b919050565b604051806101400160405280600073ffffffffffffffffffffffffffffffffffffffff16815260200160608152602001606081526020016060815260200160608152602001600081526020016000151581526020016060815260200160608152602001606081525090565b8280548282559060005260206000209081019282156121fc579160200282015b828111156121fb5782518255916020019190600101906121e0565b5b5090506122099190612239565b5090565b604051806080016040528060001515815260200160008152602001600081526020016000151581525090565b5b8082111561225257600081600090555060010161223a565b5090565b6000604051905090565b600080fd5b600080fd5b6000819050919050565b61227d8161226a565b811461228857600080fd5b50565b60008135905061229a81612274565b92915050565b6000602082840312156122b6576122b5612260565b5b60006122c48482850161228b565b91505092915050565b600073ffffffffffffffffffffffffffffffffffffffff82169050919050565b60006122f8826122cd565b9050919050565b612308816122ed565b82525050565b600081519050919050565b600082825260208201905092915050565b60005b8381101561234857808201518184015260208101905061232d565b60008484015250505050565b6000601f19601f8301169050919050565b60006123708261230e565b61237a8185612319565b935061238a81856020860161232a565b61239381612354565b840191505092915050565b6123a78161226a565b82525050565b60008115159050919050565b6123c2816123ad565b82525050565b6000610120820190506123de600083018c6122ff565b81810360208301526123f0818b612365565b90508181036040830152612404818a612365565b905081810360608301526124188189612365565b9050818103608083015261242c8188612365565b905061243b60a083018761239e565b61244860c08301866123b9565b81810360e083015261245a8185612365565b905081810361010083015261246f8184612365565b90509a9950505050505050505050565b6000806040838503121561249657612495612260565b5b60006124a48582860161228b565b92505060206124b58582860161228b565b9150509250929050565b600081519050919050565b600082825260208201905092915050565b6000819050602082019050919050565b6124f48161226a565b82525050565b600061250683836124eb565b60208301905092915050565b6000602082019050919050565b600061252a826124bf565b61253481856124ca565b935061253f836124db565b8060005b8381101561257057815161255788826124fa565b975061256283612512565b925050600181019050612543565b5085935050505092915050565b60006020820190508181036000830152612597818461251f565b905092915050565b600081519050919050565b600082825260208201905092915050565b6000819050602082019050919050565b600082825260208201905092915050565b60006125e78261230e565b6125f181856125cb565b935061260181856020860161232a565b61260a81612354565b840191505092915050565b600061262183836125dc565b905092915050565b6000602082019050919050565b60006126418261259f565b61264b81856125aa565b93508360208202850161265d856125bb565b8060005b85811015612699578484038952815161267a8582612615565b945061268583612629565b925060208a01995050600181019050612661565b50829750879550505050505092915050565b600060408201905081810360008301526126c5818561251f565b905081810360208301526126d98184612636565b90509392505050565b6126eb816122ed565b82525050565b6126fa816123ad565b82525050565b600082825260208201905092915050565b600061271c826124bf565b6127268185612700565b9350612731836124db565b8060005b8381101561276257815161274988826124fa565b975061275483612512565b925050600181019050612735565b5085935050505092915050565b60006101408301600083015161278860008601826126e2565b50602083015184820360208601526127a082826125dc565b915050604083015184820360408601526127ba82826125dc565b915050606083015184820360608601526127d482826125dc565b915050608083015184820360808601526127ee82826125dc565b91505060a083015161280360a08601826124eb565b5060c083015161281660c08601826126f1565b5060e083015184820360e086015261282e82826125dc565b91505061010083015184820361010086015261284a82826125dc565b9150506101208301518482036101208601526128668282612711565b9150508091505092915050565b6000602082019050818103600083015261288d818461276f565b905092915050565b61289e816123ad565b81146128a957600080fd5b50565b6000813590506128bb81612895565b92915050565b6000806000606084860312156128da576128d9612260565b5b60006128e88682870161228b565b93505060206128f98682870161228b565b925050604061290a868287016128ac565b9150509250925092565b6000602082019050818103600083015261292e8184612365565b905092915050565b600080fd5b600080fd5b7f4e487b7100000000000000000000000000000000000000000000000000000000600052604160045260246000fd5b61297882612354565b810181811067ffffffffffffffff8211171561299757612996612940565b5b80604052505050565b60006129aa612256565b90506129b6828261296f565b919050565b600067ffffffffffffffff8211156129d6576129d5612940565b5b6129df82612354565b9050602081019050919050565b82818337600083830152505050565b6000612a0e612a09846129bb565b6129a0565b905082815260208101848484011115612a2a57612a2961293b565b5b612a358482856129ec565b509392505050565b600082601f830112612a5257612a51612936565b5b8135612a628482602086016129fb565b91505092915050565b6000806000806000806000806000806101408b8d031215612a8f57612a8e612260565b5b60008b013567ffffffffffffffff811115612aad57612aac612265565b5b612ab98d828e01612a3d565b9a50506020612aca8d828e0161228b565b9950506040612adb8d828e0161228b565b98505060608b013567ffffffffffffffff811115612afc57612afb612265565b5b612b088d828e01612a3d565b97505060808b013567ffffffffffffffff811115612b2957612b28612265565b5b612b358d828e01612a3d565b96505060a0612b468d828e0161228b565b95505060c0612b578d828e016128ac565b94505060e08b013567ffffffffffffffff811115612b7857612b77612265565b5b612b848d828e01612a3d565b9350506101008b013567ffffffffffffffff811115612ba657612ba5612265565b5b612bb28d828e01612a3d565b9250506101208b013567ffffffffffffffff811115612bd457612bd3612265565b5b612be08d828e01612a3d565b9150509295989b9194979a5092959850565b612bfb816122ed565b8114612c0657600080fd5b50565b600081359050612c1881612bf2565b92915050565b600060208284031215612c3457612c33612260565b5b6000612c4284828501612c09565b91505092915050565b6000608082019050612c6060008301876123b9565b612c6d602083018661239e565b612c7a604083018561239e565b612c8760608301846123b9565b95945050505050565b608082016000820151612ca660008501826126f1565b506020820151612cb960208501826124eb565b506040820151612ccc60408501826124eb565b506060820151612cdf60608501826126f1565b50505050565b6000608082019050612cfa6000830184612c90565b92915050565b7f4e487b7100000000000000000000000000000000000000000000000000000000600052602260045260246000fd5b60006002820490506001821680612d4757607f821691505b602082108103612d5a57612d59612d00565b5b50919050565b6000819050919050565b612d7b612d768261226a565b612d60565b82525050565b60008160601b9050919050565b6000612d9982612d81565b9050919050565b6000612dab82612d8e565b9050919050565b612dc3612dbe826122ed565b612da0565b82525050565b6000612dd58286612d6a565b602082019150612de58285612db2565b601482019150612df58284612d6a565b602082019150819050949350505050565b7f4e487b7100000000000000000000000000000000000000000000000000000000600052601260045260246000fd5b6000612e408261226a565b9150612e4b8361226a565b925082612e5b57612e5a612e06565b5b828206905092915050565b7f4e487b7100000000000000000000000000000000000000000000000000000000600052603260045260246000fd5b7f4e487b7100000000000000000000000000000000000000000000000000000000600052601160045260246000fd5b6000612ecf8261226a565b91507fffffffffffffffffffffffffffffffffffffffffffffffffffffffffffffffff8203612f0157612f00612e95565b5b600182019050919050565b60008190508160005260206000209050919050565b60006020601f8301049050919050565b600082821b905092915050565b600060088302612f6e7fffffffffffffffffffffffffffffffffffffffffffffffffffffffffffffffff82612f31565b612f788683612f31565b95508019841693508086168417925050509392505050565b6000819050919050565b6000612fb5612fb0612fab8461226a565b612f90565b61226a565b9050919050565b6000819050919050565b612fcf83612f9a565b612fe3612fdb82612fbc565b848454612f3e565b825550505050565b600090565b612ff8612feb565b613003818484612fc6565b505050565b5b818110156130275761301c600082612ff0565b600181019050613009565b5050565b601f82111561306c5761303d81612f0c565b61304684612f21565b81016020851015613055578190505b61306961306185612f21565b830182613008565b50505b505050565b600082821c905092915050565b600061308f60001984600802613071565b1980831691505092915050565b60006130a8838361307e565b9150826002028217905092915050565b6130c18261230e565b67ffffffffffffffff8111156130da576130d9612940565b5b6130e48254612d2f565b6130ef82828561302b565b600060209050601f8311600181146131225760008415613110578287015190505b61311a858261309c565b865550613182565b601f19841661313086612f0c565b60005b8281101561315857848901518255600182019150602085019450602081019050613133565b868310156131755784890151613171601f89168261307e565b8355505b6001600288020188555050505b505050505050565b7f496e73756666696369656e742042616c616e6365000000000000000000000000600082015250565b60006131c0601483612319565b91506131cb8261318a565b602082019050919050565b600060208201905081810360008301526131ef816131b3565b9050919050565b600081905092915050565b50565b60006132116000836131f6565b915061321c82613201565b600082019050919050565b600061323282613204565b9150819050919050565b6000815461324981612d2f565b61325381866131f6565b9450600182166000811461326e5760018114613283576132b6565b60ff19831686528115158202860193506132b6565b61328c85612f0c565b60005b838110156132ae5781548189015260018201915060208101905061328f565b838801955050505b50505092915050565b60006132cb828461323c565b915081905092915050565b60006132e18261226a565b91506132ec8361226a565b925082820190508082111561330457613303612e95565b5b92915050565b60006133158261226a565b91506133208361226a565b925082820390508181111561333857613337612e95565b5b9291505056fea26469706673582212208b67081c86f30dfa22da08d547fa369e6372cb2f2102181d63dd8c20d31fbc2864736f6c6343000812003368747470733a2f2f7468756d622e61632d696c6c7573742e636f6d2f31342f31343861653435666666376264646662633835366261343139646366626139625f772e6a706567",
  "linkReferences": {},
  "deployedLinkReferences": {}
}