{
  "_format": "hh-sol-artifact-1",
  "contractName": "FoteisonGame",
  "sourceName": "contracts/FoteisonGame.sol",
  "abi": [
    {
      "inputs": [],
      "stateMutability": "nonpayable",
      "type": "constructor"
    },
    {
      "anonymous": false,
      "inputs": [],
      "name": "InsufficientBalance",
      "type": "event"
    },
    {
      "anonymous": false,
      "inputs": [],
      "name": "NoConnectedSquares",
      "type": "event"
    },
    {
      "anonymous": false,
      "inputs": [
        {
          "indexed": false,
          "internalType": "uint256[]",
          "name": "selectedSquareIds",
          "type": "uint256[]"
        }
      ],
      "name": "SquareSelected",
      "type": "event"
    },
    {
      "anonymous": false,
      "inputs": [
        {
          "indexed": false,
          "internalType": "uint256",
          "name": "newUserBalance",
          "type": "uint256"
        }
      ],
      "name": "UserBalanceChanged",
      "type": "event"
    },
    {
      "inputs": [],
      "name": "backToStart",
      "outputs": [],
      "stateMutability": "nonpayable",
      "type": "function"
    },
    {
      "inputs": [
        {
          "internalType": "string",
          "name": "_createrENS",
          "type": "string"
        },
        {
          "internalType": "uint256",
          "name": "_squareId",
          "type": "uint256"
        },
        {
          "internalType": "uint256",
          "name": "_backendSquareId",
          "type": "uint256"
        },
        {
          "internalType": "string",
          "name": "_squareDescription",
          "type": "string"
        },
        {
          "internalType": "string",
          "name": "_squareNftURL",
          "type": "string"
        },
        {
          "internalType": "uint256",
          "name": "_squareBalance",
          "type": "uint256"
        },
        {
          "internalType": "bool",
          "name": "_IsBalanceAdd",
          "type": "bool"
        },
        {
          "internalType": "string",
          "name": "_questContractAddress",
          "type": "string"
        },
        {
          "internalType": "string",
          "name": "_questDescription",
          "type": "string"
        },
        {
          "internalType": "string",
          "name": "_createrIcon",
          "type": "string"
        }
      ],
      "name": "createSquare",
      "outputs": [],
      "stateMutability": "nonpayable",
      "type": "function"
    },
    {
      "inputs": [],
      "name": "createUser",
      "outputs": [
        {
          "internalType": "uint256",
          "name": "squareId",
          "type": "uint256"
        },
        {
          "internalType": "uint256",
          "name": "userBalance",
          "type": "uint256"
        },
        {
          "internalType": "bool",
          "name": "userQuestStatus",
          "type": "bool"
        }
      ],
      "stateMutability": "nonpayable",
      "type": "function"
    },
    {
      "inputs": [],
      "name": "getAllSquareNftURLs",
      "outputs": [
        {
          "internalType": "uint256[]",
          "name": "",
          "type": "uint256[]"
        },
        {
          "internalType": "string[]",
          "name": "",
          "type": "string[]"
        }
      ],
      "stateMutability": "view",
      "type": "function"
    },
    {
      "inputs": [
        {
          "internalType": "uint256",
          "name": "squareId",
          "type": "uint256"
        }
      ],
      "name": "getSquare",
      "outputs": [
        {
          "components": [
            {
              "internalType": "address",
              "name": "createrAddress",
              "type": "address"
            },
            {
              "internalType": "string",
              "name": "createrENS",
              "type": "string"
            },
            {
              "internalType": "string",
              "name": "createrIcon",
              "type": "string"
            },
            {
              "internalType": "string",
              "name": "squareDescription",
              "type": "string"
            },
            {
              "internalType": "string",
              "name": "squareNftURL",
              "type": "string"
            },
            {
              "internalType": "uint256",
              "name": "squareBalance",
              "type": "uint256"
            },
            {
              "internalType": "bool",
              "name": "IsBalanceAdd",
              "type": "bool"
            },
            {
              "internalType": "string",
              "name": "questContractAddress",
              "type": "string"
            },
            {
              "internalType": "string",
              "name": "questDescription",
              "type": "string"
            },
            {
              "internalType": "uint256[]",
              "name": "adjacentSquareIds",
              "type": "uint256[]"
            }
          ],
          "internalType": "struct FoteisonGame.Square",
          "name": "",
          "type": "tuple"
        }
      ],
      "stateMutability": "view",
      "type": "function"
    },
    {
      "inputs": [
        {
          "internalType": "uint256",
          "name": "squareId",
          "type": "uint256"
        }
      ],
      "name": "getSquareNftURL",
      "outputs": [
        {
          "internalType": "string",
          "name": "",
          "type": "string"
        }
      ],
      "stateMutability": "view",
      "type": "function"
    },
    {
      "inputs": [
        {
          "internalType": "uint256",
          "name": "_diceNumber",
          "type": "uint256"
        }
      ],
      "name": "moveUser",
      "outputs": [],
      "stateMutability": "nonpayable",
      "type": "function"
    },
    {
      "inputs": [
        {
          "internalType": "uint256",
          "name": "",
          "type": "uint256"
        }
      ],
      "name": "squareIdToSquare",
      "outputs": [
        {
          "internalType": "address",
          "name": "createrAddress",
          "type": "address"
        },
        {
          "internalType": "string",
          "name": "createrENS",
          "type": "string"
        },
        {
          "internalType": "string",
          "name": "createrIcon",
          "type": "string"
        },
        {
          "internalType": "string",
          "name": "squareDescription",
          "type": "string"
        },
        {
          "internalType": "string",
          "name": "squareNftURL",
          "type": "string"
        },
        {
          "internalType": "uint256",
          "name": "squareBalance",
          "type": "uint256"
        },
        {
          "internalType": "bool",
          "name": "IsBalanceAdd",
          "type": "bool"
        },
        {
          "internalType": "string",
          "name": "questContractAddress",
          "type": "string"
        },
        {
          "internalType": "string",
          "name": "questDescription",
          "type": "string"
        }
      ],
      "stateMutability": "view",
      "type": "function"
    },
    {
      "inputs": [
        {
          "internalType": "uint256",
          "name": "",
          "type": "uint256"
        }
      ],
      "name": "squareIdToSquareNftURL",
      "outputs": [
        {
          "internalType": "string",
          "name": "",
          "type": "string"
        }
      ],
      "stateMutability": "view",
      "type": "function"
    },
    {
      "inputs": [
        {
          "internalType": "uint256",
          "name": "",
          "type": "uint256"
        }
      ],
      "name": "squares",
      "outputs": [
        {
          "internalType": "address",
          "name": "createrAddress",
          "type": "address"
        },
        {
          "internalType": "string",
          "name": "createrENS",
          "type": "string"
        },
        {
          "internalType": "string",
          "name": "createrIcon",
          "type": "string"
        },
        {
          "internalType": "string",
          "name": "squareDescription",
          "type": "string"
        },
        {
          "internalType": "string",
          "name": "squareNftURL",
          "type": "string"
        },
        {
          "internalType": "uint256",
          "name": "squareBalance",
          "type": "uint256"
        },
        {
          "internalType": "bool",
          "name": "IsBalanceAdd",
          "type": "bool"
        },
        {
          "internalType": "string",
          "name": "questContractAddress",
          "type": "string"
        },
        {
          "internalType": "string",
          "name": "questDescription",
          "type": "string"
        }
      ],
      "stateMutability": "view",
      "type": "function"
    },
    {
      "inputs": [
        {
          "internalType": "uint256",
          "name": "_backendSquareId",
          "type": "uint256"
        },
        {
          "internalType": "uint256",
          "name": "_squareId",
          "type": "uint256"
        }
      ],
      "name": "updateAdjacentSquareIds",
      "outputs": [],
      "stateMutability": "nonpayable",
      "type": "function"
    },
    {
      "inputs": [
        {
          "internalType": "address",
          "name": "",
          "type": "address"
        }
      ],
      "name": "users",
      "outputs": [
        {
          "internalType": "uint256",
          "name": "squareId",
          "type": "uint256"
        },
        {
          "internalType": "uint256",
          "name": "userBalance",
          "type": "uint256"
        },
        {
          "internalType": "bool",
          "name": "userQuestStatus",
          "type": "bool"
        }
      ],
      "stateMutability": "view",
      "type": "function"
    }
  ],
  "bytecode": "0x60806040523480156200001157600080fd5b50620000f16040518060400160405280600c81526020017f73686572316f636b2e65746800000000000000000000000000000000000000008152506104fb66038d7ea4c680006040518060400160405280601881526020017f48657265206973207468652073746172742073717561726500000000000000008152506040518060800160405280604681526020016200360d604691396000600160405180602001604052806000815250604051806020016040528060008152506040518060c00160405280608f81526020016200357e608f91396200013560201b60201c565b6040518060800160405280604681526020016200360d60469139600260006104fb815260200190815260200160002090816200012e919062000888565b506200096f565b60006040518061014001604052803373ffffffffffffffffffffffffffffffffffffffff1681526020018c8152602001838152602001898152602001600089511162000191576040518060200160405280600081525062000193565b885b815260200187815260200186151581526020016000865111620001ec576040518060400160405280600981526020017f74656d706f726172790000000000000000000000000000000000000000000000815250620001ee565b855b8152602001600085511162000239576040518060400160405280600981526020017f74656d706f7261727900000000000000000000000000000000000000000000008152506200023b565b845b8152602001600067ffffffffffffffff8111156200025e576200025d62000619565b5b6040519080825280602002602001820160405280156200028d5781602001602082028036833780820191505090505b508152509050806000808c815260200190815260200160002060008201518160000160006101000a81548173ffffffffffffffffffffffffffffffffffffffff021916908373ffffffffffffffffffffffffffffffffffffffff160217905550602082015181600101908162000304919062000888565b5060408201518160020190816200031c919062000888565b50606082015181600301908162000334919062000888565b5060808201518160040190816200034c919062000888565b5060a0820151816005015560c08201518160060160006101000a81548160ff02191690831515021790555060e08201518160070190816200038e919062000888565b50610100820151816008019081620003a7919062000888565b50610120820151816009019080519060200190620003c79291906200059d565b5090505086600260008c81526020019081526020016000209081620003ed919062000888565b5060038190806001815401808255809150506001900390600052602060002090600a020160009091909190915060008201518160000160006101000a81548173ffffffffffffffffffffffffffffffffffffffff021916908373ffffffffffffffffffffffffffffffffffffffff160217905550602082015181600101908162000478919062000888565b50604082015181600201908162000490919062000888565b506060820151816003019081620004a8919062000888565b506080820151816004019081620004c0919062000888565b5060a0820151816005015560c08201518160060160006101000a81548160ff02191690831515021790555060e082015181600701908162000502919062000888565b506101008201518160080190816200051b919062000888565b506101208201518160090190805190602001906200053b9291906200059d565b50505062000550898b6200055d60201b60201c565b5050505050505050505050565b6000808381526020019081526020016000206009018190806001815401808255809150506001900390600052602060002001600090919091909150555050565b828054828255906000526020600020908101928215620005dc579160200282015b82811115620005db578251825591602001919060010190620005be565b5b509050620005eb9190620005ef565b5090565b5b808211156200060a576000816000905550600101620005f0565b5090565b600081519050919050565b7f4e487b7100000000000000000000000000000000000000000000000000000000600052604160045260246000fd5b7f4e487b7100000000000000000000000000000000000000000000000000000000600052602260045260246000fd5b600060028204905060018216806200069057607f821691505b602082108103620006a657620006a562000648565b5b50919050565b60008190508160005260206000209050919050565b60006020601f8301049050919050565b600082821b905092915050565b600060088302620007107fffffffffffffffffffffffffffffffffffffffffffffffffffffffffffffffff82620006d1565b6200071c8683620006d1565b95508019841693508086168417925050509392505050565b6000819050919050565b6000819050919050565b600062000769620007636200075d8462000734565b6200073e565b62000734565b9050919050565b6000819050919050565b620007858362000748565b6200079d620007948262000770565b848454620006de565b825550505050565b600090565b620007b4620007a5565b620007c18184846200077a565b505050565b5b81811015620007e957620007dd600082620007aa565b600181019050620007c7565b5050565b601f82111562000838576200080281620006ac565b6200080d84620006c1565b810160208510156200081d578190505b620008356200082c85620006c1565b830182620007c6565b50505b505050565b600082821c905092915050565b60006200085d600019846008026200083d565b1980831691505092915050565b60006200087883836200084a565b9150826002028217905092915050565b62000893826200060e565b67ffffffffffffffff811115620008af57620008ae62000619565b5b620008bb825462000677565b620008c8828285620007ed565b600060209050601f831160018114620009005760008415620008eb578287015190505b620008f785826200086a565b86555062000967565b601f1984166200091086620006ac565b60005b828110156200093a5784890151825560018201915060208501945060208101905062000913565b868310156200095a578489015162000956601f8916826200084a565b8355505b6001600288020188555050505b505050505050565b612bff806200097f6000396000f3fe608060405234801561001057600080fd5b50600436106100b45760003560e01c80637fd3f445116100715780637fd3f445146101ac57806383df62ed146101c85780639509af03146101d2578063a87430ba1461020a578063b81ad3d81461023c578063d0928f771461026c576100b4565b80631d1d15d4146100b957806325ad91ce146100f1578063303819a014610111578063479f009014610130578063546728a91461016057806369634ada1461017c575b600080fd5b6100d360048036038101906100ce9190611db0565b610288565b6040516100e899989796959493929190611ed8565b60405180910390f35b6100f9610643565b60405161010893929190611f8f565b60405180910390f35b610119610814565b604051610127929190612190565b60405180910390f35b61014a60048036038101906101459190611db0565b610b1b565b6040516101579190612358565b60405180910390f35b61017a60048036038101906101759190611db0565b610f87565b005b61019660048036038101906101919190611db0565b611245565b6040516101a3919061237a565b60405180910390f35b6101c660048036038101906101c191906124fd565b6112ea565b005b6101d06116e2565b005b6101ec60048036038101906101e79190611db0565b6117cf565b60405161020199989796959493929190611ed8565b60405180910390f35b610224600480360381019061021f91906126b0565b611b7a565b60405161023393929190611f8f565b60405180910390f35b61025660048036038101906102519190611db0565b611bb1565b604051610263919061237a565b60405180910390f35b610286600480360381019061028191906126dd565b611c51565b005b6003818154811061029857600080fd5b90600052602060002090600a02016000915090508060000160009054906101000a900473ffffffffffffffffffffffffffffffffffffffff16908060010180546102e19061274c565b80601f016020809104026020016040519081016040528092919081815260200182805461030d9061274c565b801561035a5780601f1061032f5761010080835404028352916020019161035a565b820191906000526020600020905b81548152906001019060200180831161033d57829003601f168201915b50505050509080600201805461036f9061274c565b80601f016020809104026020016040519081016040528092919081815260200182805461039b9061274c565b80156103e85780601f106103bd576101008083540402835291602001916103e8565b820191906000526020600020905b8154815290600101906020018083116103cb57829003601f168201915b5050505050908060030180546103fd9061274c565b80601f01602080910402602001604051908101604052809291908181526020018280546104299061274c565b80156104765780601f1061044b57610100808354040283529160200191610476565b820191906000526020600020905b81548152906001019060200180831161045957829003601f168201915b50505050509080600401805461048b9061274c565b80601f01602080910402602001604051908101604052809291908181526020018280546104b79061274c565b80156105045780601f106104d957610100808354040283529160200191610504565b820191906000526020600020905b8154815290600101906020018083116104e757829003601f168201915b5050505050908060050154908060060160009054906101000a900460ff16908060070180546105329061274c565b80601f016020809104026020016040519081016040528092919081815260200182805461055e9061274c565b80156105ab5780601f10610580576101008083540402835291602001916105ab565b820191906000526020600020905b81548152906001019060200180831161058e57829003601f168201915b5050505050908060080180546105c09061274c565b80601f01602080910402602001604051908101604052809291908181526020018280546105ec9061274c565b80156106395780601f1061060e57610100808354040283529160200191610639565b820191906000526020600020905b81548152906001019060200180831161061c57829003601f168201915b5050505050905089565b600080600080600160003373ffffffffffffffffffffffffffffffffffffffff1673ffffffffffffffffffffffffffffffffffffffff168152602001908152602001600020600001541461077257600160003373ffffffffffffffffffffffffffffffffffffffff1673ffffffffffffffffffffffffffffffffffffffff16815260200190815260200160002060000154600160003373ffffffffffffffffffffffffffffffffffffffff1673ffffffffffffffffffffffffffffffffffffffff16815260200190815260200160002060010154600160003373ffffffffffffffffffffffffffffffffffffffff1673ffffffffffffffffffffffffffffffffffffffff16815260200190815260200160002060020160009054906101000a900460ff1692509250925061080f565b60006040518060600160405280600081526020016000815260200160011515815250905080600160003373ffffffffffffffffffffffffffffffffffffffff1673ffffffffffffffffffffffffffffffffffffffff168152602001908152602001600020600082015181600001556020820151816001015560408201518160020160006101000a81548160ff021916908315150217905550905050505b909192565b60608060006109c467ffffffffffffffff811115610835576108346123a6565b5b6040519080825280602002602001820160405280156108635781602001602082028036833780820191505090505b50905060006109c467ffffffffffffffff811115610884576108836123a6565b5b6040519080825280602002602001820160405280156108b757816020015b60608152602001906001900390816108a25790505b5090506000805b6109c48110156109da57600081905060006002600083815260200190815260200160002080546108ed9061274c565b80601f01602080910402602001604051908101604052809291908181526020018280546109199061274c565b80156109665780601f1061093b57610100808354040283529160200191610966565b820191906000526020600020905b81548152906001019060200180831161094957829003601f168201915b505050505090506000815111156109c5578186858151811061098b5761098a61277d565b5b602002602001018181525050808585815181106109ab576109aa61277d565b5b602002602001018190525083806109c1906127db565b9450505b505080806109d2906127db565b9150506108be565b5060008167ffffffffffffffff8111156109f7576109f66123a6565b5b604051908082528060200260200182016040528015610a255781602001602082028036833780820191505090505b50905060008267ffffffffffffffff811115610a4457610a436123a6565b5b604051908082528060200260200182016040528015610a7757816020015b6060815260200190600190039081610a625790505b50905060005b83811015610b0b57858181518110610a9857610a9761277d565b5b6020026020010151838281518110610ab357610ab261277d565b5b602002602001018181525050848181518110610ad257610ad161277d565b5b6020026020010151828281518110610aed57610aec61277d565b5b60200260200101819052508080610b03906127db565b915050610a7d565b5081819650965050505050509091565b610b23611c91565b600080838152602001908152602001600020604051806101400160405290816000820160009054906101000a900473ffffffffffffffffffffffffffffffffffffffff1673ffffffffffffffffffffffffffffffffffffffff1673ffffffffffffffffffffffffffffffffffffffff168152602001600182018054610ba79061274c565b80601f0160208091040260200160405190810160405280929190818152602001828054610bd39061274c565b8015610c205780601f10610bf557610100808354040283529160200191610c20565b820191906000526020600020905b815481529060010190602001808311610c0357829003601f168201915b50505050508152602001600282018054610c399061274c565b80601f0160208091040260200160405190810160405280929190818152602001828054610c659061274c565b8015610cb25780601f10610c8757610100808354040283529160200191610cb2565b820191906000526020600020905b815481529060010190602001808311610c9557829003601f168201915b50505050508152602001600382018054610ccb9061274c565b80601f0160208091040260200160405190810160405280929190818152602001828054610cf79061274c565b8015610d445780601f10610d1957610100808354040283529160200191610d44565b820191906000526020600020905b815481529060010190602001808311610d2757829003601f168201915b50505050508152602001600482018054610d5d9061274c565b80601f0160208091040260200160405190810160405280929190818152602001828054610d899061274c565b8015610dd65780601f10610dab57610100808354040283529160200191610dd6565b820191906000526020600020905b815481529060010190602001808311610db957829003601f168201915b50505050508152602001600582015481526020016006820160009054906101000a900460ff16151515158152602001600782018054610e149061274c565b80601f0160208091040260200160405190810160405280929190818152602001828054610e409061274c565b8015610e8d5780601f10610e6257610100808354040283529160200191610e8d565b820191906000526020600020905b815481529060010190602001808311610e7057829003601f168201915b50505050508152602001600882018054610ea69061274c565b80601f0160208091040260200160405190810160405280929190818152602001828054610ed29061274c565b8015610f1f5780601f10610ef457610100808354040283529160200191610f1f565b820191906000526020600020905b815481529060010190602001808311610f0257829003601f168201915b5050505050815260200160098201805480602002602001604051908101604052809291908181526020018280548015610f7757602002820191906000526020600020905b815481526020019060010190808311610f63575b5050505050815250509050919050565b6000600160003373ffffffffffffffffffffffffffffffffffffffff1673ffffffffffffffffffffffffffffffffffffffff168152602001908152602001600020600001549050600080600083815260200190815260200160002060090180548060200260200160405190810160405280929190818152602001828054801561102f57602002820191906000526020600020905b81548152602001906001019080831161101b575b5050505050905060008367ffffffffffffffff811115611052576110516123a6565b5b6040519080825280602002602001820160405280156110805781602001602082028036833780820191505090505b50905060008251036110bd577fc88f78efb5ac85889bf8050572811f32eb30e97bab8264e76379820396abff5160405160405180910390a161123f565b60005b8481101561120657600083510361110d577f47753d74fe6a602edb08f6ac34fd9e3aac7bdc8725260d91f8fae9b2c6f1c7ce826040516111009190612823565b60405180910390a16111f3565b60008351423384604051602001611126939291906128ae565b6040516020818303038152906040528051906020012060001c611149919061291a565b905060008482815181106111605761115f61277d565b5b602002602001015190508084848151811061117e5761117d61277d565b5b6020026020010181815250506000808281526020019081526020016000206009018054806020026020016040519081016040528092919081815260200182805480156111e957602002820191906000526020600020905b8154815260200190600101908083116111d5575b5050505050945050505b80806111fe906127db565b9150506110c0565b507f47753d74fe6a602edb08f6ac34fd9e3aac7bdc8725260d91f8fae9b2c6f1c7ce816040516112369190612823565b60405180910390a15b50505050565b60606002600083815260200190815260200160002080546112659061274c565b80601f01602080910402602001604051908101604052809291908181526020018280546112919061274c565b80156112de5780601f106112b3576101008083540402835291602001916112de565b820191906000526020600020905b8154815290600101906020018083116112c157829003601f168201915b50505050509050919050565b60006040518061014001604052803373ffffffffffffffffffffffffffffffffffffffff1681526020018c815260200183815260200189815260200160008951116113445760405180602001604052806000815250611346565b885b81526020018781526020018615158152602001600086511161139d576040518060400160405280600981526020017f74656d706f72617279000000000000000000000000000000000000000000000081525061139f565b855b815260200160008551116113e8576040518060400160405280600981526020017f74656d706f7261727900000000000000000000000000000000000000000000008152506113ea565b845b8152602001600067ffffffffffffffff81111561140a576114096123a6565b5b6040519080825280602002602001820160405280156114385781602001602082028036833780820191505090505b508152509050806000808c815260200190815260200160002060008201518160000160006101000a81548173ffffffffffffffffffffffffffffffffffffffff021916908373ffffffffffffffffffffffffffffffffffffffff16021790555060208201518160010190816114ad9190612af7565b5060408201518160020190816114c39190612af7565b5060608201518160030190816114d99190612af7565b5060808201518160040190816114ef9190612af7565b5060a0820151816005015560c08201518160060160006101000a81548160ff02191690831515021790555060e082015181600701908161152f9190612af7565b506101008201518160080190816115469190612af7565b50610120820151816009019080519060200190611564929190611cfc565b5090505086600260008c815260200190815260200160002090816115889190612af7565b5060038190806001815401808255809150506001900390600052602060002090600a020160009091909190915060008201518160000160006101000a81548173ffffffffffffffffffffffffffffffffffffffff021916908373ffffffffffffffffffffffffffffffffffffffff16021790555060208201518160010190816116119190612af7565b5060408201518160020190816116279190612af7565b50606082015181600301908161163d9190612af7565b5060808201518160040190816116539190612af7565b5060a0820151816005015560c08201518160060160006101000a81548160ff02191690831515021790555060e08201518160070190816116939190612af7565b506101008201518160080190816116aa9190612af7565b506101208201518160090190805190602001906116c8929190611cfc565b5050506116d5898b611c51565b5050505050505050505050565b6000600160003373ffffffffffffffffffffffffffffffffffffffff1673ffffffffffffffffffffffffffffffffffffffff168152602001908152602001600020600001819055506103e8600160003373ffffffffffffffffffffffffffffffffffffffff1673ffffffffffffffffffffffffffffffffffffffff1681526020019081526020016000206001018190555060018060003373ffffffffffffffffffffffffffffffffffffffff1673ffffffffffffffffffffffffffffffffffffffff16815260200190815260200160002060020160006101000a81548160ff021916908315150217905550565b60006020528060005260406000206000915090508060000160009054906101000a900473ffffffffffffffffffffffffffffffffffffffff16908060010180546118189061274c565b80601f01602080910402602001604051908101604052809291908181526020018280546118449061274c565b80156118915780601f1061186657610100808354040283529160200191611891565b820191906000526020600020905b81548152906001019060200180831161187457829003601f168201915b5050505050908060020180546118a69061274c565b80601f01602080910402602001604051908101604052809291908181526020018280546118d29061274c565b801561191f5780601f106118f45761010080835404028352916020019161191f565b820191906000526020600020905b81548152906001019060200180831161190257829003601f168201915b5050505050908060030180546119349061274c565b80601f01602080910402602001604051908101604052809291908181526020018280546119609061274c565b80156119ad5780601f10611982576101008083540402835291602001916119ad565b820191906000526020600020905b81548152906001019060200180831161199057829003601f168201915b5050505050908060040180546119c29061274c565b80601f01602080910402602001604051908101604052809291908181526020018280546119ee9061274c565b8015611a3b5780601f10611a1057610100808354040283529160200191611a3b565b820191906000526020600020905b815481529060010190602001808311611a1e57829003601f168201915b5050505050908060050154908060060160009054906101000a900460ff1690806007018054611a699061274c565b80601f0160208091040260200160405190810160405280929190818152602001828054611a959061274c565b8015611ae25780601f10611ab757610100808354040283529160200191611ae2565b820191906000526020600020905b815481529060010190602001808311611ac557829003601f168201915b505050505090806008018054611af79061274c565b80601f0160208091040260200160405190810160405280929190818152602001828054611b239061274c565b8015611b705780601f10611b4557610100808354040283529160200191611b70565b820191906000526020600020905b815481529060010190602001808311611b5357829003601f168201915b5050505050905089565b60016020528060005260406000206000915090508060000154908060010154908060020160009054906101000a900460ff16905083565b60026020528060005260406000206000915090508054611bd09061274c565b80601f0160208091040260200160405190810160405280929190818152602001828054611bfc9061274c565b8015611c495780601f10611c1e57610100808354040283529160200191611c49565b820191906000526020600020905b815481529060010190602001808311611c2c57829003601f168201915b505050505081565b6000808381526020019081526020016000206009018190806001815401808255809150506001900390600052602060002001600090919091909150555050565b604051806101400160405280600073ffffffffffffffffffffffffffffffffffffffff16815260200160608152602001606081526020016060815260200160608152602001600081526020016000151581526020016060815260200160608152602001606081525090565b828054828255906000526020600020908101928215611d38579160200282015b82811115611d37578251825591602001919060010190611d1c565b5b509050611d459190611d49565b5090565b5b80821115611d62576000816000905550600101611d4a565b5090565b6000604051905090565b600080fd5b600080fd5b6000819050919050565b611d8d81611d7a565b8114611d9857600080fd5b50565b600081359050611daa81611d84565b92915050565b600060208284031215611dc657611dc5611d70565b5b6000611dd484828501611d9b565b91505092915050565b600073ffffffffffffffffffffffffffffffffffffffff82169050919050565b6000611e0882611ddd565b9050919050565b611e1881611dfd565b82525050565b600081519050919050565b600082825260208201905092915050565b60005b83811015611e58578082015181840152602081019050611e3d565b60008484015250505050565b6000601f19601f8301169050919050565b6000611e8082611e1e565b611e8a8185611e29565b9350611e9a818560208601611e3a565b611ea381611e64565b840191505092915050565b611eb781611d7a565b82525050565b60008115159050919050565b611ed281611ebd565b82525050565b600061012082019050611eee600083018c611e0f565b8181036020830152611f00818b611e75565b90508181036040830152611f14818a611e75565b90508181036060830152611f288189611e75565b90508181036080830152611f3c8188611e75565b9050611f4b60a0830187611eae565b611f5860c0830186611ec9565b81810360e0830152611f6a8185611e75565b9050818103610100830152611f7f8184611e75565b90509a9950505050505050505050565b6000606082019050611fa46000830186611eae565b611fb16020830185611eae565b611fbe6040830184611ec9565b949350505050565b600081519050919050565b600082825260208201905092915050565b6000819050602082019050919050565b611ffb81611d7a565b82525050565b600061200d8383611ff2565b60208301905092915050565b6000602082019050919050565b600061203182611fc6565b61203b8185611fd1565b935061204683611fe2565b8060005b8381101561207757815161205e8882612001565b975061206983612019565b92505060018101905061204a565b5085935050505092915050565b600081519050919050565b600082825260208201905092915050565b6000819050602082019050919050565b600082825260208201905092915050565b60006120cc82611e1e565b6120d681856120b0565b93506120e6818560208601611e3a565b6120ef81611e64565b840191505092915050565b600061210683836120c1565b905092915050565b6000602082019050919050565b600061212682612084565b612130818561208f565b935083602082028501612142856120a0565b8060005b8581101561217e578484038952815161215f85826120fa565b945061216a8361210e565b925060208a01995050600181019050612146565b50829750879550505050505092915050565b600060408201905081810360008301526121aa8185612026565b905081810360208301526121be818461211b565b90509392505050565b6121d081611dfd565b82525050565b6121df81611ebd565b82525050565b600082825260208201905092915050565b600061220182611fc6565b61220b81856121e5565b935061221683611fe2565b8060005b8381101561224757815161222e8882612001565b975061223983612019565b92505060018101905061221a565b5085935050505092915050565b60006101408301600083015161226d60008601826121c7565b506020830151848203602086015261228582826120c1565b9150506040830151848203604086015261229f82826120c1565b915050606083015184820360608601526122b982826120c1565b915050608083015184820360808601526122d382826120c1565b91505060a08301516122e860a0860182611ff2565b5060c08301516122fb60c08601826121d6565b5060e083015184820360e086015261231382826120c1565b91505061010083015184820361010086015261232f82826120c1565b91505061012083015184820361012086015261234b82826121f6565b9150508091505092915050565b600060208201905081810360008301526123728184612254565b905092915050565b600060208201905081810360008301526123948184611e75565b905092915050565b600080fd5b600080fd5b7f4e487b7100000000000000000000000000000000000000000000000000000000600052604160045260246000fd5b6123de82611e64565b810181811067ffffffffffffffff821117156123fd576123fc6123a6565b5b80604052505050565b6000612410611d66565b905061241c82826123d5565b919050565b600067ffffffffffffffff82111561243c5761243b6123a6565b5b61244582611e64565b9050602081019050919050565b82818337600083830152505050565b600061247461246f84612421565b612406565b9050828152602081018484840111156124905761248f6123a1565b5b61249b848285612452565b509392505050565b600082601f8301126124b8576124b761239c565b5b81356124c8848260208601612461565b91505092915050565b6124da81611ebd565b81146124e557600080fd5b50565b6000813590506124f7816124d1565b92915050565b6000806000806000806000806000806101408b8d03121561252157612520611d70565b5b60008b013567ffffffffffffffff81111561253f5761253e611d75565b5b61254b8d828e016124a3565b9a5050602061255c8d828e01611d9b565b995050604061256d8d828e01611d9b565b98505060608b013567ffffffffffffffff81111561258e5761258d611d75565b5b61259a8d828e016124a3565b97505060808b013567ffffffffffffffff8111156125bb576125ba611d75565b5b6125c78d828e016124a3565b96505060a06125d88d828e01611d9b565b95505060c06125e98d828e016124e8565b94505060e08b013567ffffffffffffffff81111561260a57612609611d75565b5b6126168d828e016124a3565b9350506101008b013567ffffffffffffffff81111561263857612637611d75565b5b6126448d828e016124a3565b9250506101208b013567ffffffffffffffff81111561266657612665611d75565b5b6126728d828e016124a3565b9150509295989b9194979a5092959850565b61268d81611dfd565b811461269857600080fd5b50565b6000813590506126aa81612684565b92915050565b6000602082840312156126c6576126c5611d70565b5b60006126d48482850161269b565b91505092915050565b600080604083850312156126f4576126f3611d70565b5b600061270285828601611d9b565b925050602061271385828601611d9b565b9150509250929050565b7f4e487b7100000000000000000000000000000000000000000000000000000000600052602260045260246000fd5b6000600282049050600182168061276457607f821691505b6020821081036127775761277661271d565b5b50919050565b7f4e487b7100000000000000000000000000000000000000000000000000000000600052603260045260246000fd5b7f4e487b7100000000000000000000000000000000000000000000000000000000600052601160045260246000fd5b60006127e682611d7a565b91507fffffffffffffffffffffffffffffffffffffffffffffffffffffffffffffffff8203612818576128176127ac565b5b600182019050919050565b6000602082019050818103600083015261283d8184612026565b905092915050565b6000819050919050565b61286061285b82611d7a565b612845565b82525050565b60008160601b9050919050565b600061287e82612866565b9050919050565b600061289082612873565b9050919050565b6128a86128a382611dfd565b612885565b82525050565b60006128ba828661284f565b6020820191506128ca8285612897565b6014820191506128da828461284f565b602082019150819050949350505050565b7f4e487b7100000000000000000000000000000000000000000000000000000000600052601260045260246000fd5b600061292582611d7a565b915061293083611d7a565b9250826129405761293f6128eb565b5b828206905092915050565b60008190508160005260206000209050919050565b60006020601f8301049050919050565b600082821b905092915050565b6000600883026129ad7fffffffffffffffffffffffffffffffffffffffffffffffffffffffffffffffff82612970565b6129b78683612970565b95508019841693508086168417925050509392505050565b6000819050919050565b60006129f46129ef6129ea84611d7a565b6129cf565b611d7a565b9050919050565b6000819050919050565b612a0e836129d9565b612a22612a1a826129fb565b84845461297d565b825550505050565b600090565b612a37612a2a565b612a42818484612a05565b505050565b5b81811015612a6657612a5b600082612a2f565b600181019050612a48565b5050565b601f821115612aab57612a7c8161294b565b612a8584612960565b81016020851015612a94578190505b612aa8612aa085612960565b830182612a47565b50505b505050565b600082821c905092915050565b6000612ace60001984600802612ab0565b1980831691505092915050565b6000612ae78383612abd565b9150826002028217905092915050565b612b0082611e1e565b67ffffffffffffffff811115612b1957612b186123a6565b5b612b23825461274c565b612b2e828285612a6a565b600060209050601f831160018114612b615760008415612b4f578287015190505b612b598582612adb565b865550612bc1565b601f198416612b6f8661294b565b60005b82811015612b9757848901518255600182019150602085019450602081019050612b72565b86831015612bb45784890151612bb0601f891682612abd565b8355505b6001600288020188555050505b50505050505056fea26469706673582212201aa4dc12584063366834aea52132824d69549eff1804769057b31e14e91ba7f764736f6c6343000812003368747470733a2f2f692e736561646e2e696f2f6761652f4c504d65764f7a394f45374f542d4868736b434a33683666414957476d445f613756493878553563593656625f6169336c6c7247626165346b5a34795630324b6e5a4f4d2d78636a516f6234456b6a6147686e6572655a427a594a5f37614762486a547753513f773d353030266175746f3d666f726d617468747470733a2f2f7468756d622e61632d696c6c7573742e636f6d2f63662f63663565383039343762633837336561356365313438393436376332363161325f772e6a706567",
  "linkReferences": {},
  "deployedLinkReferences": {}
}