{
  "_format": "hh-sol-artifact-1",
  "contractName": "FoteisonGame",
  "sourceName": "contracts/FoteisonGame.sol",
  "abi": [
    {
      "inputs": [],
      "stateMutability": "nonpayable",
      "type": "constructor"
    },
    {
      "anonymous": false,
      "inputs": [],
      "name": "InsufficientBalance",
      "type": "event"
    },
    {
      "anonymous": false,
      "inputs": [],
      "name": "NoConnectedSquares",
      "type": "event"
    },
    {
      "anonymous": false,
      "inputs": [
        {
          "indexed": false,
          "internalType": "uint256[]",
          "name": "selectedSquareIds",
          "type": "uint256[]"
        }
      ],
      "name": "SquareSelected",
      "type": "event"
    },
    {
      "anonymous": false,
      "inputs": [
        {
          "indexed": false,
          "internalType": "uint256",
          "name": "newUserBalance",
          "type": "uint256"
        }
      ],
      "name": "UserBalanceChanged",
      "type": "event"
    },
    {
      "inputs": [],
      "name": "backToStart",
      "outputs": [],
      "stateMutability": "nonpayable",
      "type": "function"
    },
    {
      "inputs": [],
      "name": "confirmUser",
      "outputs": [
        {
          "components": [
            {
              "internalType": "uint256",
              "name": "squareId",
              "type": "uint256"
            },
            {
              "internalType": "uint256",
              "name": "userBalance",
              "type": "uint256"
            },
            {
              "internalType": "bool",
              "name": "userQuestStatus",
              "type": "bool"
            }
          ],
          "internalType": "struct FoteisonGame.User",
          "name": "",
          "type": "tuple"
        }
      ],
      "stateMutability": "view",
      "type": "function"
    },
    {
      "inputs": [
        {
          "internalType": "string",
          "name": "_createrENS",
          "type": "string"
        },
        {
          "internalType": "uint256",
          "name": "_squareId",
          "type": "uint256"
        },
        {
          "internalType": "uint256",
          "name": "_backendSquareId",
          "type": "uint256"
        },
        {
          "internalType": "string",
          "name": "_squareDescription",
          "type": "string"
        },
        {
          "internalType": "string",
          "name": "_squareNftURL",
          "type": "string"
        },
        {
          "internalType": "uint256",
          "name": "_squareBalance",
          "type": "uint256"
        },
        {
          "internalType": "bool",
          "name": "_IsBalanceAdd",
          "type": "bool"
        },
        {
          "internalType": "string",
          "name": "_questContractAddress",
          "type": "string"
        },
        {
          "internalType": "string",
          "name": "_questDescription",
          "type": "string"
        },
        {
          "internalType": "string",
          "name": "_createrIcon",
          "type": "string"
        }
      ],
      "name": "createSquare",
      "outputs": [],
      "stateMutability": "nonpayable",
      "type": "function"
    },
    {
      "inputs": [
        {
          "internalType": "uint256",
          "name": "squareId",
          "type": "uint256"
        }
      ],
      "name": "getAdjacentSquareIds",
      "outputs": [
        {
          "internalType": "uint256[]",
          "name": "",
          "type": "uint256[]"
        }
      ],
      "stateMutability": "view",
      "type": "function"
    },
    {
      "inputs": [],
      "name": "getAllSquareNftURLs",
      "outputs": [
        {
          "internalType": "uint256[]",
          "name": "",
          "type": "uint256[]"
        },
        {
          "internalType": "string[]",
          "name": "",
          "type": "string[]"
        }
      ],
      "stateMutability": "view",
      "type": "function"
    },
    {
      "inputs": [
        {
          "internalType": "uint256",
          "name": "squareId",
          "type": "uint256"
        }
      ],
      "name": "getSquare",
      "outputs": [
        {
          "components": [
            {
              "internalType": "address",
              "name": "createrAddress",
              "type": "address"
            },
            {
              "internalType": "string",
              "name": "createrENS",
              "type": "string"
            },
            {
              "internalType": "string",
              "name": "createrIcon",
              "type": "string"
            },
            {
              "internalType": "string",
              "name": "squareDescription",
              "type": "string"
            },
            {
              "internalType": "string",
              "name": "squareNftURL",
              "type": "string"
            },
            {
              "internalType": "uint256",
              "name": "squareBalance",
              "type": "uint256"
            },
            {
              "internalType": "bool",
              "name": "IsBalanceAdd",
              "type": "bool"
            },
            {
              "internalType": "string",
              "name": "questContractAddress",
              "type": "string"
            },
            {
              "internalType": "string",
              "name": "questDescription",
              "type": "string"
            },
            {
              "internalType": "uint256[]",
              "name": "adjacentSquareIds",
              "type": "uint256[]"
            }
          ],
          "internalType": "struct FoteisonGame.Square",
          "name": "",
          "type": "tuple"
        }
      ],
      "stateMutability": "view",
      "type": "function"
    },
    {
      "inputs": [
        {
          "internalType": "uint256",
          "name": "squareId",
          "type": "uint256"
        }
      ],
      "name": "getSquareNftURL",
      "outputs": [
        {
          "internalType": "string",
          "name": "",
          "type": "string"
        }
      ],
      "stateMutability": "view",
      "type": "function"
    },
    {
      "inputs": [
        {
          "internalType": "uint256",
          "name": "_diceNumber",
          "type": "uint256"
        },
        {
          "internalType": "uint256",
          "name": "_currentSquareId",
          "type": "uint256"
        }
      ],
      "name": "moveUser",
      "outputs": [],
      "stateMutability": "nonpayable",
      "type": "function"
    },
    {
      "inputs": [
        {
          "internalType": "uint256",
          "name": "",
          "type": "uint256"
        }
      ],
      "name": "squareIdToSquare",
      "outputs": [
        {
          "internalType": "address",
          "name": "createrAddress",
          "type": "address"
        },
        {
          "internalType": "string",
          "name": "createrENS",
          "type": "string"
        },
        {
          "internalType": "string",
          "name": "createrIcon",
          "type": "string"
        },
        {
          "internalType": "string",
          "name": "squareDescription",
          "type": "string"
        },
        {
          "internalType": "string",
          "name": "squareNftURL",
          "type": "string"
        },
        {
          "internalType": "uint256",
          "name": "squareBalance",
          "type": "uint256"
        },
        {
          "internalType": "bool",
          "name": "IsBalanceAdd",
          "type": "bool"
        },
        {
          "internalType": "string",
          "name": "questContractAddress",
          "type": "string"
        },
        {
          "internalType": "string",
          "name": "questDescription",
          "type": "string"
        }
      ],
      "stateMutability": "view",
      "type": "function"
    },
    {
      "inputs": [
        {
          "internalType": "uint256",
          "name": "",
          "type": "uint256"
        }
      ],
      "name": "squareIdToSquareNftURL",
      "outputs": [
        {
          "internalType": "string",
          "name": "",
          "type": "string"
        }
      ],
      "stateMutability": "view",
      "type": "function"
    },
    {
      "inputs": [
        {
          "internalType": "uint256",
          "name": "",
          "type": "uint256"
        }
      ],
      "name": "squares",
      "outputs": [
        {
          "internalType": "address",
          "name": "createrAddress",
          "type": "address"
        },
        {
          "internalType": "string",
          "name": "createrENS",
          "type": "string"
        },
        {
          "internalType": "string",
          "name": "createrIcon",
          "type": "string"
        },
        {
          "internalType": "string",
          "name": "squareDescription",
          "type": "string"
        },
        {
          "internalType": "string",
          "name": "squareNftURL",
          "type": "string"
        },
        {
          "internalType": "uint256",
          "name": "squareBalance",
          "type": "uint256"
        },
        {
          "internalType": "bool",
          "name": "IsBalanceAdd",
          "type": "bool"
        },
        {
          "internalType": "string",
          "name": "questContractAddress",
          "type": "string"
        },
        {
          "internalType": "string",
          "name": "questDescription",
          "type": "string"
        }
      ],
      "stateMutability": "view",
      "type": "function"
    },
    {
      "inputs": [
        {
          "internalType": "uint256",
          "name": "_backendSquareId",
          "type": "uint256"
        },
        {
          "internalType": "uint256",
          "name": "_squareId",
          "type": "uint256"
        }
      ],
      "name": "updateAdjacentSquareIds",
      "outputs": [],
      "stateMutability": "nonpayable",
      "type": "function"
    },
    {
      "inputs": [
        {
          "internalType": "address",
          "name": "",
          "type": "address"
        }
      ],
      "name": "users",
      "outputs": [
        {
          "internalType": "uint256",
          "name": "squareId",
          "type": "uint256"
        },
        {
          "internalType": "uint256",
          "name": "userBalance",
          "type": "uint256"
        },
        {
          "internalType": "bool",
          "name": "userQuestStatus",
          "type": "bool"
        }
      ],
      "stateMutability": "view",
      "type": "function"
    }
  ],
  "bytecode": "0x60806040523480156200001157600080fd5b50620000f16040518060400160405280600c81526020017f73686572316f636b2e65746800000000000000000000000000000000000000008152506104fb66038d7ea4c680006040518060400160405280601881526020017f4865726520697320746865207374617274207371756172650000000000000000815250604051806080016040528060468152602001620034e0604691396000600160405180602001604052806000815250604051806020016040528060008152506040518060c00160405280608f815260200162003451608f91396200013560201b60201c565b604051806080016040528060468152602001620034e060469139600260006104fb815260200190815260200160002090816200012e91906200081b565b5062000902565b60006040518061014001604052803373ffffffffffffffffffffffffffffffffffffffff1681526020018c815260200183815260200189815260200188815260200187815260200186151581526020016000865111620001a55760405180602001604052806000815250620001a7565b855b81526020016000855111620001cc5760405180602001604052806000815250620001ce565b845b8152602001600067ffffffffffffffff811115620001f157620001f0620005ac565b5b604051908082528060200260200182016040528015620002205781602001602082028036833780820191505090505b508152509050806000808c815260200190815260200160002060008201518160000160006101000a81548173ffffffffffffffffffffffffffffffffffffffff021916908373ffffffffffffffffffffffffffffffffffffffff16021790555060208201518160010190816200029791906200081b565b506040820151816002019081620002af91906200081b565b506060820151816003019081620002c791906200081b565b506080820151816004019081620002df91906200081b565b5060a0820151816005015560c08201518160060160006101000a81548160ff02191690831515021790555060e08201518160070190816200032191906200081b565b506101008201518160080190816200033a91906200081b565b506101208201518160090190805190602001906200035a92919062000530565b5090505086600260008c815260200190815260200160002090816200038091906200081b565b5060038190806001815401808255809150506001900390600052602060002090600a020160009091909190915060008201518160000160006101000a81548173ffffffffffffffffffffffffffffffffffffffff021916908373ffffffffffffffffffffffffffffffffffffffff16021790555060208201518160010190816200040b91906200081b565b5060408201518160020190816200042391906200081b565b5060608201518160030190816200043b91906200081b565b5060808201518160040190816200045391906200081b565b5060a0820151816005015560c08201518160060160006101000a81548160ff02191690831515021790555060e08201518160070190816200049591906200081b565b50610100820151816008019081620004ae91906200081b565b50610120820151816009019080519060200190620004ce92919062000530565b505050620004e3898b620004f060201b60201c565b5050505050505050505050565b6000808381526020019081526020016000206009018190806001815401808255809150506001900390600052602060002001600090919091909150555050565b8280548282559060005260206000209081019282156200056f579160200282015b828111156200056e57825182559160200191906001019062000551565b5b5090506200057e919062000582565b5090565b5b808211156200059d57600081600090555060010162000583565b5090565b600081519050919050565b7f4e487b7100000000000000000000000000000000000000000000000000000000600052604160045260246000fd5b7f4e487b7100000000000000000000000000000000000000000000000000000000600052602260045260246000fd5b600060028204905060018216806200062357607f821691505b602082108103620006395762000638620005db565b5b50919050565b60008190508160005260206000209050919050565b60006020601f8301049050919050565b600082821b905092915050565b600060088302620006a37fffffffffffffffffffffffffffffffffffffffffffffffffffffffffffffffff8262000664565b620006af868362000664565b95508019841693508086168417925050509392505050565b6000819050919050565b6000819050919050565b6000620006fc620006f6620006f084620006c7565b620006d1565b620006c7565b9050919050565b6000819050919050565b6200071883620006db565b62000730620007278262000703565b84845462000671565b825550505050565b600090565b6200074762000738565b620007548184846200070d565b505050565b5b818110156200077c57620007706000826200073d565b6001810190506200075a565b5050565b601f821115620007cb5762000795816200063f565b620007a08462000654565b81016020851015620007b0578190505b620007c8620007bf8562000654565b83018262000759565b50505b505050565b600082821c905092915050565b6000620007f060001984600802620007d0565b1980831691505092915050565b60006200080b8383620007dd565b9150826002028217905092915050565b6200082682620005a1565b67ffffffffffffffff811115620008425762000841620005ac565b5b6200084e82546200060a565b6200085b82828562000780565b600060209050601f8311600181146200089357600084156200087e578287015190505b6200088a8582620007fd565b865550620008fa565b601f198416620008a3866200063f565b60005b82811015620008cd57848901518255600182019150602085019450602081019050620008a6565b86831015620008ed5784890151620008e9601f891682620007dd565b8355505b6001600288020188555050505b505050505050565b612b3f80620009126000396000f3fe608060405234801561001057600080fd5b50600436106100cf5760003560e01c806383df62ed1161008c578063b81ad3d811610066578063b81ad3d814610237578063d0928f7714610267578063e81a6d6e14610283578063f5f1fcbb146102a1576100cf565b806383df62ed146101c35780639509af03146101cd578063a87430ba14610205576100cf565b80631d1d15d4146100d45780632e6062901461010c578063303819a014610128578063479f00901461014757806369634ada146101775780637fd3f445146101a7575b600080fd5b6100ee60048036038101906100e99190611c93565b6102d1565b60405161010399989796959493929190611dbb565b60405180910390f35b61012660048036038101906101219190611e72565b61068c565b005b610130610909565b60405161013e92919061207c565b60405180910390f35b610161600480360381019061015c9190611c93565b610c10565b60405161016e9190612244565b60405180910390f35b610191600480360381019061018c9190611c93565b61107c565b60405161019e9190612266565b60405180910390f35b6101c160048036038101906101bc91906123e9565b611121565b005b6101cb6114ae565b005b6101e760048036038101906101e29190611c93565b61159c565b6040516101fc99989796959493929190611dbb565b60405180910390f35b61021f600480360381019061021a919061259c565b611947565b60405161022e939291906125c9565b60405180910390f35b610251600480360381019061024c9190611c93565b61197e565b60405161025e9190612266565b60405180910390f35b610281600480360381019061027c9190611e72565b611a1e565b005b61028b611a5e565b6040516102989190612642565b60405180910390f35b6102bb60048036038101906102b69190611c93565b611ae4565b6040516102c8919061265d565b60405180910390f35b600381815481106102e157600080fd5b90600052602060002090600a02016000915090508060000160009054906101000a900473ffffffffffffffffffffffffffffffffffffffff169080600101805461032a906126ae565b80601f0160208091040260200160405190810160405280929190818152602001828054610356906126ae565b80156103a35780601f10610378576101008083540402835291602001916103a3565b820191906000526020600020905b81548152906001019060200180831161038657829003601f168201915b5050505050908060020180546103b8906126ae565b80601f01602080910402602001604051908101604052809291908181526020018280546103e4906126ae565b80156104315780601f1061040657610100808354040283529160200191610431565b820191906000526020600020905b81548152906001019060200180831161041457829003601f168201915b505050505090806003018054610446906126ae565b80601f0160208091040260200160405190810160405280929190818152602001828054610472906126ae565b80156104bf5780601f10610494576101008083540402835291602001916104bf565b820191906000526020600020905b8154815290600101906020018083116104a257829003601f168201915b5050505050908060040180546104d4906126ae565b80601f0160208091040260200160405190810160405280929190818152602001828054610500906126ae565b801561054d5780601f106105225761010080835404028352916020019161054d565b820191906000526020600020905b81548152906001019060200180831161053057829003601f168201915b5050505050908060050154908060060160009054906101000a900460ff169080600701805461057b906126ae565b80601f01602080910402602001604051908101604052809291908181526020018280546105a7906126ae565b80156105f45780601f106105c9576101008083540402835291602001916105f4565b820191906000526020600020905b8154815290600101906020018083116105d757829003601f168201915b505050505090806008018054610609906126ae565b80601f0160208091040260200160405190810160405280929190818152602001828054610635906126ae565b80156106825780601f1061065757610100808354040283529160200191610682565b820191906000526020600020905b81548152906001019060200180831161066557829003601f168201915b5050505050905089565b600081905060008060008381526020019081526020016000206009018054806020026020016040519081016040528092919081815260200182805480156106f257602002820191906000526020600020905b8154815260200190600101908083116106de575b5050505050905060008467ffffffffffffffff81111561071557610714612292565b5b6040519080825280602002602001820160405280156107435781602001602082028036833780820191505090505b5090506000825103610780577fc88f78efb5ac85889bf8050572811f32eb30e97bab8264e76379820396abff5160405160405180910390a1610902565b60005b858110156108c95760008351036107d0577f47753d74fe6a602edb08f6ac34fd9e3aac7bdc8725260d91f8fae9b2c6f1c7ce826040516107c3919061265d565b60405180910390a16108b6565b600083514233846040516020016107e993929190612748565b6040516020818303038152906040528051906020012060001c61080c91906127b4565b90506000848281518110610823576108226127e5565b5b6020026020010151905080848481518110610841576108406127e5565b5b6020026020010181815250506000808281526020019081526020016000206009018054806020026020016040519081016040528092919081815260200182805480156108ac57602002820191906000526020600020905b815481526020019060010190808311610898575b5050505050945050505b80806108c190612843565b915050610783565b507f47753d74fe6a602edb08f6ac34fd9e3aac7bdc8725260d91f8fae9b2c6f1c7ce816040516108f9919061265d565b60405180910390a15b5050505050565b60608060006109c467ffffffffffffffff81111561092a57610929612292565b5b6040519080825280602002602001820160405280156109585781602001602082028036833780820191505090505b50905060006109c467ffffffffffffffff81111561097957610978612292565b5b6040519080825280602002602001820160405280156109ac57816020015b60608152602001906001900390816109975790505b5090506000805b6109c4811015610acf57600081905060006002600083815260200190815260200160002080546109e2906126ae565b80601f0160208091040260200160405190810160405280929190818152602001828054610a0e906126ae565b8015610a5b5780601f10610a3057610100808354040283529160200191610a5b565b820191906000526020600020905b815481529060010190602001808311610a3e57829003601f168201915b50505050509050600081511115610aba5781868581518110610a8057610a7f6127e5565b5b60200260200101818152505080858581518110610aa057610a9f6127e5565b5b60200260200101819052508380610ab690612843565b9450505b50508080610ac790612843565b9150506109b3565b5060008167ffffffffffffffff811115610aec57610aeb612292565b5b604051908082528060200260200182016040528015610b1a5781602001602082028036833780820191505090505b50905060008267ffffffffffffffff811115610b3957610b38612292565b5b604051908082528060200260200182016040528015610b6c57816020015b6060815260200190600190039081610b575790505b50905060005b83811015610c0057858181518110610b8d57610b8c6127e5565b5b6020026020010151838281518110610ba857610ba76127e5565b5b602002602001018181525050848181518110610bc757610bc66127e5565b5b6020026020010151828281518110610be257610be16127e5565b5b60200260200101819052508080610bf890612843565b915050610b72565b5081819650965050505050509091565b610c18611b51565b600080838152602001908152602001600020604051806101400160405290816000820160009054906101000a900473ffffffffffffffffffffffffffffffffffffffff1673ffffffffffffffffffffffffffffffffffffffff1673ffffffffffffffffffffffffffffffffffffffff168152602001600182018054610c9c906126ae565b80601f0160208091040260200160405190810160405280929190818152602001828054610cc8906126ae565b8015610d155780601f10610cea57610100808354040283529160200191610d15565b820191906000526020600020905b815481529060010190602001808311610cf857829003601f168201915b50505050508152602001600282018054610d2e906126ae565b80601f0160208091040260200160405190810160405280929190818152602001828054610d5a906126ae565b8015610da75780601f10610d7c57610100808354040283529160200191610da7565b820191906000526020600020905b815481529060010190602001808311610d8a57829003601f168201915b50505050508152602001600382018054610dc0906126ae565b80601f0160208091040260200160405190810160405280929190818152602001828054610dec906126ae565b8015610e395780601f10610e0e57610100808354040283529160200191610e39565b820191906000526020600020905b815481529060010190602001808311610e1c57829003601f168201915b50505050508152602001600482018054610e52906126ae565b80601f0160208091040260200160405190810160405280929190818152602001828054610e7e906126ae565b8015610ecb5780601f10610ea057610100808354040283529160200191610ecb565b820191906000526020600020905b815481529060010190602001808311610eae57829003601f168201915b50505050508152602001600582015481526020016006820160009054906101000a900460ff16151515158152602001600782018054610f09906126ae565b80601f0160208091040260200160405190810160405280929190818152602001828054610f35906126ae565b8015610f825780601f10610f5757610100808354040283529160200191610f82565b820191906000526020600020905b815481529060010190602001808311610f6557829003601f168201915b50505050508152602001600882018054610f9b906126ae565b80601f0160208091040260200160405190810160405280929190818152602001828054610fc7906126ae565b80156110145780601f10610fe957610100808354040283529160200191611014565b820191906000526020600020905b815481529060010190602001808311610ff757829003601f168201915b505050505081526020016009820180548060200260200160405190810160405280929190818152602001828054801561106c57602002820191906000526020600020905b815481526020019060010190808311611058575b5050505050815250509050919050565b606060026000838152602001908152602001600020805461109c906126ae565b80601f01602080910402602001604051908101604052809291908181526020018280546110c8906126ae565b80156111155780601f106110ea57610100808354040283529160200191611115565b820191906000526020600020905b8154815290600101906020018083116110f857829003601f168201915b50505050509050919050565b60006040518061014001604052803373ffffffffffffffffffffffffffffffffffffffff1681526020018c81526020018381526020018981526020018881526020018781526020018615158152602001600086511161118f5760405180602001604052806000815250611191565b855b815260200160008551116111b457604051806020016040528060008152506111b6565b845b8152602001600067ffffffffffffffff8111156111d6576111d5612292565b5b6040519080825280602002602001820160405280156112045781602001602082028036833780820191505090505b508152509050806000808c815260200190815260200160002060008201518160000160006101000a81548173ffffffffffffffffffffffffffffffffffffffff021916908373ffffffffffffffffffffffffffffffffffffffff16021790555060208201518160010190816112799190612a37565b50604082015181600201908161128f9190612a37565b5060608201518160030190816112a59190612a37565b5060808201518160040190816112bb9190612a37565b5060a0820151816005015560c08201518160060160006101000a81548160ff02191690831515021790555060e08201518160070190816112fb9190612a37565b506101008201518160080190816113129190612a37565b50610120820151816009019080519060200190611330929190611bbc565b5090505086600260008c815260200190815260200160002090816113549190612a37565b5060038190806001815401808255809150506001900390600052602060002090600a020160009091909190915060008201518160000160006101000a81548173ffffffffffffffffffffffffffffffffffffffff021916908373ffffffffffffffffffffffffffffffffffffffff16021790555060208201518160010190816113dd9190612a37565b5060408201518160020190816113f39190612a37565b5060608201518160030190816114099190612a37565b50608082015181600401908161141f9190612a37565b5060a0820151816005015560c08201518160060160006101000a81548160ff02191690831515021790555060e082015181600701908161145f9190612a37565b506101008201518160080190816114769190612a37565b50610120820151816009019080519060200190611494929190611bbc565b5050506114a1898b611a1e565b5050505050505050505050565b6104fb600160003373ffffffffffffffffffffffffffffffffffffffff1673ffffffffffffffffffffffffffffffffffffffff168152602001908152602001600020600001819055506103e8600160003373ffffffffffffffffffffffffffffffffffffffff1673ffffffffffffffffffffffffffffffffffffffff1681526020019081526020016000206001018190555060018060003373ffffffffffffffffffffffffffffffffffffffff1673ffffffffffffffffffffffffffffffffffffffff16815260200190815260200160002060020160006101000a81548160ff021916908315150217905550565b60006020528060005260406000206000915090508060000160009054906101000a900473ffffffffffffffffffffffffffffffffffffffff16908060010180546115e5906126ae565b80601f0160208091040260200160405190810160405280929190818152602001828054611611906126ae565b801561165e5780601f106116335761010080835404028352916020019161165e565b820191906000526020600020905b81548152906001019060200180831161164157829003601f168201915b505050505090806002018054611673906126ae565b80601f016020809104026020016040519081016040528092919081815260200182805461169f906126ae565b80156116ec5780601f106116c1576101008083540402835291602001916116ec565b820191906000526020600020905b8154815290600101906020018083116116cf57829003601f168201915b505050505090806003018054611701906126ae565b80601f016020809104026020016040519081016040528092919081815260200182805461172d906126ae565b801561177a5780601f1061174f5761010080835404028352916020019161177a565b820191906000526020600020905b81548152906001019060200180831161175d57829003601f168201915b50505050509080600401805461178f906126ae565b80601f01602080910402602001604051908101604052809291908181526020018280546117bb906126ae565b80156118085780601f106117dd57610100808354040283529160200191611808565b820191906000526020600020905b8154815290600101906020018083116117eb57829003601f168201915b5050505050908060050154908060060160009054906101000a900460ff1690806007018054611836906126ae565b80601f0160208091040260200160405190810160405280929190818152602001828054611862906126ae565b80156118af5780601f10611884576101008083540402835291602001916118af565b820191906000526020600020905b81548152906001019060200180831161189257829003601f168201915b5050505050908060080180546118c4906126ae565b80601f01602080910402602001604051908101604052809291908181526020018280546118f0906126ae565b801561193d5780601f106119125761010080835404028352916020019161193d565b820191906000526020600020905b81548152906001019060200180831161192057829003601f168201915b5050505050905089565b60016020528060005260406000206000915090508060000154908060010154908060020160009054906101000a900460ff16905083565b6002602052806000526040600020600091509050805461199d906126ae565b80601f01602080910402602001604051908101604052809291908181526020018280546119c9906126ae565b8015611a165780601f106119eb57610100808354040283529160200191611a16565b820191906000526020600020905b8154815290600101906020018083116119f957829003601f168201915b505050505081565b6000808381526020019081526020016000206009018190806001815401808255809150506001900390600052602060002001600090919091909150555050565b611a66611c09565b600160003373ffffffffffffffffffffffffffffffffffffffff1673ffffffffffffffffffffffffffffffffffffffff16815260200190815260200160002060405180606001604052908160008201548152602001600182015481526020016002820160009054906101000a900460ff161515151581525050905090565b6060600080838152602001908152602001600020600901805480602002602001604051908101604052809291908181526020018280548015611b4557602002820191906000526020600020905b815481526020019060010190808311611b31575b50505050509050919050565b604051806101400160405280600073ffffffffffffffffffffffffffffffffffffffff16815260200160608152602001606081526020016060815260200160608152602001600081526020016000151581526020016060815260200160608152602001606081525090565b828054828255906000526020600020908101928215611bf8579160200282015b82811115611bf7578251825591602001919060010190611bdc565b5b509050611c059190611c2c565b5090565b604051806060016040528060008152602001600081526020016000151581525090565b5b80821115611c45576000816000905550600101611c2d565b5090565b6000604051905090565b600080fd5b600080fd5b6000819050919050565b611c7081611c5d565b8114611c7b57600080fd5b50565b600081359050611c8d81611c67565b92915050565b600060208284031215611ca957611ca8611c53565b5b6000611cb784828501611c7e565b91505092915050565b600073ffffffffffffffffffffffffffffffffffffffff82169050919050565b6000611ceb82611cc0565b9050919050565b611cfb81611ce0565b82525050565b600081519050919050565b600082825260208201905092915050565b60005b83811015611d3b578082015181840152602081019050611d20565b60008484015250505050565b6000601f19601f8301169050919050565b6000611d6382611d01565b611d6d8185611d0c565b9350611d7d818560208601611d1d565b611d8681611d47565b840191505092915050565b611d9a81611c5d565b82525050565b60008115159050919050565b611db581611da0565b82525050565b600061012082019050611dd1600083018c611cf2565b8181036020830152611de3818b611d58565b90508181036040830152611df7818a611d58565b90508181036060830152611e0b8189611d58565b90508181036080830152611e1f8188611d58565b9050611e2e60a0830187611d91565b611e3b60c0830186611dac565b81810360e0830152611e4d8185611d58565b9050818103610100830152611e628184611d58565b90509a9950505050505050505050565b60008060408385031215611e8957611e88611c53565b5b6000611e9785828601611c7e565b9250506020611ea885828601611c7e565b9150509250929050565b600081519050919050565b600082825260208201905092915050565b6000819050602082019050919050565b611ee781611c5d565b82525050565b6000611ef98383611ede565b60208301905092915050565b6000602082019050919050565b6000611f1d82611eb2565b611f278185611ebd565b9350611f3283611ece565b8060005b83811015611f63578151611f4a8882611eed565b9750611f5583611f05565b925050600181019050611f36565b5085935050505092915050565b600081519050919050565b600082825260208201905092915050565b6000819050602082019050919050565b600082825260208201905092915050565b6000611fb882611d01565b611fc28185611f9c565b9350611fd2818560208601611d1d565b611fdb81611d47565b840191505092915050565b6000611ff28383611fad565b905092915050565b6000602082019050919050565b600061201282611f70565b61201c8185611f7b565b93508360208202850161202e85611f8c565b8060005b8581101561206a578484038952815161204b8582611fe6565b945061205683611ffa565b925060208a01995050600181019050612032565b50829750879550505050505092915050565b600060408201905081810360008301526120968185611f12565b905081810360208301526120aa8184612007565b90509392505050565b6120bc81611ce0565b82525050565b6120cb81611da0565b82525050565b600082825260208201905092915050565b60006120ed82611eb2565b6120f781856120d1565b935061210283611ece565b8060005b8381101561213357815161211a8882611eed565b975061212583611f05565b925050600181019050612106565b5085935050505092915050565b60006101408301600083015161215960008601826120b3565b50602083015184820360208601526121718282611fad565b9150506040830151848203604086015261218b8282611fad565b915050606083015184820360608601526121a58282611fad565b915050608083015184820360808601526121bf8282611fad565b91505060a08301516121d460a0860182611ede565b5060c08301516121e760c08601826120c2565b5060e083015184820360e08601526121ff8282611fad565b91505061010083015184820361010086015261221b8282611fad565b91505061012083015184820361012086015261223782826120e2565b9150508091505092915050565b6000602082019050818103600083015261225e8184612140565b905092915050565b600060208201905081810360008301526122808184611d58565b905092915050565b600080fd5b600080fd5b7f4e487b7100000000000000000000000000000000000000000000000000000000600052604160045260246000fd5b6122ca82611d47565b810181811067ffffffffffffffff821117156122e9576122e8612292565b5b80604052505050565b60006122fc611c49565b905061230882826122c1565b919050565b600067ffffffffffffffff82111561232857612327612292565b5b61233182611d47565b9050602081019050919050565b82818337600083830152505050565b600061236061235b8461230d565b6122f2565b90508281526020810184848401111561237c5761237b61228d565b5b61238784828561233e565b509392505050565b600082601f8301126123a4576123a3612288565b5b81356123b484826020860161234d565b91505092915050565b6123c681611da0565b81146123d157600080fd5b50565b6000813590506123e3816123bd565b92915050565b6000806000806000806000806000806101408b8d03121561240d5761240c611c53565b5b60008b013567ffffffffffffffff81111561242b5761242a611c58565b5b6124378d828e0161238f565b9a505060206124488d828e01611c7e565b99505060406124598d828e01611c7e565b98505060608b013567ffffffffffffffff81111561247a57612479611c58565b5b6124868d828e0161238f565b97505060808b013567ffffffffffffffff8111156124a7576124a6611c58565b5b6124b38d828e0161238f565b96505060a06124c48d828e01611c7e565b95505060c06124d58d828e016123d4565b94505060e08b013567ffffffffffffffff8111156124f6576124f5611c58565b5b6125028d828e0161238f565b9350506101008b013567ffffffffffffffff81111561252457612523611c58565b5b6125308d828e0161238f565b9250506101208b013567ffffffffffffffff81111561255257612551611c58565b5b61255e8d828e0161238f565b9150509295989b9194979a5092959850565b61257981611ce0565b811461258457600080fd5b50565b60008135905061259681612570565b92915050565b6000602082840312156125b2576125b1611c53565b5b60006125c084828501612587565b91505092915050565b60006060820190506125de6000830186611d91565b6125eb6020830185611d91565b6125f86040830184611dac565b949350505050565b6060820160008201516126166000850182611ede565b5060208201516126296020850182611ede565b50604082015161263c60408501826120c2565b50505050565b60006060820190506126576000830184612600565b92915050565b600060208201905081810360008301526126778184611f12565b905092915050565b7f4e487b7100000000000000000000000000000000000000000000000000000000600052602260045260246000fd5b600060028204905060018216806126c657607f821691505b6020821081036126d9576126d861267f565b5b50919050565b6000819050919050565b6126fa6126f582611c5d565b6126df565b82525050565b60008160601b9050919050565b600061271882612700565b9050919050565b600061272a8261270d565b9050919050565b61274261273d82611ce0565b61271f565b82525050565b600061275482866126e9565b6020820191506127648285612731565b60148201915061277482846126e9565b602082019150819050949350505050565b7f4e487b7100000000000000000000000000000000000000000000000000000000600052601260045260246000fd5b60006127bf82611c5d565b91506127ca83611c5d565b9250826127da576127d9612785565b5b828206905092915050565b7f4e487b7100000000000000000000000000000000000000000000000000000000600052603260045260246000fd5b7f4e487b7100000000000000000000000000000000000000000000000000000000600052601160045260246000fd5b600061284e82611c5d565b91507fffffffffffffffffffffffffffffffffffffffffffffffffffffffffffffffff82036128805761287f612814565b5b600182019050919050565b60008190508160005260206000209050919050565b60006020601f8301049050919050565b600082821b905092915050565b6000600883026128ed7fffffffffffffffffffffffffffffffffffffffffffffffffffffffffffffffff826128b0565b6128f786836128b0565b95508019841693508086168417925050509392505050565b6000819050919050565b600061293461292f61292a84611c5d565b61290f565b611c5d565b9050919050565b6000819050919050565b61294e83612919565b61296261295a8261293b565b8484546128bd565b825550505050565b600090565b61297761296a565b612982818484612945565b505050565b5b818110156129a65761299b60008261296f565b600181019050612988565b5050565b601f8211156129eb576129bc8161288b565b6129c5846128a0565b810160208510156129d4578190505b6129e86129e0856128a0565b830182612987565b50505b505050565b600082821c905092915050565b6000612a0e600019846008026129f0565b1980831691505092915050565b6000612a2783836129fd565b9150826002028217905092915050565b612a4082611d01565b67ffffffffffffffff811115612a5957612a58612292565b5b612a6382546126ae565b612a6e8282856129aa565b600060209050601f831160018114612aa15760008415612a8f578287015190505b612a998582612a1b565b865550612b01565b601f198416612aaf8661288b565b60005b82811015612ad757848901518255600182019150602085019450602081019050612ab2565b86831015612af45784890151612af0601f8916826129fd565b8355505b6001600288020188555050505b50505050505056fea2646970667358221220faacdce5b092ed583a3b54b0223026b91dd05c9be2097132a3f9dfc84cf5461264736f6c6343000812003368747470733a2f2f692e736561646e2e696f2f6761652f4c504d65764f7a394f45374f542d4868736b434a33683666414957476d445f613756493878553563593656625f6169336c6c7247626165346b5a34795630324b6e5a4f4d2d78636a516f6234456b6a6147686e6572655a427a594a5f37614762486a547753513f773d353030266175746f3d666f726d617468747470733a2f2f7468756d622e61632d696c6c7573742e636f6d2f63662f63663565383039343762633837336561356365313438393436376332363161325f772e6a706567",
  "linkReferences": {},
  "deployedLinkReferences": {}
}