{
  "_format": "hh-sol-artifact-1",
  "contractName": "FoteisonGame",
  "sourceName": "contracts/FoteisonGame.sol",
  "abi": [
    {
      "inputs": [],
      "stateMutability": "nonpayable",
      "type": "constructor"
    },
    {
      "anonymous": false,
      "inputs": [],
      "name": "InsufficientBalance",
      "type": "event"
    },
    {
      "anonymous": false,
      "inputs": [],
      "name": "NoConnectedSquares",
      "type": "event"
    },
    {
      "anonymous": false,
      "inputs": [
        {
          "indexed": false,
          "internalType": "uint256[]",
          "name": "selectedSquareIds",
          "type": "uint256[]"
        }
      ],
      "name": "SquareSelected",
      "type": "event"
    },
    {
      "anonymous": false,
      "inputs": [
        {
          "indexed": false,
          "internalType": "uint256",
          "name": "newUserBalance",
          "type": "uint256"
        }
      ],
      "name": "UserBalanceChanged",
      "type": "event"
    },
    {
      "inputs": [],
      "name": "backToStart",
      "outputs": [],
      "stateMutability": "nonpayable",
      "type": "function"
    },
    {
      "inputs": [],
      "name": "confirmUser",
      "outputs": [
        {
          "components": [
            {
              "internalType": "uint256",
              "name": "squareId",
              "type": "uint256"
            },
            {
              "internalType": "uint256",
              "name": "userBalance",
              "type": "uint256"
            },
            {
              "internalType": "bool",
              "name": "userQuestStatus",
              "type": "bool"
            }
          ],
          "internalType": "struct FoteisonGame.User",
          "name": "",
          "type": "tuple"
        }
      ],
      "stateMutability": "view",
      "type": "function"
    },
    {
      "inputs": [
        {
          "internalType": "string",
          "name": "_createrENS",
          "type": "string"
        },
        {
          "internalType": "uint256",
          "name": "_squareId",
          "type": "uint256"
        },
        {
          "internalType": "uint256",
          "name": "_backendSquareId",
          "type": "uint256"
        },
        {
          "internalType": "string",
          "name": "_squareDescription",
          "type": "string"
        },
        {
          "internalType": "string",
          "name": "_squareNftURL",
          "type": "string"
        },
        {
          "internalType": "uint256",
          "name": "_squareBalance",
          "type": "uint256"
        },
        {
          "internalType": "bool",
          "name": "_IsBalanceAdd",
          "type": "bool"
        },
        {
          "internalType": "string",
          "name": "_questContractAddress",
          "type": "string"
        },
        {
          "internalType": "string",
          "name": "_questDescription",
          "type": "string"
        },
        {
          "internalType": "string",
          "name": "_createrIcon",
          "type": "string"
        }
      ],
      "name": "createSquare",
      "outputs": [],
      "stateMutability": "nonpayable",
      "type": "function"
    },
    {
      "inputs": [
        {
          "internalType": "uint256",
          "name": "squareId",
          "type": "uint256"
        }
      ],
      "name": "getAdjacentSquareIds",
      "outputs": [
        {
          "internalType": "uint256[]",
          "name": "",
          "type": "uint256[]"
        }
      ],
      "stateMutability": "view",
      "type": "function"
    },
    {
      "inputs": [],
      "name": "getAllSquareNftURLs",
      "outputs": [
        {
          "internalType": "uint256[]",
          "name": "",
          "type": "uint256[]"
        },
        {
          "internalType": "string[]",
          "name": "",
          "type": "string[]"
        }
      ],
      "stateMutability": "view",
      "type": "function"
    },
    {
      "inputs": [
        {
          "internalType": "uint256",
          "name": "squareId",
          "type": "uint256"
        }
      ],
      "name": "getSquare",
      "outputs": [
        {
          "components": [
            {
              "internalType": "address",
              "name": "createrAddress",
              "type": "address"
            },
            {
              "internalType": "string",
              "name": "createrENS",
              "type": "string"
            },
            {
              "internalType": "string",
              "name": "createrIcon",
              "type": "string"
            },
            {
              "internalType": "string",
              "name": "squareDescription",
              "type": "string"
            },
            {
              "internalType": "string",
              "name": "squareNftURL",
              "type": "string"
            },
            {
              "internalType": "uint256",
              "name": "squareBalance",
              "type": "uint256"
            },
            {
              "internalType": "bool",
              "name": "IsBalanceAdd",
              "type": "bool"
            },
            {
              "internalType": "string",
              "name": "questContractAddress",
              "type": "string"
            },
            {
              "internalType": "string",
              "name": "questDescription",
              "type": "string"
            },
            {
              "internalType": "uint256[]",
              "name": "adjacentSquareIds",
              "type": "uint256[]"
            }
          ],
          "internalType": "struct FoteisonGame.Square",
          "name": "",
          "type": "tuple"
        }
      ],
      "stateMutability": "view",
      "type": "function"
    },
    {
      "inputs": [
        {
          "internalType": "uint256",
          "name": "squareId",
          "type": "uint256"
        }
      ],
      "name": "getSquareNftURL",
      "outputs": [
        {
          "internalType": "string",
          "name": "",
          "type": "string"
        }
      ],
      "stateMutability": "view",
      "type": "function"
    },
    {
      "inputs": [
        {
          "internalType": "uint256",
          "name": "_diceNumber",
          "type": "uint256"
        },
        {
          "internalType": "uint256",
          "name": "_currentSquareId",
          "type": "uint256"
        }
      ],
      "name": "moveUser",
      "outputs": [
        {
          "internalType": "uint256[]",
          "name": "",
          "type": "uint256[]"
        }
      ],
      "stateMutability": "view",
      "type": "function"
    },
    {
      "inputs": [
        {
          "internalType": "uint256",
          "name": "",
          "type": "uint256"
        }
      ],
      "name": "squareIdToSquare",
      "outputs": [
        {
          "internalType": "address",
          "name": "createrAddress",
          "type": "address"
        },
        {
          "internalType": "string",
          "name": "createrENS",
          "type": "string"
        },
        {
          "internalType": "string",
          "name": "createrIcon",
          "type": "string"
        },
        {
          "internalType": "string",
          "name": "squareDescription",
          "type": "string"
        },
        {
          "internalType": "string",
          "name": "squareNftURL",
          "type": "string"
        },
        {
          "internalType": "uint256",
          "name": "squareBalance",
          "type": "uint256"
        },
        {
          "internalType": "bool",
          "name": "IsBalanceAdd",
          "type": "bool"
        },
        {
          "internalType": "string",
          "name": "questContractAddress",
          "type": "string"
        },
        {
          "internalType": "string",
          "name": "questDescription",
          "type": "string"
        }
      ],
      "stateMutability": "view",
      "type": "function"
    },
    {
      "inputs": [
        {
          "internalType": "uint256",
          "name": "",
          "type": "uint256"
        }
      ],
      "name": "squareIdToSquareNftURL",
      "outputs": [
        {
          "internalType": "string",
          "name": "",
          "type": "string"
        }
      ],
      "stateMutability": "view",
      "type": "function"
    },
    {
      "inputs": [
        {
          "internalType": "uint256",
          "name": "",
          "type": "uint256"
        }
      ],
      "name": "squares",
      "outputs": [
        {
          "internalType": "address",
          "name": "createrAddress",
          "type": "address"
        },
        {
          "internalType": "string",
          "name": "createrENS",
          "type": "string"
        },
        {
          "internalType": "string",
          "name": "createrIcon",
          "type": "string"
        },
        {
          "internalType": "string",
          "name": "squareDescription",
          "type": "string"
        },
        {
          "internalType": "string",
          "name": "squareNftURL",
          "type": "string"
        },
        {
          "internalType": "uint256",
          "name": "squareBalance",
          "type": "uint256"
        },
        {
          "internalType": "bool",
          "name": "IsBalanceAdd",
          "type": "bool"
        },
        {
          "internalType": "string",
          "name": "questContractAddress",
          "type": "string"
        },
        {
          "internalType": "string",
          "name": "questDescription",
          "type": "string"
        }
      ],
      "stateMutability": "view",
      "type": "function"
    },
    {
      "inputs": [
        {
          "internalType": "uint256",
          "name": "_backendSquareId",
          "type": "uint256"
        },
        {
          "internalType": "uint256",
          "name": "_squareId",
          "type": "uint256"
        }
      ],
      "name": "updateAdjacentSquareIds",
      "outputs": [],
      "stateMutability": "nonpayable",
      "type": "function"
    },
    {
      "inputs": [
        {
          "internalType": "address",
          "name": "",
          "type": "address"
        }
      ],
      "name": "users",
      "outputs": [
        {
          "internalType": "uint256",
          "name": "squareId",
          "type": "uint256"
        },
        {
          "internalType": "uint256",
          "name": "userBalance",
          "type": "uint256"
        },
        {
          "internalType": "bool",
          "name": "userQuestStatus",
          "type": "bool"
        }
      ],
      "stateMutability": "view",
      "type": "function"
    }
  ],
  "bytecode": "0x60806040523480156200001157600080fd5b50620000f16040518060400160405280600c81526020017f73686572316f636b2e65746800000000000000000000000000000000000000008152506104fb66038d7ea4c680006040518060400160405280601881526020017f486572652069732074686520737461727420737175617265000000000000000081525060405180608001604052806046815260200162003465604691396000600160405180602001604052806000815250604051806020016040528060008152506040518060c00160405280608f8152602001620033d6608f91396200013560201b60201c565b6040518060800160405280604681526020016200346560469139600260006104fb815260200190815260200160002090816200012e91906200081b565b5062000902565b60006040518061014001604052803373ffffffffffffffffffffffffffffffffffffffff1681526020018c815260200183815260200189815260200188815260200187815260200186151581526020016000865111620001a55760405180602001604052806000815250620001a7565b855b81526020016000855111620001cc5760405180602001604052806000815250620001ce565b845b8152602001600067ffffffffffffffff811115620001f157620001f0620005ac565b5b604051908082528060200260200182016040528015620002205781602001602082028036833780820191505090505b508152509050806000808c815260200190815260200160002060008201518160000160006101000a81548173ffffffffffffffffffffffffffffffffffffffff021916908373ffffffffffffffffffffffffffffffffffffffff16021790555060208201518160010190816200029791906200081b565b506040820151816002019081620002af91906200081b565b506060820151816003019081620002c791906200081b565b506080820151816004019081620002df91906200081b565b5060a0820151816005015560c08201518160060160006101000a81548160ff02191690831515021790555060e08201518160070190816200032191906200081b565b506101008201518160080190816200033a91906200081b565b506101208201518160090190805190602001906200035a92919062000530565b5090505086600260008c815260200190815260200160002090816200038091906200081b565b5060038190806001815401808255809150506001900390600052602060002090600a020160009091909190915060008201518160000160006101000a81548173ffffffffffffffffffffffffffffffffffffffff021916908373ffffffffffffffffffffffffffffffffffffffff16021790555060208201518160010190816200040b91906200081b565b5060408201518160020190816200042391906200081b565b5060608201518160030190816200043b91906200081b565b5060808201518160040190816200045391906200081b565b5060a0820151816005015560c08201518160060160006101000a81548160ff02191690831515021790555060e08201518160070190816200049591906200081b565b50610100820151816008019081620004ae91906200081b565b50610120820151816009019080519060200190620004ce92919062000530565b505050620004e3898b620004f060201b60201c565b5050505050505050505050565b6000808381526020019081526020016000206009018190806001815401808255809150506001900390600052602060002001600090919091909150555050565b8280548282559060005260206000209081019282156200056f579160200282015b828111156200056e57825182559160200191906001019062000551565b5b5090506200057e919062000582565b5090565b5b808211156200059d57600081600090555060010162000583565b5090565b600081519050919050565b7f4e487b7100000000000000000000000000000000000000000000000000000000600052604160045260246000fd5b7f4e487b7100000000000000000000000000000000000000000000000000000000600052602260045260246000fd5b600060028204905060018216806200062357607f821691505b602082108103620006395762000638620005db565b5b50919050565b60008190508160005260206000209050919050565b60006020601f8301049050919050565b600082821b905092915050565b600060088302620006a37fffffffffffffffffffffffffffffffffffffffffffffffffffffffffffffffff8262000664565b620006af868362000664565b95508019841693508086168417925050509392505050565b6000819050919050565b6000819050919050565b6000620006fc620006f6620006f084620006c7565b620006d1565b620006c7565b9050919050565b6000819050919050565b6200071883620006db565b62000730620007278262000703565b84845462000671565b825550505050565b600090565b6200074762000738565b620007548184846200070d565b505050565b5b818110156200077c57620007706000826200073d565b6001810190506200075a565b5050565b601f821115620007cb5762000795816200063f565b620007a08462000654565b81016020851015620007b0578190505b620007c8620007bf8562000654565b83018262000759565b50505b505050565b600082821c905092915050565b6000620007f060001984600802620007d0565b1980831691505092915050565b60006200080b8383620007dd565b9150826002028217905092915050565b6200082682620005a1565b67ffffffffffffffff811115620008425762000841620005ac565b5b6200084e82546200060a565b6200085b82828562000780565b600060209050601f8311600181146200089357600084156200087e578287015190505b6200088a8582620007fd565b865550620008fa565b601f198416620008a3866200063f565b60005b82811015620008cd57848901518255600182019150602085019450602081019050620008a6565b86831015620008ed5784890151620008e9601f891682620007dd565b8355505b6001600288020188555050505b505050505050565b612ac480620009126000396000f3fe608060405234801561001057600080fd5b50600436106100cf5760003560e01c806383df62ed1161008c578063b81ad3d811610066578063b81ad3d81461024b578063d0928f771461027b578063e81a6d6e14610297578063f5f1fcbb146102b5576100cf565b806383df62ed146101d75780639509af03146101e1578063a87430ba14610219576100cf565b80631d1d15d4146100d45780632e6062901461010c578063303819a01461013c578063479f00901461015b57806369634ada1461018b5780637fd3f445146101bb575b600080fd5b6100ee60048036038101906100e99190611c18565b6102e5565b60405161010399989796959493929190611d40565b60405180910390f35b61012660048036038101906101219190611df7565b6106a0565b6040516101339190611ef5565b60405180910390f35b61014461088e565b604051610152929190612023565b60405180910390f35b61017560048036038101906101709190611c18565b610b95565b60405161018291906121eb565b60405180910390f35b6101a560048036038101906101a09190611c18565b611001565b6040516101b2919061220d565b60405180910390f35b6101d560048036038101906101d09190612390565b6110a6565b005b6101df611433565b005b6101fb60048036038101906101f69190611c18565b611521565b60405161021099989796959493929190611d40565b60405180910390f35b610233600480360381019061022e9190612543565b6118cc565b60405161024293929190612570565b60405180910390f35b61026560048036038101906102609190611c18565b611903565b604051610272919061220d565b60405180910390f35b61029560048036038101906102909190611df7565b6119a3565b005b61029f6119e3565b6040516102ac91906125e9565b60405180910390f35b6102cf60048036038101906102ca9190611c18565b611a69565b6040516102dc9190611ef5565b60405180910390f35b600381815481106102f557600080fd5b90600052602060002090600a02016000915090508060000160009054906101000a900473ffffffffffffffffffffffffffffffffffffffff169080600101805461033e90612633565b80601f016020809104026020016040519081016040528092919081815260200182805461036a90612633565b80156103b75780601f1061038c576101008083540402835291602001916103b7565b820191906000526020600020905b81548152906001019060200180831161039a57829003601f168201915b5050505050908060020180546103cc90612633565b80601f01602080910402602001604051908101604052809291908181526020018280546103f890612633565b80156104455780601f1061041a57610100808354040283529160200191610445565b820191906000526020600020905b81548152906001019060200180831161042857829003601f168201915b50505050509080600301805461045a90612633565b80601f016020809104026020016040519081016040528092919081815260200182805461048690612633565b80156104d35780601f106104a8576101008083540402835291602001916104d3565b820191906000526020600020905b8154815290600101906020018083116104b657829003601f168201915b5050505050908060040180546104e890612633565b80601f016020809104026020016040519081016040528092919081815260200182805461051490612633565b80156105615780601f1061053657610100808354040283529160200191610561565b820191906000526020600020905b81548152906001019060200180831161054457829003601f168201915b5050505050908060050154908060060160009054906101000a900460ff169080600701805461058f90612633565b80601f01602080910402602001604051908101604052809291908181526020018280546105bb90612633565b80156106085780601f106105dd57610100808354040283529160200191610608565b820191906000526020600020905b8154815290600101906020018083116105eb57829003601f168201915b50505050509080600801805461061d90612633565b80601f016020809104026020016040519081016040528092919081815260200182805461064990612633565b80156106965780601f1061066b57610100808354040283529160200191610696565b820191906000526020600020905b81548152906001019060200180831161067957829003601f168201915b5050505050905089565b6060600080600084815260200190815260200160002060090180548060200260200160405190810160405280929190818152602001828054801561070357602002820191906000526020600020905b8154815260200190600101908083116106ef575b5050505050905060008467ffffffffffffffff81111561072657610725612239565b5b6040519080825280602002602001820160405280156107545781602001602082028036833780820191505090505b509050600082510361076a578092505050610888565b60005b8581101561088157600083510361078957819350505050610888565b600083514233846040516020016107a2939291906126cd565b6040516020818303038152906040528051906020012060001c6107c59190612739565b905060008482815181106107dc576107db61276a565b5b60200260200101519050808484815181106107fa576107f961276a565b5b60200260200101818152505060008082815260200190815260200160002060090180548060200260200160405190810160405280929190818152602001828054801561086557602002820191906000526020600020905b815481526020019060010190808311610851575b5050505050945050508080610879906127c8565b91505061076d565b5080925050505b92915050565b60608060006109c467ffffffffffffffff8111156108af576108ae612239565b5b6040519080825280602002602001820160405280156108dd5781602001602082028036833780820191505090505b50905060006109c467ffffffffffffffff8111156108fe576108fd612239565b5b60405190808252806020026020018201604052801561093157816020015b606081526020019060019003908161091c5790505b5090506000805b6109c4811015610a54576000819050600060026000838152602001908152602001600020805461096790612633565b80601f016020809104026020016040519081016040528092919081815260200182805461099390612633565b80156109e05780601f106109b5576101008083540402835291602001916109e0565b820191906000526020600020905b8154815290600101906020018083116109c357829003601f168201915b50505050509050600081511115610a3f5781868581518110610a0557610a0461276a565b5b60200260200101818152505080858581518110610a2557610a2461276a565b5b60200260200101819052508380610a3b906127c8565b9450505b50508080610a4c906127c8565b915050610938565b5060008167ffffffffffffffff811115610a7157610a70612239565b5b604051908082528060200260200182016040528015610a9f5781602001602082028036833780820191505090505b50905060008267ffffffffffffffff811115610abe57610abd612239565b5b604051908082528060200260200182016040528015610af157816020015b6060815260200190600190039081610adc5790505b50905060005b83811015610b8557858181518110610b1257610b1161276a565b5b6020026020010151838281518110610b2d57610b2c61276a565b5b602002602001018181525050848181518110610b4c57610b4b61276a565b5b6020026020010151828281518110610b6757610b6661276a565b5b60200260200101819052508080610b7d906127c8565b915050610af7565b5081819650965050505050509091565b610b9d611ad6565b600080838152602001908152602001600020604051806101400160405290816000820160009054906101000a900473ffffffffffffffffffffffffffffffffffffffff1673ffffffffffffffffffffffffffffffffffffffff1673ffffffffffffffffffffffffffffffffffffffff168152602001600182018054610c2190612633565b80601f0160208091040260200160405190810160405280929190818152602001828054610c4d90612633565b8015610c9a5780601f10610c6f57610100808354040283529160200191610c9a565b820191906000526020600020905b815481529060010190602001808311610c7d57829003601f168201915b50505050508152602001600282018054610cb390612633565b80601f0160208091040260200160405190810160405280929190818152602001828054610cdf90612633565b8015610d2c5780601f10610d0157610100808354040283529160200191610d2c565b820191906000526020600020905b815481529060010190602001808311610d0f57829003601f168201915b50505050508152602001600382018054610d4590612633565b80601f0160208091040260200160405190810160405280929190818152602001828054610d7190612633565b8015610dbe5780601f10610d9357610100808354040283529160200191610dbe565b820191906000526020600020905b815481529060010190602001808311610da157829003601f168201915b50505050508152602001600482018054610dd790612633565b80601f0160208091040260200160405190810160405280929190818152602001828054610e0390612633565b8015610e505780601f10610e2557610100808354040283529160200191610e50565b820191906000526020600020905b815481529060010190602001808311610e3357829003601f168201915b50505050508152602001600582015481526020016006820160009054906101000a900460ff16151515158152602001600782018054610e8e90612633565b80601f0160208091040260200160405190810160405280929190818152602001828054610eba90612633565b8015610f075780601f10610edc57610100808354040283529160200191610f07565b820191906000526020600020905b815481529060010190602001808311610eea57829003601f168201915b50505050508152602001600882018054610f2090612633565b80601f0160208091040260200160405190810160405280929190818152602001828054610f4c90612633565b8015610f995780601f10610f6e57610100808354040283529160200191610f99565b820191906000526020600020905b815481529060010190602001808311610f7c57829003601f168201915b5050505050815260200160098201805480602002602001604051908101604052809291908181526020018280548015610ff157602002820191906000526020600020905b815481526020019060010190808311610fdd575b5050505050815250509050919050565b606060026000838152602001908152602001600020805461102190612633565b80601f016020809104026020016040519081016040528092919081815260200182805461104d90612633565b801561109a5780601f1061106f5761010080835404028352916020019161109a565b820191906000526020600020905b81548152906001019060200180831161107d57829003601f168201915b50505050509050919050565b60006040518061014001604052803373ffffffffffffffffffffffffffffffffffffffff1681526020018c8152602001838152602001898152602001888152602001878152602001861515815260200160008651116111145760405180602001604052806000815250611116565b855b81526020016000855111611139576040518060200160405280600081525061113b565b845b8152602001600067ffffffffffffffff81111561115b5761115a612239565b5b6040519080825280602002602001820160405280156111895781602001602082028036833780820191505090505b508152509050806000808c815260200190815260200160002060008201518160000160006101000a81548173ffffffffffffffffffffffffffffffffffffffff021916908373ffffffffffffffffffffffffffffffffffffffff16021790555060208201518160010190816111fe91906129bc565b50604082015181600201908161121491906129bc565b50606082015181600301908161122a91906129bc565b50608082015181600401908161124091906129bc565b5060a0820151816005015560c08201518160060160006101000a81548160ff02191690831515021790555060e082015181600701908161128091906129bc565b5061010082015181600801908161129791906129bc565b506101208201518160090190805190602001906112b5929190611b41565b5090505086600260008c815260200190815260200160002090816112d991906129bc565b5060038190806001815401808255809150506001900390600052602060002090600a020160009091909190915060008201518160000160006101000a81548173ffffffffffffffffffffffffffffffffffffffff021916908373ffffffffffffffffffffffffffffffffffffffff160217905550602082015181600101908161136291906129bc565b50604082015181600201908161137891906129bc565b50606082015181600301908161138e91906129bc565b5060808201518160040190816113a491906129bc565b5060a0820151816005015560c08201518160060160006101000a81548160ff02191690831515021790555060e08201518160070190816113e491906129bc565b506101008201518160080190816113fb91906129bc565b50610120820151816009019080519060200190611419929190611b41565b505050611426898b6119a3565b5050505050505050505050565b6104fb600160003373ffffffffffffffffffffffffffffffffffffffff1673ffffffffffffffffffffffffffffffffffffffff168152602001908152602001600020600001819055506103e8600160003373ffffffffffffffffffffffffffffffffffffffff1673ffffffffffffffffffffffffffffffffffffffff1681526020019081526020016000206001018190555060018060003373ffffffffffffffffffffffffffffffffffffffff1673ffffffffffffffffffffffffffffffffffffffff16815260200190815260200160002060020160006101000a81548160ff021916908315150217905550565b60006020528060005260406000206000915090508060000160009054906101000a900473ffffffffffffffffffffffffffffffffffffffff169080600101805461156a90612633565b80601f016020809104026020016040519081016040528092919081815260200182805461159690612633565b80156115e35780601f106115b8576101008083540402835291602001916115e3565b820191906000526020600020905b8154815290600101906020018083116115c657829003601f168201915b5050505050908060020180546115f890612633565b80601f016020809104026020016040519081016040528092919081815260200182805461162490612633565b80156116715780601f1061164657610100808354040283529160200191611671565b820191906000526020600020905b81548152906001019060200180831161165457829003601f168201915b50505050509080600301805461168690612633565b80601f01602080910402602001604051908101604052809291908181526020018280546116b290612633565b80156116ff5780601f106116d4576101008083540402835291602001916116ff565b820191906000526020600020905b8154815290600101906020018083116116e257829003601f168201915b50505050509080600401805461171490612633565b80601f016020809104026020016040519081016040528092919081815260200182805461174090612633565b801561178d5780601f106117625761010080835404028352916020019161178d565b820191906000526020600020905b81548152906001019060200180831161177057829003601f168201915b5050505050908060050154908060060160009054906101000a900460ff16908060070180546117bb90612633565b80601f01602080910402602001604051908101604052809291908181526020018280546117e790612633565b80156118345780601f1061180957610100808354040283529160200191611834565b820191906000526020600020905b81548152906001019060200180831161181757829003601f168201915b50505050509080600801805461184990612633565b80601f016020809104026020016040519081016040528092919081815260200182805461187590612633565b80156118c25780601f10611897576101008083540402835291602001916118c2565b820191906000526020600020905b8154815290600101906020018083116118a557829003601f168201915b5050505050905089565b60016020528060005260406000206000915090508060000154908060010154908060020160009054906101000a900460ff16905083565b6002602052806000526040600020600091509050805461192290612633565b80601f016020809104026020016040519081016040528092919081815260200182805461194e90612633565b801561199b5780601f106119705761010080835404028352916020019161199b565b820191906000526020600020905b81548152906001019060200180831161197e57829003601f168201915b505050505081565b6000808381526020019081526020016000206009018190806001815401808255809150506001900390600052602060002001600090919091909150555050565b6119eb611b8e565b600160003373ffffffffffffffffffffffffffffffffffffffff1673ffffffffffffffffffffffffffffffffffffffff16815260200190815260200160002060405180606001604052908160008201548152602001600182015481526020016002820160009054906101000a900460ff161515151581525050905090565b6060600080838152602001908152602001600020600901805480602002602001604051908101604052809291908181526020018280548015611aca57602002820191906000526020600020905b815481526020019060010190808311611ab6575b50505050509050919050565b604051806101400160405280600073ffffffffffffffffffffffffffffffffffffffff16815260200160608152602001606081526020016060815260200160608152602001600081526020016000151581526020016060815260200160608152602001606081525090565b828054828255906000526020600020908101928215611b7d579160200282015b82811115611b7c578251825591602001919060010190611b61565b5b509050611b8a9190611bb1565b5090565b604051806060016040528060008152602001600081526020016000151581525090565b5b80821115611bca576000816000905550600101611bb2565b5090565b6000604051905090565b600080fd5b600080fd5b6000819050919050565b611bf581611be2565b8114611c0057600080fd5b50565b600081359050611c1281611bec565b92915050565b600060208284031215611c2e57611c2d611bd8565b5b6000611c3c84828501611c03565b91505092915050565b600073ffffffffffffffffffffffffffffffffffffffff82169050919050565b6000611c7082611c45565b9050919050565b611c8081611c65565b82525050565b600081519050919050565b600082825260208201905092915050565b60005b83811015611cc0578082015181840152602081019050611ca5565b60008484015250505050565b6000601f19601f8301169050919050565b6000611ce882611c86565b611cf28185611c91565b9350611d02818560208601611ca2565b611d0b81611ccc565b840191505092915050565b611d1f81611be2565b82525050565b60008115159050919050565b611d3a81611d25565b82525050565b600061012082019050611d56600083018c611c77565b8181036020830152611d68818b611cdd565b90508181036040830152611d7c818a611cdd565b90508181036060830152611d908189611cdd565b90508181036080830152611da48188611cdd565b9050611db360a0830187611d16565b611dc060c0830186611d31565b81810360e0830152611dd28185611cdd565b9050818103610100830152611de78184611cdd565b90509a9950505050505050505050565b60008060408385031215611e0e57611e0d611bd8565b5b6000611e1c85828601611c03565b9250506020611e2d85828601611c03565b9150509250929050565b600081519050919050565b600082825260208201905092915050565b6000819050602082019050919050565b611e6c81611be2565b82525050565b6000611e7e8383611e63565b60208301905092915050565b6000602082019050919050565b6000611ea282611e37565b611eac8185611e42565b9350611eb783611e53565b8060005b83811015611ee8578151611ecf8882611e72565b9750611eda83611e8a565b925050600181019050611ebb565b5085935050505092915050565b60006020820190508181036000830152611f0f8184611e97565b905092915050565b600081519050919050565b600082825260208201905092915050565b6000819050602082019050919050565b600082825260208201905092915050565b6000611f5f82611c86565b611f698185611f43565b9350611f79818560208601611ca2565b611f8281611ccc565b840191505092915050565b6000611f998383611f54565b905092915050565b6000602082019050919050565b6000611fb982611f17565b611fc38185611f22565b935083602082028501611fd585611f33565b8060005b858110156120115784840389528151611ff28582611f8d565b9450611ffd83611fa1565b925060208a01995050600181019050611fd9565b50829750879550505050505092915050565b6000604082019050818103600083015261203d8185611e97565b905081810360208301526120518184611fae565b90509392505050565b61206381611c65565b82525050565b61207281611d25565b82525050565b600082825260208201905092915050565b600061209482611e37565b61209e8185612078565b93506120a983611e53565b8060005b838110156120da5781516120c18882611e72565b97506120cc83611e8a565b9250506001810190506120ad565b5085935050505092915050565b600061014083016000830151612100600086018261205a565b50602083015184820360208601526121188282611f54565b915050604083015184820360408601526121328282611f54565b9150506060830151848203606086015261214c8282611f54565b915050608083015184820360808601526121668282611f54565b91505060a083015161217b60a0860182611e63565b5060c083015161218e60c0860182612069565b5060e083015184820360e08601526121a68282611f54565b9150506101008301518482036101008601526121c28282611f54565b9150506101208301518482036101208601526121de8282612089565b9150508091505092915050565b6000602082019050818103600083015261220581846120e7565b905092915050565b600060208201905081810360008301526122278184611cdd565b905092915050565b600080fd5b600080fd5b7f4e487b7100000000000000000000000000000000000000000000000000000000600052604160045260246000fd5b61227182611ccc565b810181811067ffffffffffffffff821117156122905761228f612239565b5b80604052505050565b60006122a3611bce565b90506122af8282612268565b919050565b600067ffffffffffffffff8211156122cf576122ce612239565b5b6122d882611ccc565b9050602081019050919050565b82818337600083830152505050565b6000612307612302846122b4565b612299565b90508281526020810184848401111561232357612322612234565b5b61232e8482856122e5565b509392505050565b600082601f83011261234b5761234a61222f565b5b813561235b8482602086016122f4565b91505092915050565b61236d81611d25565b811461237857600080fd5b50565b60008135905061238a81612364565b92915050565b6000806000806000806000806000806101408b8d0312156123b4576123b3611bd8565b5b60008b013567ffffffffffffffff8111156123d2576123d1611bdd565b5b6123de8d828e01612336565b9a505060206123ef8d828e01611c03565b99505060406124008d828e01611c03565b98505060608b013567ffffffffffffffff81111561242157612420611bdd565b5b61242d8d828e01612336565b97505060808b013567ffffffffffffffff81111561244e5761244d611bdd565b5b61245a8d828e01612336565b96505060a061246b8d828e01611c03565b95505060c061247c8d828e0161237b565b94505060e08b013567ffffffffffffffff81111561249d5761249c611bdd565b5b6124a98d828e01612336565b9350506101008b013567ffffffffffffffff8111156124cb576124ca611bdd565b5b6124d78d828e01612336565b9250506101208b013567ffffffffffffffff8111156124f9576124f8611bdd565b5b6125058d828e01612336565b9150509295989b9194979a5092959850565b61252081611c65565b811461252b57600080fd5b50565b60008135905061253d81612517565b92915050565b60006020828403121561255957612558611bd8565b5b60006125678482850161252e565b91505092915050565b60006060820190506125856000830186611d16565b6125926020830185611d16565b61259f6040830184611d31565b949350505050565b6060820160008201516125bd6000850182611e63565b5060208201516125d06020850182611e63565b5060408201516125e36040850182612069565b50505050565b60006060820190506125fe60008301846125a7565b92915050565b7f4e487b7100000000000000000000000000000000000000000000000000000000600052602260045260246000fd5b6000600282049050600182168061264b57607f821691505b60208210810361265e5761265d612604565b5b50919050565b6000819050919050565b61267f61267a82611be2565b612664565b82525050565b60008160601b9050919050565b600061269d82612685565b9050919050565b60006126af82612692565b9050919050565b6126c76126c282611c65565b6126a4565b82525050565b60006126d9828661266e565b6020820191506126e982856126b6565b6014820191506126f9828461266e565b602082019150819050949350505050565b7f4e487b7100000000000000000000000000000000000000000000000000000000600052601260045260246000fd5b600061274482611be2565b915061274f83611be2565b92508261275f5761275e61270a565b5b828206905092915050565b7f4e487b7100000000000000000000000000000000000000000000000000000000600052603260045260246000fd5b7f4e487b7100000000000000000000000000000000000000000000000000000000600052601160045260246000fd5b60006127d382611be2565b91507fffffffffffffffffffffffffffffffffffffffffffffffffffffffffffffffff820361280557612804612799565b5b600182019050919050565b60008190508160005260206000209050919050565b60006020601f8301049050919050565b600082821b905092915050565b6000600883026128727fffffffffffffffffffffffffffffffffffffffffffffffffffffffffffffffff82612835565b61287c8683612835565b95508019841693508086168417925050509392505050565b6000819050919050565b60006128b96128b46128af84611be2565b612894565b611be2565b9050919050565b6000819050919050565b6128d38361289e565b6128e76128df826128c0565b848454612842565b825550505050565b600090565b6128fc6128ef565b6129078184846128ca565b505050565b5b8181101561292b576129206000826128f4565b60018101905061290d565b5050565b601f8211156129705761294181612810565b61294a84612825565b81016020851015612959578190505b61296d61296585612825565b83018261290c565b50505b505050565b600082821c905092915050565b600061299360001984600802612975565b1980831691505092915050565b60006129ac8383612982565b9150826002028217905092915050565b6129c582611c86565b67ffffffffffffffff8111156129de576129dd612239565b5b6129e88254612633565b6129f382828561292f565b600060209050601f831160018114612a265760008415612a14578287015190505b612a1e85826129a0565b865550612a86565b601f198416612a3486612810565b60005b82811015612a5c57848901518255600182019150602085019450602081019050612a37565b86831015612a795784890151612a75601f891682612982565b8355505b6001600288020188555050505b50505050505056fea26469706673582212208f0e9b3d9a7cbef6d414504d2177dd182177dfd3741408e63003c337b195a70764736f6c6343000812003368747470733a2f2f692e736561646e2e696f2f6761652f4c504d65764f7a394f45374f542d4868736b434a33683666414957476d445f613756493878553563593656625f6169336c6c7247626165346b5a34795630324b6e5a4f4d2d78636a516f6234456b6a6147686e6572655a427a594a5f37614762486a547753513f773d353030266175746f3d666f726d617468747470733a2f2f7468756d622e61632d696c6c7573742e636f6d2f63662f63663565383039343762633837336561356365313438393436376332363161325f772e6a706567",
  "linkReferences": {},
  "deployedLinkReferences": {}
}