{
  "_format": "hh-sol-artifact-1",
  "contractName": "FoteisonGame",
  "sourceName": "contracts/FoteisonGame.sol",
  "abi": [
    {
      "inputs": [],
      "stateMutability": "nonpayable",
      "type": "constructor"
    },
    {
      "anonymous": false,
      "inputs": [],
      "name": "InsufficientBalance",
      "type": "event"
    },
    {
      "anonymous": false,
      "inputs": [],
      "name": "NoConnectedSquares",
      "type": "event"
    },
    {
      "anonymous": false,
      "inputs": [
        {
          "indexed": false,
          "internalType": "uint256[]",
          "name": "selectedSquareIds",
          "type": "uint256[]"
        }
      ],
      "name": "SquareSelected",
      "type": "event"
    },
    {
      "anonymous": false,
      "inputs": [
        {
          "indexed": false,
          "internalType": "uint256",
          "name": "newUserBalance",
          "type": "uint256"
        }
      ],
      "name": "UserBalanceChanged",
      "type": "event"
    },
    {
      "inputs": [],
      "name": "backToStart",
      "outputs": [],
      "stateMutability": "nonpayable",
      "type": "function"
    },
    {
      "inputs": [
        {
          "internalType": "string",
          "name": "_createrENS",
          "type": "string"
        },
        {
          "internalType": "uint256",
          "name": "_squareId",
          "type": "uint256"
        },
        {
          "internalType": "uint256",
          "name": "_backendSquareId",
          "type": "uint256"
        },
        {
          "internalType": "string",
          "name": "_squareDescription",
          "type": "string"
        },
        {
          "internalType": "string",
          "name": "_squareNftURL",
          "type": "string"
        },
        {
          "internalType": "uint256",
          "name": "_squareBalance",
          "type": "uint256"
        },
        {
          "internalType": "bool",
          "name": "_IsBalanceAdd",
          "type": "bool"
        },
        {
          "internalType": "string",
          "name": "_questContractAddress",
          "type": "string"
        },
        {
          "internalType": "string",
          "name": "_questDescription",
          "type": "string"
        },
        {
          "internalType": "string",
          "name": "_createrIcon",
          "type": "string"
        }
      ],
      "name": "createSquare",
      "outputs": [],
      "stateMutability": "nonpayable",
      "type": "function"
    },
    {
      "inputs": [],
      "name": "createUser",
      "outputs": [
        {
          "internalType": "uint256",
          "name": "squareId",
          "type": "uint256"
        },
        {
          "internalType": "uint256",
          "name": "userBalance",
          "type": "uint256"
        },
        {
          "internalType": "bool",
          "name": "userQuestStatus",
          "type": "bool"
        }
      ],
      "stateMutability": "nonpayable",
      "type": "function"
    },
    {
      "inputs": [
        {
          "internalType": "uint256",
          "name": "squareId",
          "type": "uint256"
        }
      ],
      "name": "getAdjacentSquareIds",
      "outputs": [
        {
          "internalType": "uint256[]",
          "name": "",
          "type": "uint256[]"
        }
      ],
      "stateMutability": "view",
      "type": "function"
    },
    {
      "inputs": [],
      "name": "getAllSquareNftURLs",
      "outputs": [
        {
          "internalType": "uint256[]",
          "name": "",
          "type": "uint256[]"
        },
        {
          "internalType": "string[]",
          "name": "",
          "type": "string[]"
        }
      ],
      "stateMutability": "view",
      "type": "function"
    },
    {
      "inputs": [
        {
          "internalType": "uint256",
          "name": "squareId",
          "type": "uint256"
        }
      ],
      "name": "getSquare",
      "outputs": [
        {
          "components": [
            {
              "internalType": "address",
              "name": "createrAddress",
              "type": "address"
            },
            {
              "internalType": "string",
              "name": "createrENS",
              "type": "string"
            },
            {
              "internalType": "string",
              "name": "createrIcon",
              "type": "string"
            },
            {
              "internalType": "string",
              "name": "squareDescription",
              "type": "string"
            },
            {
              "internalType": "string",
              "name": "squareNftURL",
              "type": "string"
            },
            {
              "internalType": "uint256",
              "name": "squareBalance",
              "type": "uint256"
            },
            {
              "internalType": "bool",
              "name": "IsBalanceAdd",
              "type": "bool"
            },
            {
              "internalType": "string",
              "name": "questContractAddress",
              "type": "string"
            },
            {
              "internalType": "string",
              "name": "questDescription",
              "type": "string"
            },
            {
              "internalType": "uint256[]",
              "name": "adjacentSquareIds",
              "type": "uint256[]"
            }
          ],
          "internalType": "struct FoteisonGame.Square",
          "name": "",
          "type": "tuple"
        }
      ],
      "stateMutability": "view",
      "type": "function"
    },
    {
      "inputs": [
        {
          "internalType": "uint256",
          "name": "squareId",
          "type": "uint256"
        }
      ],
      "name": "getSquareNftURL",
      "outputs": [
        {
          "internalType": "string",
          "name": "",
          "type": "string"
        }
      ],
      "stateMutability": "view",
      "type": "function"
    },
    {
      "inputs": [
        {
          "internalType": "uint256",
          "name": "_diceNumber",
          "type": "uint256"
        }
      ],
      "name": "moveUser",
      "outputs": [],
      "stateMutability": "nonpayable",
      "type": "function"
    },
    {
      "inputs": [
        {
          "internalType": "uint256",
          "name": "",
          "type": "uint256"
        }
      ],
      "name": "squareIdToSquare",
      "outputs": [
        {
          "internalType": "address",
          "name": "createrAddress",
          "type": "address"
        },
        {
          "internalType": "string",
          "name": "createrENS",
          "type": "string"
        },
        {
          "internalType": "string",
          "name": "createrIcon",
          "type": "string"
        },
        {
          "internalType": "string",
          "name": "squareDescription",
          "type": "string"
        },
        {
          "internalType": "string",
          "name": "squareNftURL",
          "type": "string"
        },
        {
          "internalType": "uint256",
          "name": "squareBalance",
          "type": "uint256"
        },
        {
          "internalType": "bool",
          "name": "IsBalanceAdd",
          "type": "bool"
        },
        {
          "internalType": "string",
          "name": "questContractAddress",
          "type": "string"
        },
        {
          "internalType": "string",
          "name": "questDescription",
          "type": "string"
        }
      ],
      "stateMutability": "view",
      "type": "function"
    },
    {
      "inputs": [
        {
          "internalType": "uint256",
          "name": "",
          "type": "uint256"
        }
      ],
      "name": "squareIdToSquareNftURL",
      "outputs": [
        {
          "internalType": "string",
          "name": "",
          "type": "string"
        }
      ],
      "stateMutability": "view",
      "type": "function"
    },
    {
      "inputs": [
        {
          "internalType": "uint256",
          "name": "",
          "type": "uint256"
        }
      ],
      "name": "squares",
      "outputs": [
        {
          "internalType": "address",
          "name": "createrAddress",
          "type": "address"
        },
        {
          "internalType": "string",
          "name": "createrENS",
          "type": "string"
        },
        {
          "internalType": "string",
          "name": "createrIcon",
          "type": "string"
        },
        {
          "internalType": "string",
          "name": "squareDescription",
          "type": "string"
        },
        {
          "internalType": "string",
          "name": "squareNftURL",
          "type": "string"
        },
        {
          "internalType": "uint256",
          "name": "squareBalance",
          "type": "uint256"
        },
        {
          "internalType": "bool",
          "name": "IsBalanceAdd",
          "type": "bool"
        },
        {
          "internalType": "string",
          "name": "questContractAddress",
          "type": "string"
        },
        {
          "internalType": "string",
          "name": "questDescription",
          "type": "string"
        }
      ],
      "stateMutability": "view",
      "type": "function"
    },
    {
      "inputs": [
        {
          "internalType": "uint256",
          "name": "_backendSquareId",
          "type": "uint256"
        },
        {
          "internalType": "uint256",
          "name": "_squareId",
          "type": "uint256"
        }
      ],
      "name": "updateAdjacentSquareIds",
      "outputs": [],
      "stateMutability": "nonpayable",
      "type": "function"
    },
    {
      "inputs": [
        {
          "internalType": "address",
          "name": "",
          "type": "address"
        }
      ],
      "name": "users",
      "outputs": [
        {
          "internalType": "uint256",
          "name": "squareId",
          "type": "uint256"
        },
        {
          "internalType": "uint256",
          "name": "userBalance",
          "type": "uint256"
        },
        {
          "internalType": "bool",
          "name": "userQuestStatus",
          "type": "bool"
        }
      ],
      "stateMutability": "view",
      "type": "function"
    }
  ],
  "bytecode": "0x60806040523480156200001157600080fd5b50620000f16040518060400160405280600c81526020017f73686572316f636b2e65746800000000000000000000000000000000000000008152506104fb66038d7ea4c680006040518060400160405280601881526020017f4865726520697320746865207374617274207371756172650000000000000000815250604051806080016040528060468152602001620035ed604691396000600160405180602001604052806000815250604051806020016040528060008152506040518060c00160405280608f81526020016200355e608f91396200013560201b60201c565b604051806080016040528060468152602001620035ed60469139600260006104fb815260200190815260200160002090816200012e91906200081b565b5062000902565b60006040518061014001604052803373ffffffffffffffffffffffffffffffffffffffff1681526020018c815260200183815260200189815260200188815260200187815260200186151581526020016000865111620001a55760405180602001604052806000815250620001a7565b855b81526020016000855111620001cc5760405180602001604052806000815250620001ce565b845b8152602001600067ffffffffffffffff811115620001f157620001f0620005ac565b5b604051908082528060200260200182016040528015620002205781602001602082028036833780820191505090505b508152509050806000808c815260200190815260200160002060008201518160000160006101000a81548173ffffffffffffffffffffffffffffffffffffffff021916908373ffffffffffffffffffffffffffffffffffffffff16021790555060208201518160010190816200029791906200081b565b506040820151816002019081620002af91906200081b565b506060820151816003019081620002c791906200081b565b506080820151816004019081620002df91906200081b565b5060a0820151816005015560c08201518160060160006101000a81548160ff02191690831515021790555060e08201518160070190816200032191906200081b565b506101008201518160080190816200033a91906200081b565b506101208201518160090190805190602001906200035a92919062000530565b5090505086600260008c815260200190815260200160002090816200038091906200081b565b5060038190806001815401808255809150506001900390600052602060002090600a020160009091909190915060008201518160000160006101000a81548173ffffffffffffffffffffffffffffffffffffffff021916908373ffffffffffffffffffffffffffffffffffffffff16021790555060208201518160010190816200040b91906200081b565b5060408201518160020190816200042391906200081b565b5060608201518160030190816200043b91906200081b565b5060808201518160040190816200045391906200081b565b5060a0820151816005015560c08201518160060160006101000a81548160ff02191690831515021790555060e08201518160070190816200049591906200081b565b50610100820151816008019081620004ae91906200081b565b50610120820151816009019080519060200190620004ce92919062000530565b505050620004e3898b620004f060201b60201c565b5050505050505050505050565b6000808381526020019081526020016000206009018190806001815401808255809150506001900390600052602060002001600090919091909150555050565b8280548282559060005260206000209081019282156200056f579160200282015b828111156200056e57825182559160200191906001019062000551565b5b5090506200057e919062000582565b5090565b5b808211156200059d57600081600090555060010162000583565b5090565b600081519050919050565b7f4e487b7100000000000000000000000000000000000000000000000000000000600052604160045260246000fd5b7f4e487b7100000000000000000000000000000000000000000000000000000000600052602260045260246000fd5b600060028204905060018216806200062357607f821691505b602082108103620006395762000638620005db565b5b50919050565b60008190508160005260206000209050919050565b60006020601f8301049050919050565b600082821b905092915050565b600060088302620006a37fffffffffffffffffffffffffffffffffffffffffffffffffffffffffffffffff8262000664565b620006af868362000664565b95508019841693508086168417925050509392505050565b6000819050919050565b6000819050919050565b6000620006fc620006f6620006f084620006c7565b620006d1565b620006c7565b9050919050565b6000819050919050565b6200071883620006db565b62000730620007278262000703565b84845462000671565b825550505050565b600090565b6200074762000738565b620007548184846200070d565b505050565b5b818110156200077c57620007706000826200073d565b6001810190506200075a565b5050565b601f821115620007cb5762000795816200063f565b620007a08462000654565b81016020851015620007b0578190505b620007c8620007bf8562000654565b83018262000759565b50505b505050565b600082821c905092915050565b6000620007f060001984600802620007d0565b1980831691505092915050565b60006200080b8383620007dd565b9150826002028217905092915050565b6200082682620005a1565b67ffffffffffffffff811115620008425762000841620005ac565b5b6200084e82546200060a565b6200085b82828562000780565b600060209050601f8311600181146200089357600084156200087e578287015190505b6200088a8582620007fd565b865550620008fa565b601f198416620008a3866200063f565b60005b82811015620008cd57848901518255600182019150602085019450602081019050620008a6565b86831015620008ed5784890151620008e9601f891682620007dd565b8355505b6001600288020188555050505b505050505050565b612c4c80620009126000396000f3fe608060405234801561001057600080fd5b50600436106100cf5760003560e01c80637fd3f4451161008c578063a87430ba11610066578063a87430ba14610225578063b81ad3d814610257578063d0928f7714610287578063f5f1fcbb146102a3576100cf565b80637fd3f445146101c757806383df62ed146101e35780639509af03146101ed576100cf565b80631d1d15d4146100d457806325ad91ce1461010c578063303819a01461012c578063479f00901461014b578063546728a91461017b57806369634ada14610197575b600080fd5b6100ee60048036038101906100e99190611dfd565b6102d3565b60405161010399989796959493929190611f25565b60405180910390f35b61011461068e565b60405161012393929190611fdc565b60405180910390f35b61013461085f565b6040516101429291906121dd565b60405180910390f35b61016560048036038101906101609190611dfd565b610b66565b60405161017291906123a5565b60405180910390f35b61019560048036038101906101909190611dfd565b610fd2565b005b6101b160048036038101906101ac9190611dfd565b611290565b6040516101be91906123c7565b60405180910390f35b6101e160048036038101906101dc919061254a565b611335565b005b6101eb6116c2565b005b61020760048036038101906102029190611dfd565b6117af565b60405161021c99989796959493929190611f25565b60405180910390f35b61023f600480360381019061023a91906126fd565b611b5a565b60405161024e93929190611fdc565b60405180910390f35b610271600480360381019061026c9190611dfd565b611b91565b60405161027e91906123c7565b60405180910390f35b6102a1600480360381019061029c919061272a565b611c31565b005b6102bd60048036038101906102b89190611dfd565b611c71565b6040516102ca919061276a565b60405180910390f35b600381815481106102e357600080fd5b90600052602060002090600a02016000915090508060000160009054906101000a900473ffffffffffffffffffffffffffffffffffffffff169080600101805461032c906127bb565b80601f0160208091040260200160405190810160405280929190818152602001828054610358906127bb565b80156103a55780601f1061037a576101008083540402835291602001916103a5565b820191906000526020600020905b81548152906001019060200180831161038857829003601f168201915b5050505050908060020180546103ba906127bb565b80601f01602080910402602001604051908101604052809291908181526020018280546103e6906127bb565b80156104335780601f1061040857610100808354040283529160200191610433565b820191906000526020600020905b81548152906001019060200180831161041657829003601f168201915b505050505090806003018054610448906127bb565b80601f0160208091040260200160405190810160405280929190818152602001828054610474906127bb565b80156104c15780601f10610496576101008083540402835291602001916104c1565b820191906000526020600020905b8154815290600101906020018083116104a457829003601f168201915b5050505050908060040180546104d6906127bb565b80601f0160208091040260200160405190810160405280929190818152602001828054610502906127bb565b801561054f5780601f106105245761010080835404028352916020019161054f565b820191906000526020600020905b81548152906001019060200180831161053257829003601f168201915b5050505050908060050154908060060160009054906101000a900460ff169080600701805461057d906127bb565b80601f01602080910402602001604051908101604052809291908181526020018280546105a9906127bb565b80156105f65780601f106105cb576101008083540402835291602001916105f6565b820191906000526020600020905b8154815290600101906020018083116105d957829003601f168201915b50505050509080600801805461060b906127bb565b80601f0160208091040260200160405190810160405280929190818152602001828054610637906127bb565b80156106845780601f1061065957610100808354040283529160200191610684565b820191906000526020600020905b81548152906001019060200180831161066757829003601f168201915b5050505050905089565b600080600080600160003373ffffffffffffffffffffffffffffffffffffffff1673ffffffffffffffffffffffffffffffffffffffff16815260200190815260200160002060000154146107bd57600160003373ffffffffffffffffffffffffffffffffffffffff1673ffffffffffffffffffffffffffffffffffffffff16815260200190815260200160002060000154600160003373ffffffffffffffffffffffffffffffffffffffff1673ffffffffffffffffffffffffffffffffffffffff16815260200190815260200160002060010154600160003373ffffffffffffffffffffffffffffffffffffffff1673ffffffffffffffffffffffffffffffffffffffff16815260200190815260200160002060020160009054906101000a900460ff1692509250925061085a565b60006040518060600160405280600081526020016000815260200160011515815250905080600160003373ffffffffffffffffffffffffffffffffffffffff1673ffffffffffffffffffffffffffffffffffffffff168152602001908152602001600020600082015181600001556020820151816001015560408201518160020160006101000a81548160ff021916908315150217905550905050505b909192565b60608060006109c467ffffffffffffffff8111156108805761087f6123f3565b5b6040519080825280602002602001820160405280156108ae5781602001602082028036833780820191505090505b50905060006109c467ffffffffffffffff8111156108cf576108ce6123f3565b5b60405190808252806020026020018201604052801561090257816020015b60608152602001906001900390816108ed5790505b5090506000805b6109c4811015610a255760008190506000600260008381526020019081526020016000208054610938906127bb565b80601f0160208091040260200160405190810160405280929190818152602001828054610964906127bb565b80156109b15780601f10610986576101008083540402835291602001916109b1565b820191906000526020600020905b81548152906001019060200180831161099457829003601f168201915b50505050509050600081511115610a1057818685815181106109d6576109d56127ec565b5b602002602001018181525050808585815181106109f6576109f56127ec565b5b60200260200101819052508380610a0c9061284a565b9450505b50508080610a1d9061284a565b915050610909565b5060008167ffffffffffffffff811115610a4257610a416123f3565b5b604051908082528060200260200182016040528015610a705781602001602082028036833780820191505090505b50905060008267ffffffffffffffff811115610a8f57610a8e6123f3565b5b604051908082528060200260200182016040528015610ac257816020015b6060815260200190600190039081610aad5790505b50905060005b83811015610b5657858181518110610ae357610ae26127ec565b5b6020026020010151838281518110610afe57610afd6127ec565b5b602002602001018181525050848181518110610b1d57610b1c6127ec565b5b6020026020010151828281518110610b3857610b376127ec565b5b60200260200101819052508080610b4e9061284a565b915050610ac8565b5081819650965050505050509091565b610b6e611cde565b600080838152602001908152602001600020604051806101400160405290816000820160009054906101000a900473ffffffffffffffffffffffffffffffffffffffff1673ffffffffffffffffffffffffffffffffffffffff1673ffffffffffffffffffffffffffffffffffffffff168152602001600182018054610bf2906127bb565b80601f0160208091040260200160405190810160405280929190818152602001828054610c1e906127bb565b8015610c6b5780601f10610c4057610100808354040283529160200191610c6b565b820191906000526020600020905b815481529060010190602001808311610c4e57829003601f168201915b50505050508152602001600282018054610c84906127bb565b80601f0160208091040260200160405190810160405280929190818152602001828054610cb0906127bb565b8015610cfd5780601f10610cd257610100808354040283529160200191610cfd565b820191906000526020600020905b815481529060010190602001808311610ce057829003601f168201915b50505050508152602001600382018054610d16906127bb565b80601f0160208091040260200160405190810160405280929190818152602001828054610d42906127bb565b8015610d8f5780601f10610d6457610100808354040283529160200191610d8f565b820191906000526020600020905b815481529060010190602001808311610d7257829003601f168201915b50505050508152602001600482018054610da8906127bb565b80601f0160208091040260200160405190810160405280929190818152602001828054610dd4906127bb565b8015610e215780601f10610df657610100808354040283529160200191610e21565b820191906000526020600020905b815481529060010190602001808311610e0457829003601f168201915b50505050508152602001600582015481526020016006820160009054906101000a900460ff16151515158152602001600782018054610e5f906127bb565b80601f0160208091040260200160405190810160405280929190818152602001828054610e8b906127bb565b8015610ed85780601f10610ead57610100808354040283529160200191610ed8565b820191906000526020600020905b815481529060010190602001808311610ebb57829003601f168201915b50505050508152602001600882018054610ef1906127bb565b80601f0160208091040260200160405190810160405280929190818152602001828054610f1d906127bb565b8015610f6a5780601f10610f3f57610100808354040283529160200191610f6a565b820191906000526020600020905b815481529060010190602001808311610f4d57829003601f168201915b5050505050815260200160098201805480602002602001604051908101604052809291908181526020018280548015610fc257602002820191906000526020600020905b815481526020019060010190808311610fae575b5050505050815250509050919050565b6000600160003373ffffffffffffffffffffffffffffffffffffffff1673ffffffffffffffffffffffffffffffffffffffff168152602001908152602001600020600001549050600080600083815260200190815260200160002060090180548060200260200160405190810160405280929190818152602001828054801561107a57602002820191906000526020600020905b815481526020019060010190808311611066575b5050505050905060008367ffffffffffffffff81111561109d5761109c6123f3565b5b6040519080825280602002602001820160405280156110cb5781602001602082028036833780820191505090505b5090506000825103611108577fc88f78efb5ac85889bf8050572811f32eb30e97bab8264e76379820396abff5160405160405180910390a161128a565b60005b84811015611251576000835103611158577f47753d74fe6a602edb08f6ac34fd9e3aac7bdc8725260d91f8fae9b2c6f1c7ce8260405161114b919061276a565b60405180910390a161123e565b60008351423384604051602001611171939291906128fb565b6040516020818303038152906040528051906020012060001c6111949190612967565b905060008482815181106111ab576111aa6127ec565b5b60200260200101519050808484815181106111c9576111c86127ec565b5b60200260200101818152505060008082815260200190815260200160002060090180548060200260200160405190810160405280929190818152602001828054801561123457602002820191906000526020600020905b815481526020019060010190808311611220575b5050505050945050505b80806112499061284a565b91505061110b565b507f47753d74fe6a602edb08f6ac34fd9e3aac7bdc8725260d91f8fae9b2c6f1c7ce81604051611281919061276a565b60405180910390a15b50505050565b60606002600083815260200190815260200160002080546112b0906127bb565b80601f01602080910402602001604051908101604052809291908181526020018280546112dc906127bb565b80156113295780601f106112fe57610100808354040283529160200191611329565b820191906000526020600020905b81548152906001019060200180831161130c57829003601f168201915b50505050509050919050565b60006040518061014001604052803373ffffffffffffffffffffffffffffffffffffffff1681526020018c8152602001838152602001898152602001888152602001878152602001861515815260200160008651116113a357604051806020016040528060008152506113a5565b855b815260200160008551116113c857604051806020016040528060008152506113ca565b845b8152602001600067ffffffffffffffff8111156113ea576113e96123f3565b5b6040519080825280602002602001820160405280156114185781602001602082028036833780820191505090505b508152509050806000808c815260200190815260200160002060008201518160000160006101000a81548173ffffffffffffffffffffffffffffffffffffffff021916908373ffffffffffffffffffffffffffffffffffffffff160217905550602082015181600101908161148d9190612b44565b5060408201518160020190816114a39190612b44565b5060608201518160030190816114b99190612b44565b5060808201518160040190816114cf9190612b44565b5060a0820151816005015560c08201518160060160006101000a81548160ff02191690831515021790555060e082015181600701908161150f9190612b44565b506101008201518160080190816115269190612b44565b50610120820151816009019080519060200190611544929190611d49565b5090505086600260008c815260200190815260200160002090816115689190612b44565b5060038190806001815401808255809150506001900390600052602060002090600a020160009091909190915060008201518160000160006101000a81548173ffffffffffffffffffffffffffffffffffffffff021916908373ffffffffffffffffffffffffffffffffffffffff16021790555060208201518160010190816115f19190612b44565b5060408201518160020190816116079190612b44565b50606082015181600301908161161d9190612b44565b5060808201518160040190816116339190612b44565b5060a0820151816005015560c08201518160060160006101000a81548160ff02191690831515021790555060e08201518160070190816116739190612b44565b5061010082015181600801908161168a9190612b44565b506101208201518160090190805190602001906116a8929190611d49565b5050506116b5898b611c31565b5050505050505050505050565b6000600160003373ffffffffffffffffffffffffffffffffffffffff1673ffffffffffffffffffffffffffffffffffffffff168152602001908152602001600020600001819055506103e8600160003373ffffffffffffffffffffffffffffffffffffffff1673ffffffffffffffffffffffffffffffffffffffff1681526020019081526020016000206001018190555060018060003373ffffffffffffffffffffffffffffffffffffffff1673ffffffffffffffffffffffffffffffffffffffff16815260200190815260200160002060020160006101000a81548160ff021916908315150217905550565b60006020528060005260406000206000915090508060000160009054906101000a900473ffffffffffffffffffffffffffffffffffffffff16908060010180546117f8906127bb565b80601f0160208091040260200160405190810160405280929190818152602001828054611824906127bb565b80156118715780601f1061184657610100808354040283529160200191611871565b820191906000526020600020905b81548152906001019060200180831161185457829003601f168201915b505050505090806002018054611886906127bb565b80601f01602080910402602001604051908101604052809291908181526020018280546118b2906127bb565b80156118ff5780601f106118d4576101008083540402835291602001916118ff565b820191906000526020600020905b8154815290600101906020018083116118e257829003601f168201915b505050505090806003018054611914906127bb565b80601f0160208091040260200160405190810160405280929190818152602001828054611940906127bb565b801561198d5780601f106119625761010080835404028352916020019161198d565b820191906000526020600020905b81548152906001019060200180831161197057829003601f168201915b5050505050908060040180546119a2906127bb565b80601f01602080910402602001604051908101604052809291908181526020018280546119ce906127bb565b8015611a1b5780601f106119f057610100808354040283529160200191611a1b565b820191906000526020600020905b8154815290600101906020018083116119fe57829003601f168201915b5050505050908060050154908060060160009054906101000a900460ff1690806007018054611a49906127bb565b80601f0160208091040260200160405190810160405280929190818152602001828054611a75906127bb565b8015611ac25780601f10611a9757610100808354040283529160200191611ac2565b820191906000526020600020905b815481529060010190602001808311611aa557829003601f168201915b505050505090806008018054611ad7906127bb565b80601f0160208091040260200160405190810160405280929190818152602001828054611b03906127bb565b8015611b505780601f10611b2557610100808354040283529160200191611b50565b820191906000526020600020905b815481529060010190602001808311611b3357829003601f168201915b5050505050905089565b60016020528060005260406000206000915090508060000154908060010154908060020160009054906101000a900460ff16905083565b60026020528060005260406000206000915090508054611bb0906127bb565b80601f0160208091040260200160405190810160405280929190818152602001828054611bdc906127bb565b8015611c295780601f10611bfe57610100808354040283529160200191611c29565b820191906000526020600020905b815481529060010190602001808311611c0c57829003601f168201915b505050505081565b6000808381526020019081526020016000206009018190806001815401808255809150506001900390600052602060002001600090919091909150555050565b6060600080838152602001908152602001600020600901805480602002602001604051908101604052809291908181526020018280548015611cd257602002820191906000526020600020905b815481526020019060010190808311611cbe575b50505050509050919050565b604051806101400160405280600073ffffffffffffffffffffffffffffffffffffffff16815260200160608152602001606081526020016060815260200160608152602001600081526020016000151581526020016060815260200160608152602001606081525090565b828054828255906000526020600020908101928215611d85579160200282015b82811115611d84578251825591602001919060010190611d69565b5b509050611d929190611d96565b5090565b5b80821115611daf576000816000905550600101611d97565b5090565b6000604051905090565b600080fd5b600080fd5b6000819050919050565b611dda81611dc7565b8114611de557600080fd5b50565b600081359050611df781611dd1565b92915050565b600060208284031215611e1357611e12611dbd565b5b6000611e2184828501611de8565b91505092915050565b600073ffffffffffffffffffffffffffffffffffffffff82169050919050565b6000611e5582611e2a565b9050919050565b611e6581611e4a565b82525050565b600081519050919050565b600082825260208201905092915050565b60005b83811015611ea5578082015181840152602081019050611e8a565b60008484015250505050565b6000601f19601f8301169050919050565b6000611ecd82611e6b565b611ed78185611e76565b9350611ee7818560208601611e87565b611ef081611eb1565b840191505092915050565b611f0481611dc7565b82525050565b60008115159050919050565b611f1f81611f0a565b82525050565b600061012082019050611f3b600083018c611e5c565b8181036020830152611f4d818b611ec2565b90508181036040830152611f61818a611ec2565b90508181036060830152611f758189611ec2565b90508181036080830152611f898188611ec2565b9050611f9860a0830187611efb565b611fa560c0830186611f16565b81810360e0830152611fb78185611ec2565b9050818103610100830152611fcc8184611ec2565b90509a9950505050505050505050565b6000606082019050611ff16000830186611efb565b611ffe6020830185611efb565b61200b6040830184611f16565b949350505050565b600081519050919050565b600082825260208201905092915050565b6000819050602082019050919050565b61204881611dc7565b82525050565b600061205a838361203f565b60208301905092915050565b6000602082019050919050565b600061207e82612013565b612088818561201e565b93506120938361202f565b8060005b838110156120c45781516120ab888261204e565b97506120b683612066565b925050600181019050612097565b5085935050505092915050565b600081519050919050565b600082825260208201905092915050565b6000819050602082019050919050565b600082825260208201905092915050565b600061211982611e6b565b61212381856120fd565b9350612133818560208601611e87565b61213c81611eb1565b840191505092915050565b6000612153838361210e565b905092915050565b6000602082019050919050565b6000612173826120d1565b61217d81856120dc565b93508360208202850161218f856120ed565b8060005b858110156121cb57848403895281516121ac8582612147565b94506121b78361215b565b925060208a01995050600181019050612193565b50829750879550505050505092915050565b600060408201905081810360008301526121f78185612073565b9050818103602083015261220b8184612168565b90509392505050565b61221d81611e4a565b82525050565b61222c81611f0a565b82525050565b600082825260208201905092915050565b600061224e82612013565b6122588185612232565b93506122638361202f565b8060005b8381101561229457815161227b888261204e565b975061228683612066565b925050600181019050612267565b5085935050505092915050565b6000610140830160008301516122ba6000860182612214565b50602083015184820360208601526122d2828261210e565b915050604083015184820360408601526122ec828261210e565b91505060608301518482036060860152612306828261210e565b91505060808301518482036080860152612320828261210e565b91505060a083015161233560a086018261203f565b5060c083015161234860c0860182612223565b5060e083015184820360e0860152612360828261210e565b91505061010083015184820361010086015261237c828261210e565b9150506101208301518482036101208601526123988282612243565b9150508091505092915050565b600060208201905081810360008301526123bf81846122a1565b905092915050565b600060208201905081810360008301526123e18184611ec2565b905092915050565b600080fd5b600080fd5b7f4e487b7100000000000000000000000000000000000000000000000000000000600052604160045260246000fd5b61242b82611eb1565b810181811067ffffffffffffffff8211171561244a576124496123f3565b5b80604052505050565b600061245d611db3565b90506124698282612422565b919050565b600067ffffffffffffffff821115612489576124886123f3565b5b61249282611eb1565b9050602081019050919050565b82818337600083830152505050565b60006124c16124bc8461246e565b612453565b9050828152602081018484840111156124dd576124dc6123ee565b5b6124e884828561249f565b509392505050565b600082601f830112612505576125046123e9565b5b81356125158482602086016124ae565b91505092915050565b61252781611f0a565b811461253257600080fd5b50565b6000813590506125448161251e565b92915050565b6000806000806000806000806000806101408b8d03121561256e5761256d611dbd565b5b60008b013567ffffffffffffffff81111561258c5761258b611dc2565b5b6125988d828e016124f0565b9a505060206125a98d828e01611de8565b99505060406125ba8d828e01611de8565b98505060608b013567ffffffffffffffff8111156125db576125da611dc2565b5b6125e78d828e016124f0565b97505060808b013567ffffffffffffffff81111561260857612607611dc2565b5b6126148d828e016124f0565b96505060a06126258d828e01611de8565b95505060c06126368d828e01612535565b94505060e08b013567ffffffffffffffff81111561265757612656611dc2565b5b6126638d828e016124f0565b9350506101008b013567ffffffffffffffff81111561268557612684611dc2565b5b6126918d828e016124f0565b9250506101208b013567ffffffffffffffff8111156126b3576126b2611dc2565b5b6126bf8d828e016124f0565b9150509295989b9194979a5092959850565b6126da81611e4a565b81146126e557600080fd5b50565b6000813590506126f7816126d1565b92915050565b60006020828403121561271357612712611dbd565b5b6000612721848285016126e8565b91505092915050565b6000806040838503121561274157612740611dbd565b5b600061274f85828601611de8565b925050602061276085828601611de8565b9150509250929050565b600060208201905081810360008301526127848184612073565b905092915050565b7f4e487b7100000000000000000000000000000000000000000000000000000000600052602260045260246000fd5b600060028204905060018216806127d357607f821691505b6020821081036127e6576127e561278c565b5b50919050565b7f4e487b7100000000000000000000000000000000000000000000000000000000600052603260045260246000fd5b7f4e487b7100000000000000000000000000000000000000000000000000000000600052601160045260246000fd5b600061285582611dc7565b91507fffffffffffffffffffffffffffffffffffffffffffffffffffffffffffffffff82036128875761288661281b565b5b600182019050919050565b6000819050919050565b6128ad6128a882611dc7565b612892565b82525050565b60008160601b9050919050565b60006128cb826128b3565b9050919050565b60006128dd826128c0565b9050919050565b6128f56128f082611e4a565b6128d2565b82525050565b6000612907828661289c565b60208201915061291782856128e4565b601482019150612927828461289c565b602082019150819050949350505050565b7f4e487b7100000000000000000000000000000000000000000000000000000000600052601260045260246000fd5b600061297282611dc7565b915061297d83611dc7565b92508261298d5761298c612938565b5b828206905092915050565b60008190508160005260206000209050919050565b60006020601f8301049050919050565b600082821b905092915050565b6000600883026129fa7fffffffffffffffffffffffffffffffffffffffffffffffffffffffffffffffff826129bd565b612a0486836129bd565b95508019841693508086168417925050509392505050565b6000819050919050565b6000612a41612a3c612a3784611dc7565b612a1c565b611dc7565b9050919050565b6000819050919050565b612a5b83612a26565b612a6f612a6782612a48565b8484546129ca565b825550505050565b600090565b612a84612a77565b612a8f818484612a52565b505050565b5b81811015612ab357612aa8600082612a7c565b600181019050612a95565b5050565b601f821115612af857612ac981612998565b612ad2846129ad565b81016020851015612ae1578190505b612af5612aed856129ad565b830182612a94565b50505b505050565b600082821c905092915050565b6000612b1b60001984600802612afd565b1980831691505092915050565b6000612b348383612b0a565b9150826002028217905092915050565b612b4d82611e6b565b67ffffffffffffffff811115612b6657612b656123f3565b5b612b7082546127bb565b612b7b828285612ab7565b600060209050601f831160018114612bae5760008415612b9c578287015190505b612ba68582612b28565b865550612c0e565b601f198416612bbc86612998565b60005b82811015612be457848901518255600182019150602085019450602081019050612bbf565b86831015612c015784890151612bfd601f891682612b0a565b8355505b6001600288020188555050505b50505050505056fea2646970667358221220e12cc8bf70c2d98b178222fe74ee304c5e5729155c6262531b5da41e5a4dc7f464736f6c6343000812003368747470733a2f2f692e736561646e2e696f2f6761652f4c504d65764f7a394f45374f542d4868736b434a33683666414957476d445f613756493878553563593656625f6169336c6c7247626165346b5a34795630324b6e5a4f4d2d78636a516f6234456b6a6147686e6572655a427a594a5f37614762486a547753513f773d353030266175746f3d666f726d617468747470733a2f2f7468756d622e61632d696c6c7573742e636f6d2f63662f63663565383039343762633837336561356365313438393436376332363161325f772e6a706567",
  "linkReferences": {},
  "deployedLinkReferences": {}
}