{
  "_format": "hh-sol-artifact-1",
  "contractName": "FoteisonGame",
  "sourceName": "contracts/FoteisonGame.sol",
  "abi": [
    {
      "inputs": [],
      "stateMutability": "nonpayable",
      "type": "constructor"
    },
    {
      "anonymous": false,
      "inputs": [],
      "name": "InsufficientBalance",
      "type": "event"
    },
    {
      "anonymous": false,
      "inputs": [],
      "name": "NoConnectedSquares",
      "type": "event"
    },
    {
      "anonymous": false,
      "inputs": [
        {
          "indexed": false,
          "internalType": "uint256[]",
          "name": "selectedSquareIds",
          "type": "uint256[]"
        }
      ],
      "name": "SquareSelected",
      "type": "event"
    },
    {
      "anonymous": false,
      "inputs": [
        {
          "indexed": false,
          "internalType": "uint256",
          "name": "newUserBalance",
          "type": "uint256"
        }
      ],
      "name": "UserBalanceChanged",
      "type": "event"
    },
    {
      "inputs": [],
      "name": "backToStart",
      "outputs": [],
      "stateMutability": "nonpayable",
      "type": "function"
    },
    {
      "inputs": [
        {
          "internalType": "string",
          "name": "_createrENS",
          "type": "string"
        },
        {
          "internalType": "uint256",
          "name": "_squareId",
          "type": "uint256"
        },
        {
          "internalType": "uint256",
          "name": "_backendSquareId",
          "type": "uint256"
        },
        {
          "internalType": "string",
          "name": "_squareDescription",
          "type": "string"
        },
        {
          "internalType": "string",
          "name": "_squareNftURL",
          "type": "string"
        },
        {
          "internalType": "uint256",
          "name": "_squareBalance",
          "type": "uint256"
        },
        {
          "internalType": "bool",
          "name": "_IsBalanceAdd",
          "type": "bool"
        },
        {
          "internalType": "string",
          "name": "_questContractAddress",
          "type": "string"
        },
        {
          "internalType": "string",
          "name": "_questDescription",
          "type": "string"
        },
        {
          "internalType": "string",
          "name": "_createrIcon",
          "type": "string"
        }
      ],
      "name": "createSquare",
      "outputs": [],
      "stateMutability": "nonpayable",
      "type": "function"
    },
    {
      "inputs": [],
      "name": "createUser",
      "outputs": [
        {
          "internalType": "uint256",
          "name": "squareId",
          "type": "uint256"
        },
        {
          "internalType": "uint256",
          "name": "userBalance",
          "type": "uint256"
        },
        {
          "internalType": "bool",
          "name": "userQuestStatus",
          "type": "bool"
        }
      ],
      "stateMutability": "nonpayable",
      "type": "function"
    },
    {
      "inputs": [
        {
          "internalType": "uint256",
          "name": "squareId",
          "type": "uint256"
        }
      ],
      "name": "getSquare",
      "outputs": [
        {
          "components": [
            {
              "internalType": "address",
              "name": "createrAddress",
              "type": "address"
            },
            {
              "internalType": "string",
              "name": "createrENS",
              "type": "string"
            },
            {
              "internalType": "string",
              "name": "createrIcon",
              "type": "string"
            },
            {
              "internalType": "string",
              "name": "squareDescription",
              "type": "string"
            },
            {
              "internalType": "string",
              "name": "squareNftURL",
              "type": "string"
            },
            {
              "internalType": "uint256",
              "name": "squareBalance",
              "type": "uint256"
            },
            {
              "internalType": "bool",
              "name": "IsBalanceAdd",
              "type": "bool"
            },
            {
              "internalType": "string",
              "name": "questContractAddress",
              "type": "string"
            },
            {
              "internalType": "string",
              "name": "questDescription",
              "type": "string"
            },
            {
              "internalType": "uint256[]",
              "name": "adjacentSquareIds",
              "type": "uint256[]"
            }
          ],
          "internalType": "struct FoteisonGame.Square",
          "name": "",
          "type": "tuple"
        }
      ],
      "stateMutability": "view",
      "type": "function"
    },
    {
      "inputs": [
        {
          "internalType": "uint256",
          "name": "squareId",
          "type": "uint256"
        }
      ],
      "name": "getSquareNftURL",
      "outputs": [
        {
          "internalType": "string",
          "name": "",
          "type": "string"
        }
      ],
      "stateMutability": "view",
      "type": "function"
    },
    {
      "inputs": [
        {
          "internalType": "uint256",
          "name": "_diceNumber",
          "type": "uint256"
        }
      ],
      "name": "moveUser",
      "outputs": [],
      "stateMutability": "nonpayable",
      "type": "function"
    },
    {
      "inputs": [
        {
          "internalType": "uint256",
          "name": "",
          "type": "uint256"
        }
      ],
      "name": "squareIdToSquare",
      "outputs": [
        {
          "internalType": "address",
          "name": "createrAddress",
          "type": "address"
        },
        {
          "internalType": "string",
          "name": "createrENS",
          "type": "string"
        },
        {
          "internalType": "string",
          "name": "createrIcon",
          "type": "string"
        },
        {
          "internalType": "string",
          "name": "squareDescription",
          "type": "string"
        },
        {
          "internalType": "string",
          "name": "squareNftURL",
          "type": "string"
        },
        {
          "internalType": "uint256",
          "name": "squareBalance",
          "type": "uint256"
        },
        {
          "internalType": "bool",
          "name": "IsBalanceAdd",
          "type": "bool"
        },
        {
          "internalType": "string",
          "name": "questContractAddress",
          "type": "string"
        },
        {
          "internalType": "string",
          "name": "questDescription",
          "type": "string"
        }
      ],
      "stateMutability": "view",
      "type": "function"
    },
    {
      "inputs": [
        {
          "internalType": "uint256",
          "name": "",
          "type": "uint256"
        }
      ],
      "name": "squareIdToSquareNftURL",
      "outputs": [
        {
          "internalType": "string",
          "name": "",
          "type": "string"
        }
      ],
      "stateMutability": "view",
      "type": "function"
    },
    {
      "inputs": [
        {
          "internalType": "uint256",
          "name": "",
          "type": "uint256"
        }
      ],
      "name": "squares",
      "outputs": [
        {
          "internalType": "address",
          "name": "createrAddress",
          "type": "address"
        },
        {
          "internalType": "string",
          "name": "createrENS",
          "type": "string"
        },
        {
          "internalType": "string",
          "name": "createrIcon",
          "type": "string"
        },
        {
          "internalType": "string",
          "name": "squareDescription",
          "type": "string"
        },
        {
          "internalType": "string",
          "name": "squareNftURL",
          "type": "string"
        },
        {
          "internalType": "uint256",
          "name": "squareBalance",
          "type": "uint256"
        },
        {
          "internalType": "bool",
          "name": "IsBalanceAdd",
          "type": "bool"
        },
        {
          "internalType": "string",
          "name": "questContractAddress",
          "type": "string"
        },
        {
          "internalType": "string",
          "name": "questDescription",
          "type": "string"
        }
      ],
      "stateMutability": "view",
      "type": "function"
    },
    {
      "inputs": [
        {
          "internalType": "uint256",
          "name": "_backendSquareId",
          "type": "uint256"
        },
        {
          "internalType": "uint256",
          "name": "_squareId",
          "type": "uint256"
        }
      ],
      "name": "updateAdjacentSquareIds",
      "outputs": [],
      "stateMutability": "nonpayable",
      "type": "function"
    },
    {
      "inputs": [
        {
          "internalType": "address",
          "name": "",
          "type": "address"
        }
      ],
      "name": "users",
      "outputs": [
        {
          "internalType": "uint256",
          "name": "squareId",
          "type": "uint256"
        },
        {
          "internalType": "uint256",
          "name": "userBalance",
          "type": "uint256"
        },
        {
          "internalType": "bool",
          "name": "userQuestStatus",
          "type": "bool"
        }
      ],
      "stateMutability": "view",
      "type": "function"
    }
  ],
  "bytecode": "0x60806040523480156200001157600080fd5b50620000f16040518060400160405280600c81526020017f73686572316f636b2e65746800000000000000000000000000000000000000008152506104fb66038d7ea4c680006040518060400160405280601881526020017f486572652069732074686520737461727420737175617265000000000000000081525060405180608001604052806046815260200162003282604691396000600160405180602001604052806000815250604051806020016040528060008152506040518060c00160405280608f8152602001620031ad608f91396200013560201b60201c565b6040518060800160405280604681526020016200328260469139600260006104fb815260200190815260200160002090816200012e919062000892565b5062000979565b60006040518061014001604052803373ffffffffffffffffffffffffffffffffffffffff1681526020018c815260200183815260200189815260200160008951116200019b576040518060800160405280604681526020016200323c604691396200019d565b885b815260200187815260200186151581526020016000865111620001f6576040518060400160405280600981526020017f74656d706f726172790000000000000000000000000000000000000000000000815250620001f8565b855b8152602001600085511162000243576040518060400160405280600981526020017f74656d706f72617279000000000000000000000000000000000000000000000081525062000245565b845b8152602001600067ffffffffffffffff81111562000268576200026762000623565b5b604051908082528060200260200182016040528015620002975781602001602082028036833780820191505090505b508152509050806000808c815260200190815260200160002060008201518160000160006101000a81548173ffffffffffffffffffffffffffffffffffffffff021916908373ffffffffffffffffffffffffffffffffffffffff16021790555060208201518160010190816200030e919062000892565b50604082015181600201908162000326919062000892565b5060608201518160030190816200033e919062000892565b50608082015181600401908162000356919062000892565b5060a0820151816005015560c08201518160060160006101000a81548160ff02191690831515021790555060e082015181600701908162000398919062000892565b50610100820151816008019081620003b1919062000892565b50610120820151816009019080519060200190620003d1929190620005a7565b5090505086600260008c81526020019081526020016000209081620003f7919062000892565b5060038190806001815401808255809150506001900390600052602060002090600a020160009091909190915060008201518160000160006101000a81548173ffffffffffffffffffffffffffffffffffffffff021916908373ffffffffffffffffffffffffffffffffffffffff160217905550602082015181600101908162000482919062000892565b5060408201518160020190816200049a919062000892565b506060820151816003019081620004b2919062000892565b506080820151816004019081620004ca919062000892565b5060a0820151816005015560c08201518160060160006101000a81548160ff02191690831515021790555060e08201518160070190816200050c919062000892565b5061010082015181600801908162000525919062000892565b5061012082015181600901908051906020019062000545929190620005a7565b5050506200055a898b6200056760201b60201c565b5050505050505050505050565b6000808381526020019081526020016000206009018190806001815401808255809150506001900390600052602060002001600090919091909150555050565b828054828255906000526020600020908101928215620005e6579160200282015b82811115620005e5578251825591602001919060010190620005c8565b5b509050620005f59190620005f9565b5090565b5b8082111562000614576000816000905550600101620005fa565b5090565b600081519050919050565b7f4e487b7100000000000000000000000000000000000000000000000000000000600052604160045260246000fd5b7f4e487b7100000000000000000000000000000000000000000000000000000000600052602260045260246000fd5b600060028204905060018216806200069a57607f821691505b602082108103620006b057620006af62000652565b5b50919050565b60008190508160005260206000209050919050565b60006020601f8301049050919050565b600082821b905092915050565b6000600883026200071a7fffffffffffffffffffffffffffffffffffffffffffffffffffffffffffffffff82620006db565b620007268683620006db565b95508019841693508086168417925050509392505050565b6000819050919050565b6000819050919050565b6000620007736200076d62000767846200073e565b62000748565b6200073e565b9050919050565b6000819050919050565b6200078f8362000752565b620007a76200079e826200077a565b848454620006e8565b825550505050565b600090565b620007be620007af565b620007cb81848462000784565b505050565b5b81811015620007f357620007e7600082620007b4565b600181019050620007d1565b5050565b601f82111562000842576200080c81620006b6565b6200081784620006cb565b8101602085101562000827578190505b6200083f6200083685620006cb565b830182620007d0565b50505b505050565b600082821c905092915050565b6000620008676000198460080262000847565b1980831691505092915050565b600062000882838362000854565b9150826002028217905092915050565b6200089d8262000618565b67ffffffffffffffff811115620008b957620008b862000623565b5b620008c5825462000681565b620008d2828285620007f7565b600060209050601f8311600181146200090a5760008415620008f5578287015190505b62000901858262000874565b86555062000971565b601f1984166200091a86620006b6565b60005b8281101562000944578489015182556001820191506020850194506020810190506200091d565b8683101562000964578489015162000960601f89168262000854565b8355505b6001600288020188555050505b505050505050565b61282480620009896000396000f3fe608060405234801561001057600080fd5b50600436106100a95760003560e01c80637fd3f445116100715780637fd3f4451461018257806383df62ed1461019e5780639509af03146101a8578063a87430ba146101e0578063b81ad3d814610212578063d0928f7714610242576100a9565b80631d1d15d4146100ae57806325ad91ce146100e6578063479f009014610106578063546728a91461013657806369634ada14610152575b600080fd5b6100c860048036038101906100c39190611a88565b61025e565b6040516100dd99989796959493929190611bb0565b60405180910390f35b6100ee610619565b6040516100fd93929190611c67565b60405180910390f35b610120600480360381019061011b9190611a88565b6107ea565b60405161012d9190611ec8565b60405180910390f35b610150600480360381019061014b9190611a88565b610c56565b005b61016c60048036038101906101679190611a88565b610f14565b6040516101799190611eea565b60405180910390f35b61019c6004803603810190610197919061206d565b610fb9565b005b6101a66113ba565b005b6101c260048036038101906101bd9190611a88565b6114a7565b6040516101d799989796959493929190611bb0565b60405180910390f35b6101fa60048036038101906101f59190612220565b611852565b60405161020993929190611c67565b60405180910390f35b61022c60048036038101906102279190611a88565b611889565b6040516102399190611eea565b60405180910390f35b61025c6004803603810190610257919061224d565b611929565b005b6003818154811061026e57600080fd5b90600052602060002090600a02016000915090508060000160009054906101000a900473ffffffffffffffffffffffffffffffffffffffff16908060010180546102b7906122bc565b80601f01602080910402602001604051908101604052809291908181526020018280546102e3906122bc565b80156103305780601f1061030557610100808354040283529160200191610330565b820191906000526020600020905b81548152906001019060200180831161031357829003601f168201915b505050505090806002018054610345906122bc565b80601f0160208091040260200160405190810160405280929190818152602001828054610371906122bc565b80156103be5780601f10610393576101008083540402835291602001916103be565b820191906000526020600020905b8154815290600101906020018083116103a157829003601f168201915b5050505050908060030180546103d3906122bc565b80601f01602080910402602001604051908101604052809291908181526020018280546103ff906122bc565b801561044c5780601f106104215761010080835404028352916020019161044c565b820191906000526020600020905b81548152906001019060200180831161042f57829003601f168201915b505050505090806004018054610461906122bc565b80601f016020809104026020016040519081016040528092919081815260200182805461048d906122bc565b80156104da5780601f106104af576101008083540402835291602001916104da565b820191906000526020600020905b8154815290600101906020018083116104bd57829003601f168201915b5050505050908060050154908060060160009054906101000a900460ff1690806007018054610508906122bc565b80601f0160208091040260200160405190810160405280929190818152602001828054610534906122bc565b80156105815780601f1061055657610100808354040283529160200191610581565b820191906000526020600020905b81548152906001019060200180831161056457829003601f168201915b505050505090806008018054610596906122bc565b80601f01602080910402602001604051908101604052809291908181526020018280546105c2906122bc565b801561060f5780601f106105e45761010080835404028352916020019161060f565b820191906000526020600020905b8154815290600101906020018083116105f257829003601f168201915b5050505050905089565b600080600080600160003373ffffffffffffffffffffffffffffffffffffffff1673ffffffffffffffffffffffffffffffffffffffff168152602001908152602001600020600001541461074857600160003373ffffffffffffffffffffffffffffffffffffffff1673ffffffffffffffffffffffffffffffffffffffff16815260200190815260200160002060000154600160003373ffffffffffffffffffffffffffffffffffffffff1673ffffffffffffffffffffffffffffffffffffffff16815260200190815260200160002060010154600160003373ffffffffffffffffffffffffffffffffffffffff1673ffffffffffffffffffffffffffffffffffffffff16815260200190815260200160002060020160009054906101000a900460ff169250925092506107e5565b60006040518060600160405280600081526020016000815260200160011515815250905080600160003373ffffffffffffffffffffffffffffffffffffffff1673ffffffffffffffffffffffffffffffffffffffff168152602001908152602001600020600082015181600001556020820151816001015560408201518160020160006101000a81548160ff021916908315150217905550905050505b909192565b6107f2611969565b600080838152602001908152602001600020604051806101400160405290816000820160009054906101000a900473ffffffffffffffffffffffffffffffffffffffff1673ffffffffffffffffffffffffffffffffffffffff1673ffffffffffffffffffffffffffffffffffffffff168152602001600182018054610876906122bc565b80601f01602080910402602001604051908101604052809291908181526020018280546108a2906122bc565b80156108ef5780601f106108c4576101008083540402835291602001916108ef565b820191906000526020600020905b8154815290600101906020018083116108d257829003601f168201915b50505050508152602001600282018054610908906122bc565b80601f0160208091040260200160405190810160405280929190818152602001828054610934906122bc565b80156109815780601f1061095657610100808354040283529160200191610981565b820191906000526020600020905b81548152906001019060200180831161096457829003601f168201915b5050505050815260200160038201805461099a906122bc565b80601f01602080910402602001604051908101604052809291908181526020018280546109c6906122bc565b8015610a135780601f106109e857610100808354040283529160200191610a13565b820191906000526020600020905b8154815290600101906020018083116109f657829003601f168201915b50505050508152602001600482018054610a2c906122bc565b80601f0160208091040260200160405190810160405280929190818152602001828054610a58906122bc565b8015610aa55780601f10610a7a57610100808354040283529160200191610aa5565b820191906000526020600020905b815481529060010190602001808311610a8857829003601f168201915b50505050508152602001600582015481526020016006820160009054906101000a900460ff16151515158152602001600782018054610ae3906122bc565b80601f0160208091040260200160405190810160405280929190818152602001828054610b0f906122bc565b8015610b5c5780601f10610b3157610100808354040283529160200191610b5c565b820191906000526020600020905b815481529060010190602001808311610b3f57829003601f168201915b50505050508152602001600882018054610b75906122bc565b80601f0160208091040260200160405190810160405280929190818152602001828054610ba1906122bc565b8015610bee5780601f10610bc357610100808354040283529160200191610bee565b820191906000526020600020905b815481529060010190602001808311610bd157829003601f168201915b5050505050815260200160098201805480602002602001604051908101604052809291908181526020018280548015610c4657602002820191906000526020600020905b815481526020019060010190808311610c32575b5050505050815250509050919050565b6000600160003373ffffffffffffffffffffffffffffffffffffffff1673ffffffffffffffffffffffffffffffffffffffff1681526020019081526020016000206000015490506000806000838152602001908152602001600020600901805480602002602001604051908101604052809291908181526020018280548015610cfe57602002820191906000526020600020905b815481526020019060010190808311610cea575b5050505050905060008367ffffffffffffffff811115610d2157610d20611f16565b5b604051908082528060200260200182016040528015610d4f5781602001602082028036833780820191505090505b5090506000825103610d8c577fc88f78efb5ac85889bf8050572811f32eb30e97bab8264e76379820396abff5160405160405180910390a1610f0e565b60005b84811015610ed5576000835103610ddc577f47753d74fe6a602edb08f6ac34fd9e3aac7bdc8725260d91f8fae9b2c6f1c7ce82604051610dcf919061235c565b60405180910390a1610ec2565b60008351423384604051602001610df5939291906123e7565b6040516020818303038152906040528051906020012060001c610e189190612453565b90506000848281518110610e2f57610e2e612484565b5b6020026020010151905080848481518110610e4d57610e4c612484565b5b602002602001018181525050600080828152602001908152602001600020600901805480602002602001604051908101604052809291908181526020018280548015610eb857602002820191906000526020600020905b815481526020019060010190808311610ea4575b5050505050945050505b8080610ecd906124e2565b915050610d8f565b507f47753d74fe6a602edb08f6ac34fd9e3aac7bdc8725260d91f8fae9b2c6f1c7ce81604051610f05919061235c565b60405180910390a15b50505050565b6060600260008381526020019081526020016000208054610f34906122bc565b80601f0160208091040260200160405190810160405280929190818152602001828054610f60906122bc565b8015610fad5780601f10610f8257610100808354040283529160200191610fad565b820191906000526020600020905b815481529060010190602001808311610f9057829003601f168201915b50505050509050919050565b60006040518061014001604052803373ffffffffffffffffffffffffffffffffffffffff1681526020018c8152602001838152602001898152602001600089511161101c576040518060800160405280604681526020016127a96046913961101e565b885b815260200187815260200186151581526020016000865111611075576040518060400160405280600981526020017f74656d706f726172790000000000000000000000000000000000000000000000815250611077565b855b815260200160008551116110c0576040518060400160405280600981526020017f74656d706f7261727900000000000000000000000000000000000000000000008152506110c2565b845b8152602001600067ffffffffffffffff8111156110e2576110e1611f16565b5b6040519080825280602002602001820160405280156111105781602001602082028036833780820191505090505b508152509050806000808c815260200190815260200160002060008201518160000160006101000a81548173ffffffffffffffffffffffffffffffffffffffff021916908373ffffffffffffffffffffffffffffffffffffffff160217905550602082015181600101908161118591906126d6565b50604082015181600201908161119b91906126d6565b5060608201518160030190816111b191906126d6565b5060808201518160040190816111c791906126d6565b5060a0820151816005015560c08201518160060160006101000a81548160ff02191690831515021790555060e082015181600701908161120791906126d6565b5061010082015181600801908161121e91906126d6565b5061012082015181600901908051906020019061123c9291906119d4565b5090505086600260008c8152602001908152602001600020908161126091906126d6565b5060038190806001815401808255809150506001900390600052602060002090600a020160009091909190915060008201518160000160006101000a81548173ffffffffffffffffffffffffffffffffffffffff021916908373ffffffffffffffffffffffffffffffffffffffff16021790555060208201518160010190816112e991906126d6565b5060408201518160020190816112ff91906126d6565b50606082015181600301908161131591906126d6565b50608082015181600401908161132b91906126d6565b5060a0820151816005015560c08201518160060160006101000a81548160ff02191690831515021790555060e082015181600701908161136b91906126d6565b5061010082015181600801908161138291906126d6565b506101208201518160090190805190602001906113a09291906119d4565b5050506113ad898b611929565b5050505050505050505050565b6000600160003373ffffffffffffffffffffffffffffffffffffffff1673ffffffffffffffffffffffffffffffffffffffff168152602001908152602001600020600001819055506103e8600160003373ffffffffffffffffffffffffffffffffffffffff1673ffffffffffffffffffffffffffffffffffffffff1681526020019081526020016000206001018190555060018060003373ffffffffffffffffffffffffffffffffffffffff1673ffffffffffffffffffffffffffffffffffffffff16815260200190815260200160002060020160006101000a81548160ff021916908315150217905550565b60006020528060005260406000206000915090508060000160009054906101000a900473ffffffffffffffffffffffffffffffffffffffff16908060010180546114f0906122bc565b80601f016020809104026020016040519081016040528092919081815260200182805461151c906122bc565b80156115695780601f1061153e57610100808354040283529160200191611569565b820191906000526020600020905b81548152906001019060200180831161154c57829003601f168201915b50505050509080600201805461157e906122bc565b80601f01602080910402602001604051908101604052809291908181526020018280546115aa906122bc565b80156115f75780601f106115cc576101008083540402835291602001916115f7565b820191906000526020600020905b8154815290600101906020018083116115da57829003601f168201915b50505050509080600301805461160c906122bc565b80601f0160208091040260200160405190810160405280929190818152602001828054611638906122bc565b80156116855780601f1061165a57610100808354040283529160200191611685565b820191906000526020600020905b81548152906001019060200180831161166857829003601f168201915b50505050509080600401805461169a906122bc565b80601f01602080910402602001604051908101604052809291908181526020018280546116c6906122bc565b80156117135780601f106116e857610100808354040283529160200191611713565b820191906000526020600020905b8154815290600101906020018083116116f657829003601f168201915b5050505050908060050154908060060160009054906101000a900460ff1690806007018054611741906122bc565b80601f016020809104026020016040519081016040528092919081815260200182805461176d906122bc565b80156117ba5780601f1061178f576101008083540402835291602001916117ba565b820191906000526020600020905b81548152906001019060200180831161179d57829003601f168201915b5050505050908060080180546117cf906122bc565b80601f01602080910402602001604051908101604052809291908181526020018280546117fb906122bc565b80156118485780601f1061181d57610100808354040283529160200191611848565b820191906000526020600020905b81548152906001019060200180831161182b57829003601f168201915b5050505050905089565b60016020528060005260406000206000915090508060000154908060010154908060020160009054906101000a900460ff16905083565b600260205280600052604060002060009150905080546118a8906122bc565b80601f01602080910402602001604051908101604052809291908181526020018280546118d4906122bc565b80156119215780601f106118f657610100808354040283529160200191611921565b820191906000526020600020905b81548152906001019060200180831161190457829003601f168201915b505050505081565b6000808381526020019081526020016000206009018190806001815401808255809150506001900390600052602060002001600090919091909150555050565b604051806101400160405280600073ffffffffffffffffffffffffffffffffffffffff16815260200160608152602001606081526020016060815260200160608152602001600081526020016000151581526020016060815260200160608152602001606081525090565b828054828255906000526020600020908101928215611a10579160200282015b82811115611a0f5782518255916020019190600101906119f4565b5b509050611a1d9190611a21565b5090565b5b80821115611a3a576000816000905550600101611a22565b5090565b6000604051905090565b600080fd5b600080fd5b6000819050919050565b611a6581611a52565b8114611a7057600080fd5b50565b600081359050611a8281611a5c565b92915050565b600060208284031215611a9e57611a9d611a48565b5b6000611aac84828501611a73565b91505092915050565b600073ffffffffffffffffffffffffffffffffffffffff82169050919050565b6000611ae082611ab5565b9050919050565b611af081611ad5565b82525050565b600081519050919050565b600082825260208201905092915050565b60005b83811015611b30578082015181840152602081019050611b15565b60008484015250505050565b6000601f19601f8301169050919050565b6000611b5882611af6565b611b628185611b01565b9350611b72818560208601611b12565b611b7b81611b3c565b840191505092915050565b611b8f81611a52565b82525050565b60008115159050919050565b611baa81611b95565b82525050565b600061012082019050611bc6600083018c611ae7565b8181036020830152611bd8818b611b4d565b90508181036040830152611bec818a611b4d565b90508181036060830152611c008189611b4d565b90508181036080830152611c148188611b4d565b9050611c2360a0830187611b86565b611c3060c0830186611ba1565b81810360e0830152611c428185611b4d565b9050818103610100830152611c578184611b4d565b90509a9950505050505050505050565b6000606082019050611c7c6000830186611b86565b611c896020830185611b86565b611c966040830184611ba1565b949350505050565b611ca781611ad5565b82525050565b600082825260208201905092915050565b6000611cc982611af6565b611cd38185611cad565b9350611ce3818560208601611b12565b611cec81611b3c565b840191505092915050565b611d0081611a52565b82525050565b611d0f81611b95565b82525050565b600081519050919050565b600082825260208201905092915050565b6000819050602082019050919050565b6000611d4d8383611cf7565b60208301905092915050565b6000602082019050919050565b6000611d7182611d15565b611d7b8185611d20565b9350611d8683611d31565b8060005b83811015611db7578151611d9e8882611d41565b9750611da983611d59565b925050600181019050611d8a565b5085935050505092915050565b600061014083016000830151611ddd6000860182611c9e565b5060208301518482036020860152611df58282611cbe565b91505060408301518482036040860152611e0f8282611cbe565b91505060608301518482036060860152611e298282611cbe565b91505060808301518482036080860152611e438282611cbe565b91505060a0830151611e5860a0860182611cf7565b5060c0830151611e6b60c0860182611d06565b5060e083015184820360e0860152611e838282611cbe565b915050610100830151848203610100860152611e9f8282611cbe565b915050610120830151848203610120860152611ebb8282611d66565b9150508091505092915050565b60006020820190508181036000830152611ee28184611dc4565b905092915050565b60006020820190508181036000830152611f048184611b4d565b905092915050565b600080fd5b600080fd5b7f4e487b7100000000000000000000000000000000000000000000000000000000600052604160045260246000fd5b611f4e82611b3c565b810181811067ffffffffffffffff82111715611f6d57611f6c611f16565b5b80604052505050565b6000611f80611a3e565b9050611f8c8282611f45565b919050565b600067ffffffffffffffff821115611fac57611fab611f16565b5b611fb582611b3c565b9050602081019050919050565b82818337600083830152505050565b6000611fe4611fdf84611f91565b611f76565b90508281526020810184848401111561200057611fff611f11565b5b61200b848285611fc2565b509392505050565b600082601f83011261202857612027611f0c565b5b8135612038848260208601611fd1565b91505092915050565b61204a81611b95565b811461205557600080fd5b50565b60008135905061206781612041565b92915050565b6000806000806000806000806000806101408b8d03121561209157612090611a48565b5b60008b013567ffffffffffffffff8111156120af576120ae611a4d565b5b6120bb8d828e01612013565b9a505060206120cc8d828e01611a73565b99505060406120dd8d828e01611a73565b98505060608b013567ffffffffffffffff8111156120fe576120fd611a4d565b5b61210a8d828e01612013565b97505060808b013567ffffffffffffffff81111561212b5761212a611a4d565b5b6121378d828e01612013565b96505060a06121488d828e01611a73565b95505060c06121598d828e01612058565b94505060e08b013567ffffffffffffffff81111561217a57612179611a4d565b5b6121868d828e01612013565b9350506101008b013567ffffffffffffffff8111156121a8576121a7611a4d565b5b6121b48d828e01612013565b9250506101208b013567ffffffffffffffff8111156121d6576121d5611a4d565b5b6121e28d828e01612013565b9150509295989b9194979a5092959850565b6121fd81611ad5565b811461220857600080fd5b50565b60008135905061221a816121f4565b92915050565b60006020828403121561223657612235611a48565b5b60006122448482850161220b565b91505092915050565b6000806040838503121561226457612263611a48565b5b600061227285828601611a73565b925050602061228385828601611a73565b9150509250929050565b7f4e487b7100000000000000000000000000000000000000000000000000000000600052602260045260246000fd5b600060028204905060018216806122d457607f821691505b6020821081036122e7576122e661228d565b5b50919050565b600082825260208201905092915050565b600061230982611d15565b61231381856122ed565b935061231e83611d31565b8060005b8381101561234f5781516123368882611d41565b975061234183611d59565b925050600181019050612322565b5085935050505092915050565b6000602082019050818103600083015261237681846122fe565b905092915050565b6000819050919050565b61239961239482611a52565b61237e565b82525050565b60008160601b9050919050565b60006123b78261239f565b9050919050565b60006123c9826123ac565b9050919050565b6123e16123dc82611ad5565b6123be565b82525050565b60006123f38286612388565b60208201915061240382856123d0565b6014820191506124138284612388565b602082019150819050949350505050565b7f4e487b7100000000000000000000000000000000000000000000000000000000600052601260045260246000fd5b600061245e82611a52565b915061246983611a52565b92508261247957612478612424565b5b828206905092915050565b7f4e487b7100000000000000000000000000000000000000000000000000000000600052603260045260246000fd5b7f4e487b7100000000000000000000000000000000000000000000000000000000600052601160045260246000fd5b60006124ed82611a52565b91507fffffffffffffffffffffffffffffffffffffffffffffffffffffffffffffffff820361251f5761251e6124b3565b5b600182019050919050565b60008190508160005260206000209050919050565b60006020601f8301049050919050565b600082821b905092915050565b60006008830261258c7fffffffffffffffffffffffffffffffffffffffffffffffffffffffffffffffff8261254f565b612596868361254f565b95508019841693508086168417925050509392505050565b6000819050919050565b60006125d36125ce6125c984611a52565b6125ae565b611a52565b9050919050565b6000819050919050565b6125ed836125b8565b6126016125f9826125da565b84845461255c565b825550505050565b600090565b612616612609565b6126218184846125e4565b505050565b5b818110156126455761263a60008261260e565b600181019050612627565b5050565b601f82111561268a5761265b8161252a565b6126648461253f565b81016020851015612673578190505b61268761267f8561253f565b830182612626565b50505b505050565b600082821c905092915050565b60006126ad6000198460080261268f565b1980831691505092915050565b60006126c6838361269c565b9150826002028217905092915050565b6126df82611af6565b67ffffffffffffffff8111156126f8576126f7611f16565b5b61270282546122bc565b61270d828285612649565b600060209050601f831160018114612740576000841561272e578287015190505b61273885826126ba565b8655506127a0565b601f19841661274e8661252a565b60005b8281101561277657848901518255600182019150602085019450602081019050612751565b86831015612793578489015161278f601f89168261269c565b8355505b6001600288020188555050505b50505050505056fe68747470733a2f2f7468756d622e61632d696c6c7573742e636f6d2f66352f66356363626134613335333232613938656665336237346265376664383432325f742e6a706567a2646970667358221220eea08c7512c5bbff45a5ae039a6393278f3c9a206e076bebe0a6e4dac3d09a5664736f6c6343000812003368747470733a2f2f692e736561646e2e696f2f6761652f4c504d65764f7a394f45374f542d4868736b434a33683666414957476d445f613756493878553563593656625f6169336c6c7247626165346b5a34795630324b6e5a4f4d2d78636a516f6234456b6a6147686e6572655a427a594a5f37614762486a547753513f773d353030266175746f3d666f726d617468747470733a2f2f7468756d622e61632d696c6c7573742e636f6d2f66352f66356363626134613335333232613938656665336237346265376664383432325f742e6a70656768747470733a2f2f7468756d622e61632d696c6c7573742e636f6d2f63662f63663565383039343762633837336561356365313438393436376332363161325f772e6a706567",
  "linkReferences": {},
  "deployedLinkReferences": {}
}