{
  "_format": "hh-sol-artifact-1",
  "contractName": "FoteisonGame",
  "sourceName": "contracts/FoteisonGame.sol",
  "abi": [
    {
      "inputs": [],
      "stateMutability": "nonpayable",
      "type": "constructor"
    },
    {
      "anonymous": false,
      "inputs": [],
      "name": "InsufficientBalance",
      "type": "event"
    },
    {
      "anonymous": false,
      "inputs": [],
      "name": "NoConnectedSquares",
      "type": "event"
    },
    {
      "anonymous": false,
      "inputs": [
        {
          "indexed": false,
          "internalType": "uint256[]",
          "name": "selectedSquareIds",
          "type": "uint256[]"
        }
      ],
      "name": "SquareSelected",
      "type": "event"
    },
    {
      "anonymous": false,
      "inputs": [
        {
          "indexed": false,
          "internalType": "uint256",
          "name": "newUserBalance",
          "type": "uint256"
        }
      ],
      "name": "UserBalanceChanged",
      "type": "event"
    },
    {
      "inputs": [],
      "name": "backToStart",
      "outputs": [],
      "stateMutability": "nonpayable",
      "type": "function"
    },
    {
      "inputs": [
        {
          "internalType": "string",
          "name": "_createrENS",
          "type": "string"
        },
        {
          "internalType": "uint256",
          "name": "_squareId",
          "type": "uint256"
        },
        {
          "internalType": "uint256",
          "name": "_backendSquareId",
          "type": "uint256"
        },
        {
          "internalType": "string",
          "name": "_squareDescription",
          "type": "string"
        },
        {
          "internalType": "string",
          "name": "_squareNftURL",
          "type": "string"
        },
        {
          "internalType": "uint256",
          "name": "_squareBalance",
          "type": "uint256"
        },
        {
          "internalType": "bool",
          "name": "_IsBalanceAdd",
          "type": "bool"
        },
        {
          "internalType": "address",
          "name": "_questContractAddress",
          "type": "address"
        },
        {
          "internalType": "string",
          "name": "_questDescription",
          "type": "string"
        },
        {
          "internalType": "string",
          "name": "_createrIcon",
          "type": "string"
        }
      ],
      "name": "createSquare",
      "outputs": [],
      "stateMutability": "nonpayable",
      "type": "function"
    },
    {
      "inputs": [],
      "name": "createUser",
      "outputs": [
        {
          "internalType": "uint256",
          "name": "squareId",
          "type": "uint256"
        },
        {
          "internalType": "uint256",
          "name": "userBalance",
          "type": "uint256"
        },
        {
          "internalType": "bool",
          "name": "userQuestStatus",
          "type": "bool"
        }
      ],
      "stateMutability": "nonpayable",
      "type": "function"
    },
    {
      "inputs": [
        {
          "internalType": "uint256",
          "name": "squareId",
          "type": "uint256"
        }
      ],
      "name": "getSquare",
      "outputs": [
        {
          "components": [
            {
              "internalType": "address",
              "name": "createrAddress",
              "type": "address"
            },
            {
              "internalType": "string",
              "name": "createrENS",
              "type": "string"
            },
            {
              "internalType": "string",
              "name": "createrIcon",
              "type": "string"
            },
            {
              "internalType": "string",
              "name": "squareDescription",
              "type": "string"
            },
            {
              "internalType": "string",
              "name": "squareNftURL",
              "type": "string"
            },
            {
              "internalType": "uint256",
              "name": "squareBalance",
              "type": "uint256"
            },
            {
              "internalType": "bool",
              "name": "IsBalanceAdd",
              "type": "bool"
            },
            {
              "internalType": "address",
              "name": "questContractAddress",
              "type": "address"
            },
            {
              "internalType": "string",
              "name": "questDescription",
              "type": "string"
            },
            {
              "internalType": "uint256[]",
              "name": "adjacentSquareIds",
              "type": "uint256[]"
            }
          ],
          "internalType": "struct FoteisonGame.Square",
          "name": "",
          "type": "tuple"
        }
      ],
      "stateMutability": "view",
      "type": "function"
    },
    {
      "inputs": [
        {
          "internalType": "uint256",
          "name": "_diceNumber",
          "type": "uint256"
        }
      ],
      "name": "moveUser",
      "outputs": [],
      "stateMutability": "nonpayable",
      "type": "function"
    },
    {
      "inputs": [
        {
          "internalType": "uint256",
          "name": "",
          "type": "uint256"
        }
      ],
      "name": "squareIdToSquare",
      "outputs": [
        {
          "internalType": "address",
          "name": "createrAddress",
          "type": "address"
        },
        {
          "internalType": "string",
          "name": "createrENS",
          "type": "string"
        },
        {
          "internalType": "string",
          "name": "createrIcon",
          "type": "string"
        },
        {
          "internalType": "string",
          "name": "squareDescription",
          "type": "string"
        },
        {
          "internalType": "string",
          "name": "squareNftURL",
          "type": "string"
        },
        {
          "internalType": "uint256",
          "name": "squareBalance",
          "type": "uint256"
        },
        {
          "internalType": "bool",
          "name": "IsBalanceAdd",
          "type": "bool"
        },
        {
          "internalType": "address",
          "name": "questContractAddress",
          "type": "address"
        },
        {
          "internalType": "string",
          "name": "questDescription",
          "type": "string"
        }
      ],
      "stateMutability": "view",
      "type": "function"
    },
    {
      "inputs": [
        {
          "internalType": "uint256",
          "name": "",
          "type": "uint256"
        }
      ],
      "name": "squares",
      "outputs": [
        {
          "internalType": "address",
          "name": "createrAddress",
          "type": "address"
        },
        {
          "internalType": "string",
          "name": "createrENS",
          "type": "string"
        },
        {
          "internalType": "string",
          "name": "createrIcon",
          "type": "string"
        },
        {
          "internalType": "string",
          "name": "squareDescription",
          "type": "string"
        },
        {
          "internalType": "string",
          "name": "squareNftURL",
          "type": "string"
        },
        {
          "internalType": "uint256",
          "name": "squareBalance",
          "type": "uint256"
        },
        {
          "internalType": "bool",
          "name": "IsBalanceAdd",
          "type": "bool"
        },
        {
          "internalType": "address",
          "name": "questContractAddress",
          "type": "address"
        },
        {
          "internalType": "string",
          "name": "questDescription",
          "type": "string"
        }
      ],
      "stateMutability": "view",
      "type": "function"
    },
    {
      "inputs": [
        {
          "internalType": "uint256",
          "name": "_backendSquareId",
          "type": "uint256"
        },
        {
          "internalType": "uint256",
          "name": "_squareId",
          "type": "uint256"
        }
      ],
      "name": "updateAdjacentSquareIds",
      "outputs": [],
      "stateMutability": "nonpayable",
      "type": "function"
    },
    {
      "inputs": [
        {
          "internalType": "address",
          "name": "",
          "type": "address"
        }
      ],
      "name": "users",
      "outputs": [
        {
          "internalType": "uint256",
          "name": "squareId",
          "type": "uint256"
        },
        {
          "internalType": "uint256",
          "name": "userBalance",
          "type": "uint256"
        },
        {
          "internalType": "bool",
          "name": "userQuestStatus",
          "type": "bool"
        }
      ],
      "stateMutability": "view",
      "type": "function"
    }
  ],
  "bytecode": "0x60806040523480156200001157600080fd5b50620000d66040518060400160405280600c81526020017f73686572316f636b2e65746800000000000000000000000000000000000000008152506104fb620f42406040518060400160405280600d81526020017f6f6d616520776f2074616f737500000000000000000000000000000000000000815250604051806020016040528060008152506101f460016000604051806020016040528060008152506040518060c00160405280608f815260200162002ee0608f9139620000dc60201b60201c565b62000984565b60006040518061014001604052803373ffffffffffffffffffffffffffffffffffffffff1681526020018c815260200183815260200189815260200160008951116200015e576040518060400160405280600381526020017f414141000000000000000000000000000000000000000000000000000000000081525062000160565b885b81526020018781526020018615158152602001600073ffffffffffffffffffffffffffffffffffffffff168673ffffffffffffffffffffffffffffffffffffffff1603620001b0576000620001b2565b855b73ffffffffffffffffffffffffffffffffffffffff168152602001600085511162000213576040518060400160405280600381526020017f424242000000000000000000000000000000000000000000000000000000000081525062000215565b845b8152602001600067ffffffffffffffff81111562000238576200023762000623565b5b604051908082528060200260200182016040528015620002675781602001602082028036833780820191505090505b508152509050806000808c815260200190815260200160002060008201518160000160006101000a81548173ffffffffffffffffffffffffffffffffffffffff021916908373ffffffffffffffffffffffffffffffffffffffff1602179055506020820151816001019081620002de91906200089d565b506040820151816002019081620002f691906200089d565b5060608201518160030190816200030e91906200089d565b5060808201518160040190816200032691906200089d565b5060a0820151816005015560c08201518160060160006101000a81548160ff02191690831515021790555060e08201518160060160016101000a81548173ffffffffffffffffffffffffffffffffffffffff021916908373ffffffffffffffffffffffffffffffffffffffff160217905550610100820151816007019081620003b091906200089d565b50610120820151816008019080519060200190620003d0929190620005b2565b50905050600281908060018154018082558091505060019003906000526020600020906009020160009091909190915060008201518160000160006101000a81548173ffffffffffffffffffffffffffffffffffffffff021916908373ffffffffffffffffffffffffffffffffffffffff16021790555060208201518160010190816200045e91906200089d565b5060408201518160020190816200047691906200089d565b5060608201518160030190816200048e91906200089d565b506080820151816004019081620004a691906200089d565b5060a0820151816005015560c08201518160060160006101000a81548160ff02191690831515021790555060e08201518160060160016101000a81548173ffffffffffffffffffffffffffffffffffffffff021916908373ffffffffffffffffffffffffffffffffffffffff1602179055506101008201518160070190816200053091906200089d565b5061012082015181600801908051906020019062000550929190620005b2565b50505062000565898b6200057260201b60201c565b5050505050505050505050565b6000808381526020019081526020016000206008018190806001815401808255809150506001900390600052602060002001600090919091909150555050565b828054828255906000526020600020908101928215620005f1579160200282015b82811115620005f0578251825591602001919060010190620005d3565b5b50905062000600919062000604565b5090565b5b808211156200061f57600081600090555060010162000605565b5090565b7f4e487b7100000000000000000000000000000000000000000000000000000000600052604160045260246000fd5b600081519050919050565b7f4e487b7100000000000000000000000000000000000000000000000000000000600052602260045260246000fd5b60006002820490506001821680620006a557607f821691505b602082108103620006bb57620006ba6200065d565b5b50919050565b60008190508160005260206000209050919050565b60006020601f8301049050919050565b600082821b905092915050565b600060088302620007257fffffffffffffffffffffffffffffffffffffffffffffffffffffffffffffffff82620006e6565b620007318683620006e6565b95508019841693508086168417925050509392505050565b6000819050919050565b6000819050919050565b60006200077e62000778620007728462000749565b62000753565b62000749565b9050919050565b6000819050919050565b6200079a836200075d565b620007b2620007a98262000785565b848454620006f3565b825550505050565b600090565b620007c9620007ba565b620007d68184846200078f565b505050565b5b81811015620007fe57620007f2600082620007bf565b600181019050620007dc565b5050565b601f8211156200084d576200081781620006c1565b6200082284620006d6565b8101602085101562000832578190505b6200084a6200084185620006d6565b830182620007db565b50505b505050565b600082821c905092915050565b6000620008726000198460080262000852565b1980831691505092915050565b60006200088d83836200085f565b9150826002028217905092915050565b620008a88262000652565b67ffffffffffffffff811115620008c457620008c362000623565b5b620008d082546200068c565b620008dd82828562000802565b600060209050601f83116001811462000915576000841562000900578287015190505b6200090c85826200087f565b8655506200097c565b601f1984166200092586620006c1565b60005b828110156200094f5784890151825560018201915060208501945060208101905062000928565b868310156200096f57848901516200096b601f8916826200085f565b8355505b6001600288020188555050505b505050505050565b61254c80620009946000396000f3fe608060405234801561001057600080fd5b50600436106100935760003560e01c806383df62ed1161006657806383df62ed1461013c5780639509af0314610146578063a87430ba1461017e578063d0928f77146101b0578063eaf13e6c146101cc57610093565b80631d1d15d41461009857806325ad91ce146100d0578063479f0090146100f0578063546728a914610120575b600080fd5b6100b260048036038101906100ad9190611842565b6101e8565b6040516100c79998979695949392919061196a565b60405180910390f35b6100d861053b565b6040516100e793929190611a1a565b60405180910390f35b61010a60048036038101906101059190611842565b61070c565b6040516101179190611c74565b60405180910390f35b61013a60048036038101906101359190611842565b610b3c565b005b610144610dfa565b005b610160600480360381019061015b9190611842565b610ee7565b6040516101759998979695949392919061196a565b60405180910390f35b61019860048036038101906101939190611cc2565b61122a565b6040516101a793929190611a1a565b60405180910390f35b6101ca60048036038101906101c59190611cef565b611261565b005b6101e660048036038101906101e19190611e90565b6112a1565b005b600281815481106101f857600080fd5b90600052602060002090600902016000915090508060000160009054906101000a900473ffffffffffffffffffffffffffffffffffffffff16908060010180546102419061202a565b80601f016020809104026020016040519081016040528092919081815260200182805461026d9061202a565b80156102ba5780601f1061028f576101008083540402835291602001916102ba565b820191906000526020600020905b81548152906001019060200180831161029d57829003601f168201915b5050505050908060020180546102cf9061202a565b80601f01602080910402602001604051908101604052809291908181526020018280546102fb9061202a565b80156103485780601f1061031d57610100808354040283529160200191610348565b820191906000526020600020905b81548152906001019060200180831161032b57829003601f168201915b50505050509080600301805461035d9061202a565b80601f01602080910402602001604051908101604052809291908181526020018280546103899061202a565b80156103d65780601f106103ab576101008083540402835291602001916103d6565b820191906000526020600020905b8154815290600101906020018083116103b957829003601f168201915b5050505050908060040180546103eb9061202a565b80601f01602080910402602001604051908101604052809291908181526020018280546104179061202a565b80156104645780601f1061043957610100808354040283529160200191610464565b820191906000526020600020905b81548152906001019060200180831161044757829003601f168201915b5050505050908060050154908060060160009054906101000a900460ff16908060060160019054906101000a900473ffffffffffffffffffffffffffffffffffffffff16908060070180546104b89061202a565b80601f01602080910402602001604051908101604052809291908181526020018280546104e49061202a565b80156105315780601f1061050657610100808354040283529160200191610531565b820191906000526020600020905b81548152906001019060200180831161051457829003601f168201915b5050505050905089565b600080600080600160003373ffffffffffffffffffffffffffffffffffffffff1673ffffffffffffffffffffffffffffffffffffffff168152602001908152602001600020600001541461066a57600160003373ffffffffffffffffffffffffffffffffffffffff1673ffffffffffffffffffffffffffffffffffffffff16815260200190815260200160002060000154600160003373ffffffffffffffffffffffffffffffffffffffff1673ffffffffffffffffffffffffffffffffffffffff16815260200190815260200160002060010154600160003373ffffffffffffffffffffffffffffffffffffffff1673ffffffffffffffffffffffffffffffffffffffff16815260200190815260200160002060020160009054906101000a900460ff16925092509250610707565b60006040518060600160405280600081526020016000815260200160011515815250905080600160003373ffffffffffffffffffffffffffffffffffffffff1673ffffffffffffffffffffffffffffffffffffffff168152602001908152602001600020600082015181600001556020820151816001015560408201518160020160006101000a81548160ff021916908315150217905550905050505b909192565b61071461170d565b600080838152602001908152602001600020604051806101400160405290816000820160009054906101000a900473ffffffffffffffffffffffffffffffffffffffff1673ffffffffffffffffffffffffffffffffffffffff1673ffffffffffffffffffffffffffffffffffffffff1681526020016001820180546107989061202a565b80601f01602080910402602001604051908101604052809291908181526020018280546107c49061202a565b80156108115780601f106107e657610100808354040283529160200191610811565b820191906000526020600020905b8154815290600101906020018083116107f457829003601f168201915b5050505050815260200160028201805461082a9061202a565b80601f01602080910402602001604051908101604052809291908181526020018280546108569061202a565b80156108a35780601f10610878576101008083540402835291602001916108a3565b820191906000526020600020905b81548152906001019060200180831161088657829003601f168201915b505050505081526020016003820180546108bc9061202a565b80601f01602080910402602001604051908101604052809291908181526020018280546108e89061202a565b80156109355780601f1061090a57610100808354040283529160200191610935565b820191906000526020600020905b81548152906001019060200180831161091857829003601f168201915b5050505050815260200160048201805461094e9061202a565b80601f016020809104026020016040519081016040528092919081815260200182805461097a9061202a565b80156109c75780601f1061099c576101008083540402835291602001916109c7565b820191906000526020600020905b8154815290600101906020018083116109aa57829003601f168201915b50505050508152602001600582015481526020016006820160009054906101000a900460ff161515151581526020016006820160019054906101000a900473ffffffffffffffffffffffffffffffffffffffff1673ffffffffffffffffffffffffffffffffffffffff1673ffffffffffffffffffffffffffffffffffffffff168152602001600782018054610a5b9061202a565b80601f0160208091040260200160405190810160405280929190818152602001828054610a879061202a565b8015610ad45780601f10610aa957610100808354040283529160200191610ad4565b820191906000526020600020905b815481529060010190602001808311610ab757829003601f168201915b5050505050815260200160088201805480602002602001604051908101604052809291908181526020018280548015610b2c57602002820191906000526020600020905b815481526020019060010190808311610b18575b5050505050815250509050919050565b6000600160003373ffffffffffffffffffffffffffffffffffffffff1673ffffffffffffffffffffffffffffffffffffffff1681526020019081526020016000206000015490506000806000838152602001908152602001600020600801805480602002602001604051908101604052809291908181526020018280548015610be457602002820191906000526020600020905b815481526020019060010190808311610bd0575b5050505050905060008367ffffffffffffffff811115610c0757610c06611d39565b5b604051908082528060200260200182016040528015610c355781602001602082028036833780820191505090505b5090506000825103610c72577fc88f78efb5ac85889bf8050572811f32eb30e97bab8264e76379820396abff5160405160405180910390a1610df4565b60005b84811015610dbb576000835103610cc2577f47753d74fe6a602edb08f6ac34fd9e3aac7bdc8725260d91f8fae9b2c6f1c7ce82604051610cb591906120ca565b60405180910390a1610da8565b60008351423384604051602001610cdb93929190612155565b6040516020818303038152906040528051906020012060001c610cfe91906121c1565b90506000848281518110610d1557610d146121f2565b5b6020026020010151905080848481518110610d3357610d326121f2565b5b602002602001018181525050600080828152602001908152602001600020600801805480602002602001604051908101604052809291908181526020018280548015610d9e57602002820191906000526020600020905b815481526020019060010190808311610d8a575b5050505050945050505b8080610db390612250565b915050610c75565b507f47753d74fe6a602edb08f6ac34fd9e3aac7bdc8725260d91f8fae9b2c6f1c7ce81604051610deb91906120ca565b60405180910390a15b50505050565b6000600160003373ffffffffffffffffffffffffffffffffffffffff1673ffffffffffffffffffffffffffffffffffffffff168152602001908152602001600020600001819055506103e8600160003373ffffffffffffffffffffffffffffffffffffffff1673ffffffffffffffffffffffffffffffffffffffff1681526020019081526020016000206001018190555060018060003373ffffffffffffffffffffffffffffffffffffffff1673ffffffffffffffffffffffffffffffffffffffff16815260200190815260200160002060020160006101000a81548160ff021916908315150217905550565b60006020528060005260406000206000915090508060000160009054906101000a900473ffffffffffffffffffffffffffffffffffffffff1690806001018054610f309061202a565b80601f0160208091040260200160405190810160405280929190818152602001828054610f5c9061202a565b8015610fa95780601f10610f7e57610100808354040283529160200191610fa9565b820191906000526020600020905b815481529060010190602001808311610f8c57829003601f168201915b505050505090806002018054610fbe9061202a565b80601f0160208091040260200160405190810160405280929190818152602001828054610fea9061202a565b80156110375780601f1061100c57610100808354040283529160200191611037565b820191906000526020600020905b81548152906001019060200180831161101a57829003601f168201915b50505050509080600301805461104c9061202a565b80601f01602080910402602001604051908101604052809291908181526020018280546110789061202a565b80156110c55780601f1061109a576101008083540402835291602001916110c5565b820191906000526020600020905b8154815290600101906020018083116110a857829003601f168201915b5050505050908060040180546110da9061202a565b80601f01602080910402602001604051908101604052809291908181526020018280546111069061202a565b80156111535780601f1061112857610100808354040283529160200191611153565b820191906000526020600020905b81548152906001019060200180831161113657829003601f168201915b5050505050908060050154908060060160009054906101000a900460ff16908060060160019054906101000a900473ffffffffffffffffffffffffffffffffffffffff16908060070180546111a79061202a565b80601f01602080910402602001604051908101604052809291908181526020018280546111d39061202a565b80156112205780601f106111f557610100808354040283529160200191611220565b820191906000526020600020905b81548152906001019060200180831161120357829003601f168201915b5050505050905089565b60016020528060005260406000206000915090508060000154908060010154908060020160009054906101000a900460ff16905083565b6000808381526020019081526020016000206008018190806001815401808255809150506001900390600052602060002001600090919091909150555050565b60006040518061014001604052803373ffffffffffffffffffffffffffffffffffffffff1681526020018c81526020018381526020018981526020016000895111611321576040518060400160405280600381526020017f4141410000000000000000000000000000000000000000000000000000000000815250611323565b885b81526020018781526020018615158152602001600073ffffffffffffffffffffffffffffffffffffffff168673ffffffffffffffffffffffffffffffffffffffff1603611371576000611373565b855b73ffffffffffffffffffffffffffffffffffffffff16815260200160008551116113d2576040518060400160405280600381526020017f42424200000000000000000000000000000000000000000000000000000000008152506113d4565b845b8152602001600067ffffffffffffffff8111156113f4576113f3611d39565b5b6040519080825280602002602001820160405280156114225781602001602082028036833780820191505090505b508152509050806000808c815260200190815260200160002060008201518160000160006101000a81548173ffffffffffffffffffffffffffffffffffffffff021916908373ffffffffffffffffffffffffffffffffffffffff16021790555060208201518160010190816114979190612444565b5060408201518160020190816114ad9190612444565b5060608201518160030190816114c39190612444565b5060808201518160040190816114d99190612444565b5060a0820151816005015560c08201518160060160006101000a81548160ff02191690831515021790555060e08201518160060160016101000a81548173ffffffffffffffffffffffffffffffffffffffff021916908373ffffffffffffffffffffffffffffffffffffffff1602179055506101008201518160070190816115619190612444565b5061012082015181600801908051906020019061157f92919061178e565b50905050600281908060018154018082558091505060019003906000526020600020906009020160009091909190915060008201518160000160006101000a81548173ffffffffffffffffffffffffffffffffffffffff021916908373ffffffffffffffffffffffffffffffffffffffff160217905550602082015181600101908161160b9190612444565b5060408201518160020190816116219190612444565b5060608201518160030190816116379190612444565b50608082015181600401908161164d9190612444565b5060a0820151816005015560c08201518160060160006101000a81548160ff02191690831515021790555060e08201518160060160016101000a81548173ffffffffffffffffffffffffffffffffffffffff021916908373ffffffffffffffffffffffffffffffffffffffff1602179055506101008201518160070190816116d59190612444565b506101208201518160080190805190602001906116f392919061178e565b505050611700898b611261565b5050505050505050505050565b604051806101400160405280600073ffffffffffffffffffffffffffffffffffffffff1681526020016060815260200160608152602001606081526020016060815260200160008152602001600015158152602001600073ffffffffffffffffffffffffffffffffffffffff16815260200160608152602001606081525090565b8280548282559060005260206000209081019282156117ca579160200282015b828111156117c95782518255916020019190600101906117ae565b5b5090506117d791906117db565b5090565b5b808211156117f45760008160009055506001016117dc565b5090565b6000604051905090565b600080fd5b600080fd5b6000819050919050565b61181f8161180c565b811461182a57600080fd5b50565b60008135905061183c81611816565b92915050565b60006020828403121561185857611857611802565b5b60006118668482850161182d565b91505092915050565b600073ffffffffffffffffffffffffffffffffffffffff82169050919050565b600061189a8261186f565b9050919050565b6118aa8161188f565b82525050565b600081519050919050565b600082825260208201905092915050565b60005b838110156118ea5780820151818401526020810190506118cf565b60008484015250505050565b6000601f19601f8301169050919050565b6000611912826118b0565b61191c81856118bb565b935061192c8185602086016118cc565b611935816118f6565b840191505092915050565b6119498161180c565b82525050565b60008115159050919050565b6119648161194f565b82525050565b600061012082019050611980600083018c6118a1565b8181036020830152611992818b611907565b905081810360408301526119a6818a611907565b905081810360608301526119ba8189611907565b905081810360808301526119ce8188611907565b90506119dd60a0830187611940565b6119ea60c083018661195b565b6119f760e08301856118a1565b818103610100830152611a0a8184611907565b90509a9950505050505050505050565b6000606082019050611a2f6000830186611940565b611a3c6020830185611940565b611a49604083018461195b565b949350505050565b611a5a8161188f565b82525050565b600082825260208201905092915050565b6000611a7c826118b0565b611a868185611a60565b9350611a968185602086016118cc565b611a9f816118f6565b840191505092915050565b611ab38161180c565b82525050565b611ac28161194f565b82525050565b600081519050919050565b600082825260208201905092915050565b6000819050602082019050919050565b6000611b008383611aaa565b60208301905092915050565b6000602082019050919050565b6000611b2482611ac8565b611b2e8185611ad3565b9350611b3983611ae4565b8060005b83811015611b6a578151611b518882611af4565b9750611b5c83611b0c565b925050600181019050611b3d565b5085935050505092915050565b600061014083016000830151611b906000860182611a51565b5060208301518482036020860152611ba88282611a71565b91505060408301518482036040860152611bc28282611a71565b91505060608301518482036060860152611bdc8282611a71565b91505060808301518482036080860152611bf68282611a71565b91505060a0830151611c0b60a0860182611aaa565b5060c0830151611c1e60c0860182611ab9565b5060e0830151611c3160e0860182611a51565b50610100830151848203610100860152611c4b8282611a71565b915050610120830151848203610120860152611c678282611b19565b9150508091505092915050565b60006020820190508181036000830152611c8e8184611b77565b905092915050565b611c9f8161188f565b8114611caa57600080fd5b50565b600081359050611cbc81611c96565b92915050565b600060208284031215611cd857611cd7611802565b5b6000611ce684828501611cad565b91505092915050565b60008060408385031215611d0657611d05611802565b5b6000611d148582860161182d565b9250506020611d258582860161182d565b9150509250929050565b600080fd5b600080fd5b7f4e487b7100000000000000000000000000000000000000000000000000000000600052604160045260246000fd5b611d71826118f6565b810181811067ffffffffffffffff82111715611d9057611d8f611d39565b5b80604052505050565b6000611da36117f8565b9050611daf8282611d68565b919050565b600067ffffffffffffffff821115611dcf57611dce611d39565b5b611dd8826118f6565b9050602081019050919050565b82818337600083830152505050565b6000611e07611e0284611db4565b611d99565b905082815260208101848484011115611e2357611e22611d34565b5b611e2e848285611de5565b509392505050565b600082601f830112611e4b57611e4a611d2f565b5b8135611e5b848260208601611df4565b91505092915050565b611e6d8161194f565b8114611e7857600080fd5b50565b600081359050611e8a81611e64565b92915050565b6000806000806000806000806000806101408b8d031215611eb457611eb3611802565b5b60008b013567ffffffffffffffff811115611ed257611ed1611807565b5b611ede8d828e01611e36565b9a50506020611eef8d828e0161182d565b9950506040611f008d828e0161182d565b98505060608b013567ffffffffffffffff811115611f2157611f20611807565b5b611f2d8d828e01611e36565b97505060808b013567ffffffffffffffff811115611f4e57611f4d611807565b5b611f5a8d828e01611e36565b96505060a0611f6b8d828e0161182d565b95505060c0611f7c8d828e01611e7b565b94505060e0611f8d8d828e01611cad565b9350506101008b013567ffffffffffffffff811115611faf57611fae611807565b5b611fbb8d828e01611e36565b9250506101208b013567ffffffffffffffff811115611fdd57611fdc611807565b5b611fe98d828e01611e36565b9150509295989b9194979a5092959850565b7f4e487b7100000000000000000000000000000000000000000000000000000000600052602260045260246000fd5b6000600282049050600182168061204257607f821691505b60208210810361205557612054611ffb565b5b50919050565b600082825260208201905092915050565b600061207782611ac8565b612081818561205b565b935061208c83611ae4565b8060005b838110156120bd5781516120a48882611af4565b97506120af83611b0c565b925050600181019050612090565b5085935050505092915050565b600060208201905081810360008301526120e4818461206c565b905092915050565b6000819050919050565b6121076121028261180c565b6120ec565b82525050565b60008160601b9050919050565b60006121258261210d565b9050919050565b60006121378261211a565b9050919050565b61214f61214a8261188f565b61212c565b82525050565b600061216182866120f6565b602082019150612171828561213e565b60148201915061218182846120f6565b602082019150819050949350505050565b7f4e487b7100000000000000000000000000000000000000000000000000000000600052601260045260246000fd5b60006121cc8261180c565b91506121d78361180c565b9250826121e7576121e6612192565b5b828206905092915050565b7f4e487b7100000000000000000000000000000000000000000000000000000000600052603260045260246000fd5b7f4e487b7100000000000000000000000000000000000000000000000000000000600052601160045260246000fd5b600061225b8261180c565b91507fffffffffffffffffffffffffffffffffffffffffffffffffffffffffffffffff820361228d5761228c612221565b5b600182019050919050565b60008190508160005260206000209050919050565b60006020601f8301049050919050565b600082821b905092915050565b6000600883026122fa7fffffffffffffffffffffffffffffffffffffffffffffffffffffffffffffffff826122bd565b61230486836122bd565b95508019841693508086168417925050509392505050565b6000819050919050565b600061234161233c6123378461180c565b61231c565b61180c565b9050919050565b6000819050919050565b61235b83612326565b61236f61236782612348565b8484546122ca565b825550505050565b600090565b612384612377565b61238f818484612352565b505050565b5b818110156123b3576123a860008261237c565b600181019050612395565b5050565b601f8211156123f8576123c981612298565b6123d2846122ad565b810160208510156123e1578190505b6123f56123ed856122ad565b830182612394565b50505b505050565b600082821c905092915050565b600061241b600019846008026123fd565b1980831691505092915050565b6000612434838361240a565b9150826002028217905092915050565b61244d826118b0565b67ffffffffffffffff81111561246657612465611d39565b5b612470825461202a565b61247b8282856123b7565b600060209050601f8311600181146124ae576000841561249c578287015190505b6124a68582612428565b86555061250e565b601f1984166124bc86612298565b60005b828110156124e4578489015182556001820191506020850194506020810190506124bf565b8683101561250157848901516124fd601f89168261240a565b8355505b6001600288020188555050505b50505050505056fea2646970667358221220f335743483c62b048952baa9f3becb14282ccd888eea0277b33ed9f712093f2164736f6c6343000812003368747470733a2f2f692e736561646e2e696f2f6761652f4c504d65764f7a394f45374f542d4868736b434a33683666414957476d445f613756493878553563593656625f6169336c6c7247626165346b5a34795630324b6e5a4f4d2d78636a516f6234456b6a6147686e6572655a427a594a5f37614762486a547753513f773d353030266175746f3d666f726d6174",
  "linkReferences": {},
  "deployedLinkReferences": {}
}