{
  "_format": "hh-sol-artifact-1",
  "contractName": "FoteisonGame",
  "sourceName": "contracts/FoteisonGame.sol",
  "abi": [
    {
      "inputs": [],
      "stateMutability": "nonpayable",
      "type": "constructor"
    },
    {
      "anonymous": false,
      "inputs": [],
      "name": "InsufficientBalance",
      "type": "event"
    },
    {
      "inputs": [],
      "name": "backToStart",
      "outputs": [],
      "stateMutability": "nonpayable",
      "type": "function"
    },
    {
      "inputs": [],
      "name": "confirmUser",
      "outputs": [
        {
          "components": [
            {
              "internalType": "bool",
              "name": "initialized",
              "type": "bool"
            },
            {
              "internalType": "uint256",
              "name": "squareId",
              "type": "uint256"
            },
            {
              "internalType": "uint256",
              "name": "userBalance",
              "type": "uint256"
            },
            {
              "internalType": "bool",
              "name": "userQuestStatus",
              "type": "bool"
            }
          ],
          "internalType": "struct FoteisonGame.User",
          "name": "",
          "type": "tuple"
        }
      ],
      "stateMutability": "view",
      "type": "function"
    },
    {
      "inputs": [
        {
          "internalType": "string",
          "name": "_createrENS",
          "type": "string"
        },
        {
          "internalType": "uint256",
          "name": "_squareId",
          "type": "uint256"
        },
        {
          "internalType": "uint256",
          "name": "_backendSquareId",
          "type": "uint256"
        },
        {
          "internalType": "string",
          "name": "_squareDescription",
          "type": "string"
        },
        {
          "internalType": "string",
          "name": "_squareNftURL",
          "type": "string"
        },
        {
          "internalType": "uint256",
          "name": "_squareBalance",
          "type": "uint256"
        },
        {
          "internalType": "bool",
          "name": "_IsBalanceAdd",
          "type": "bool"
        },
        {
          "internalType": "string",
          "name": "_questContractAddress",
          "type": "string"
        },
        {
          "internalType": "string",
          "name": "_questDescription",
          "type": "string"
        },
        {
          "internalType": "string",
          "name": "_createrIcon",
          "type": "string"
        }
      ],
      "name": "createSquare",
      "outputs": [],
      "stateMutability": "nonpayable",
      "type": "function"
    },
    {
      "inputs": [
        {
          "internalType": "uint256",
          "name": "_squareId",
          "type": "uint256"
        },
        {
          "internalType": "uint256",
          "name": "_userBalance",
          "type": "uint256"
        },
        {
          "internalType": "bool",
          "name": "_userQuestStatus",
          "type": "bool"
        }
      ],
      "name": "createUser",
      "outputs": [],
      "stateMutability": "nonpayable",
      "type": "function"
    },
    {
      "inputs": [
        {
          "internalType": "uint256",
          "name": "squareId",
          "type": "uint256"
        }
      ],
      "name": "getAdjacentSquareIds",
      "outputs": [
        {
          "internalType": "uint256[]",
          "name": "",
          "type": "uint256[]"
        }
      ],
      "stateMutability": "view",
      "type": "function"
    },
    {
      "inputs": [],
      "name": "getAllSquareNftURLs",
      "outputs": [
        {
          "internalType": "uint256[]",
          "name": "",
          "type": "uint256[]"
        },
        {
          "internalType": "string[]",
          "name": "",
          "type": "string[]"
        }
      ],
      "stateMutability": "view",
      "type": "function"
    },
    {
      "inputs": [
        {
          "internalType": "uint256",
          "name": "squareId",
          "type": "uint256"
        }
      ],
      "name": "getSquare",
      "outputs": [
        {
          "components": [
            {
              "internalType": "address",
              "name": "createrAddress",
              "type": "address"
            },
            {
              "internalType": "string",
              "name": "createrENS",
              "type": "string"
            },
            {
              "internalType": "string",
              "name": "createrIcon",
              "type": "string"
            },
            {
              "internalType": "string",
              "name": "squareDescription",
              "type": "string"
            },
            {
              "internalType": "string",
              "name": "squareNftURL",
              "type": "string"
            },
            {
              "internalType": "uint256",
              "name": "squareBalance",
              "type": "uint256"
            },
            {
              "internalType": "bool",
              "name": "IsBalanceAdd",
              "type": "bool"
            },
            {
              "internalType": "string",
              "name": "questContractAddress",
              "type": "string"
            },
            {
              "internalType": "string",
              "name": "questDescription",
              "type": "string"
            },
            {
              "internalType": "uint256[]",
              "name": "adjacentSquareIds",
              "type": "uint256[]"
            }
          ],
          "internalType": "struct FoteisonGame.Square",
          "name": "",
          "type": "tuple"
        }
      ],
      "stateMutability": "view",
      "type": "function"
    },
    {
      "inputs": [
        {
          "internalType": "uint256",
          "name": "squareId",
          "type": "uint256"
        }
      ],
      "name": "getSquareNftURL",
      "outputs": [
        {
          "internalType": "string",
          "name": "",
          "type": "string"
        }
      ],
      "stateMutability": "view",
      "type": "function"
    },
    {
      "inputs": [
        {
          "internalType": "uint256",
          "name": "_diceNumber",
          "type": "uint256"
        },
        {
          "internalType": "uint256",
          "name": "_currentSquareId",
          "type": "uint256"
        }
      ],
      "name": "moveUser",
      "outputs": [
        {
          "internalType": "uint256[]",
          "name": "",
          "type": "uint256[]"
        }
      ],
      "stateMutability": "view",
      "type": "function"
    },
    {
      "inputs": [
        {
          "internalType": "uint256",
          "name": "",
          "type": "uint256"
        }
      ],
      "name": "squareIdToSquare",
      "outputs": [
        {
          "internalType": "address",
          "name": "createrAddress",
          "type": "address"
        },
        {
          "internalType": "string",
          "name": "createrENS",
          "type": "string"
        },
        {
          "internalType": "string",
          "name": "createrIcon",
          "type": "string"
        },
        {
          "internalType": "string",
          "name": "squareDescription",
          "type": "string"
        },
        {
          "internalType": "string",
          "name": "squareNftURL",
          "type": "string"
        },
        {
          "internalType": "uint256",
          "name": "squareBalance",
          "type": "uint256"
        },
        {
          "internalType": "bool",
          "name": "IsBalanceAdd",
          "type": "bool"
        },
        {
          "internalType": "string",
          "name": "questContractAddress",
          "type": "string"
        },
        {
          "internalType": "string",
          "name": "questDescription",
          "type": "string"
        }
      ],
      "stateMutability": "view",
      "type": "function"
    },
    {
      "inputs": [
        {
          "internalType": "uint256",
          "name": "",
          "type": "uint256"
        }
      ],
      "name": "squareIdToSquareNftURL",
      "outputs": [
        {
          "internalType": "string",
          "name": "",
          "type": "string"
        }
      ],
      "stateMutability": "view",
      "type": "function"
    },
    {
      "inputs": [
        {
          "internalType": "uint256",
          "name": "",
          "type": "uint256"
        }
      ],
      "name": "squares",
      "outputs": [
        {
          "internalType": "address",
          "name": "createrAddress",
          "type": "address"
        },
        {
          "internalType": "string",
          "name": "createrENS",
          "type": "string"
        },
        {
          "internalType": "string",
          "name": "createrIcon",
          "type": "string"
        },
        {
          "internalType": "string",
          "name": "squareDescription",
          "type": "string"
        },
        {
          "internalType": "string",
          "name": "squareNftURL",
          "type": "string"
        },
        {
          "internalType": "uint256",
          "name": "squareBalance",
          "type": "uint256"
        },
        {
          "internalType": "bool",
          "name": "IsBalanceAdd",
          "type": "bool"
        },
        {
          "internalType": "string",
          "name": "questContractAddress",
          "type": "string"
        },
        {
          "internalType": "string",
          "name": "questDescription",
          "type": "string"
        }
      ],
      "stateMutability": "view",
      "type": "function"
    },
    {
      "inputs": [
        {
          "internalType": "uint256",
          "name": "_backendSquareId",
          "type": "uint256"
        },
        {
          "internalType": "uint256",
          "name": "_squareId",
          "type": "uint256"
        }
      ],
      "name": "updateAdjacentSquareIds",
      "outputs": [],
      "stateMutability": "nonpayable",
      "type": "function"
    },
    {
      "inputs": [
        {
          "internalType": "uint256",
          "name": "_squareId",
          "type": "uint256"
        },
        {
          "internalType": "uint256",
          "name": "_userBalance",
          "type": "uint256"
        },
        {
          "internalType": "bool",
          "name": "_userQuestStatus",
          "type": "bool"
        }
      ],
      "name": "updateUser",
      "outputs": [],
      "stateMutability": "nonpayable",
      "type": "function"
    },
    {
      "inputs": [
        {
          "internalType": "address",
          "name": "",
          "type": "address"
        }
      ],
      "name": "users",
      "outputs": [
        {
          "internalType": "bool",
          "name": "initialized",
          "type": "bool"
        },
        {
          "internalType": "uint256",
          "name": "squareId",
          "type": "uint256"
        },
        {
          "internalType": "uint256",
          "name": "userBalance",
          "type": "uint256"
        },
        {
          "internalType": "bool",
          "name": "userQuestStatus",
          "type": "bool"
        }
      ],
      "stateMutability": "view",
      "type": "function"
    }
  ],
  "bytecode": "0x60806040523480156200001157600080fd5b50620000f16040518060400160405280600c81526020017f73686572316f636b2e65746800000000000000000000000000000000000000008152506104fb66038d7ea4c680006040518060400160405280601881526020017f486572652069732074686520737461727420737175617265000000000000000081525060405180608001604052806046815260200162003a6d604691396000600160405180602001604052806000815250604051806020016040528060008152506040518060c00160405280608f8152602001620039de608f91396200013560201b60201c565b60405180608001604052806046815260200162003a6d60469139600260006104fb815260200190815260200160002090816200012e91906200081b565b5062000902565b60006040518061014001604052803373ffffffffffffffffffffffffffffffffffffffff1681526020018c815260200183815260200189815260200188815260200187815260200186151581526020016000865111620001a55760405180602001604052806000815250620001a7565b855b81526020016000855111620001cc5760405180602001604052806000815250620001ce565b845b8152602001600067ffffffffffffffff811115620001f157620001f0620005ac565b5b604051908082528060200260200182016040528015620002205781602001602082028036833780820191505090505b508152509050806000808c815260200190815260200160002060008201518160000160006101000a81548173ffffffffffffffffffffffffffffffffffffffff021916908373ffffffffffffffffffffffffffffffffffffffff16021790555060208201518160010190816200029791906200081b565b506040820151816002019081620002af91906200081b565b506060820151816003019081620002c791906200081b565b506080820151816004019081620002df91906200081b565b5060a0820151816005015560c08201518160060160006101000a81548160ff02191690831515021790555060e08201518160070190816200032191906200081b565b506101008201518160080190816200033a91906200081b565b506101208201518160090190805190602001906200035a92919062000530565b5090505086600260008c815260200190815260200160002090816200038091906200081b565b5060038190806001815401808255809150506001900390600052602060002090600a020160009091909190915060008201518160000160006101000a81548173ffffffffffffffffffffffffffffffffffffffff021916908373ffffffffffffffffffffffffffffffffffffffff16021790555060208201518160010190816200040b91906200081b565b5060408201518160020190816200042391906200081b565b5060608201518160030190816200043b91906200081b565b5060808201518160040190816200045391906200081b565b5060a0820151816005015560c08201518160060160006101000a81548160ff02191690831515021790555060e08201518160070190816200049591906200081b565b50610100820151816008019081620004ae91906200081b565b50610120820151816009019080519060200190620004ce92919062000530565b505050620004e3898b620004f060201b60201c565b5050505050505050505050565b6000808381526020019081526020016000206009018190806001815401808255809150506001900390600052602060002001600090919091909150555050565b8280548282559060005260206000209081019282156200056f579160200282015b828111156200056e57825182559160200191906001019062000551565b5b5090506200057e919062000582565b5090565b5b808211156200059d57600081600090555060010162000583565b5090565b600081519050919050565b7f4e487b7100000000000000000000000000000000000000000000000000000000600052604160045260246000fd5b7f4e487b7100000000000000000000000000000000000000000000000000000000600052602260045260246000fd5b600060028204905060018216806200062357607f821691505b602082108103620006395762000638620005db565b5b50919050565b60008190508160005260206000209050919050565b60006020601f8301049050919050565b600082821b905092915050565b600060088302620006a37fffffffffffffffffffffffffffffffffffffffffffffffffffffffffffffffff8262000664565b620006af868362000664565b95508019841693508086168417925050509392505050565b6000819050919050565b6000819050919050565b6000620006fc620006f6620006f084620006c7565b620006d1565b620006c7565b9050919050565b6000819050919050565b6200071883620006db565b62000730620007278262000703565b84845462000671565b825550505050565b600090565b6200074762000738565b620007548184846200070d565b505050565b5b818110156200077c57620007706000826200073d565b6001810190506200075a565b5050565b601f821115620007cb5762000795816200063f565b620007a08462000654565b81016020851015620007b0578190505b620007c8620007bf8562000654565b83018262000759565b50505b505050565b600082821c905092915050565b6000620007f060001984600802620007d0565b1980831691505092915050565b60006200080b8383620007dd565b9150826002028217905092915050565b6200082682620005a1565b67ffffffffffffffff811115620008425762000841620005ac565b5b6200084e82546200060a565b6200085b82828562000780565b600060209050601f8311600181146200089357600084156200087e578287015190505b6200088a8582620007fd565b865550620008fa565b601f198416620008a3866200063f565b60005b82811015620008cd57848901518255600182019150602085019450602081019050620008a6565b86831015620008ed5784890151620008e9601f891682620007dd565b8355505b6001600288020188555050505b505050505050565b6130cc80620009126000396000f3fe608060405234801561001057600080fd5b50600436106100f55760003560e01c806383df62ed11610097578063c250f1ea11610066578063c250f1ea146102be578063d0928f77146102da578063e81a6d6e146102f6578063f5f1fcbb14610314576100f5565b806383df62ed146102195780639509af0314610223578063a87430ba1461025b578063b81ad3d81461028e576100f5565b8063479f0090116100d3578063479f009014610181578063619dd1b4146101b157806369634ada146101cd5780637fd3f445146101fd576100f5565b80631d1d15d4146100fa5780632e60629014610132578063303819a014610162575b600080fd5b610114600480360381019061010f9190612064565b610344565b6040516101299998979695949392919061218c565b60405180910390f35b61014c60048036038101906101479190612243565b6106ff565b6040516101599190612341565b60405180910390f35b61016a6108ed565b60405161017892919061246f565b60405180910390f35b61019b60048036038101906101969190612064565b610bf4565b6040516101a89190612637565b60405180910390f35b6101cb60048036038101906101c69190612685565b611060565b005b6101e760048036038101906101e29190612064565b611127565b6040516101f491906126d8565b60405180910390f35b6102176004803603810190610212919061282f565b6111cc565b005b610221611559565b005b61023d60048036038101906102389190612064565b611647565b6040516102529998979695949392919061218c565b60405180910390f35b610275600480360381019061027091906129e2565b6119f2565b6040516102859493929190612a0f565b60405180910390f35b6102a860048036038101906102a39190612064565b611a3c565b6040516102b591906126d8565b60405180910390f35b6102d860048036038101906102d39190612685565b611adc565b005b6102f460048036038101906102ef9190612243565b611c3b565b005b6102fe611c7b565b60405161030b9190612aa9565b60405180910390f35b61032e60048036038101906103299190612064565b611d1c565b60405161033b9190612341565b60405180910390f35b6003818154811061035457600080fd5b90600052602060002090600a02016000915090508060000160009054906101000a900473ffffffffffffffffffffffffffffffffffffffff169080600101805461039d90612af3565b80601f01602080910402602001604051908101604052809291908181526020018280546103c990612af3565b80156104165780601f106103eb57610100808354040283529160200191610416565b820191906000526020600020905b8154815290600101906020018083116103f957829003601f168201915b50505050509080600201805461042b90612af3565b80601f016020809104026020016040519081016040528092919081815260200182805461045790612af3565b80156104a45780601f10610479576101008083540402835291602001916104a4565b820191906000526020600020905b81548152906001019060200180831161048757829003601f168201915b5050505050908060030180546104b990612af3565b80601f01602080910402602001604051908101604052809291908181526020018280546104e590612af3565b80156105325780601f1061050757610100808354040283529160200191610532565b820191906000526020600020905b81548152906001019060200180831161051557829003601f168201915b50505050509080600401805461054790612af3565b80601f016020809104026020016040519081016040528092919081815260200182805461057390612af3565b80156105c05780601f10610595576101008083540402835291602001916105c0565b820191906000526020600020905b8154815290600101906020018083116105a357829003601f168201915b5050505050908060050154908060060160009054906101000a900460ff16908060070180546105ee90612af3565b80601f016020809104026020016040519081016040528092919081815260200182805461061a90612af3565b80156106675780601f1061063c57610100808354040283529160200191610667565b820191906000526020600020905b81548152906001019060200180831161064a57829003601f168201915b50505050509080600801805461067c90612af3565b80601f01602080910402602001604051908101604052809291908181526020018280546106a890612af3565b80156106f55780601f106106ca576101008083540402835291602001916106f5565b820191906000526020600020905b8154815290600101906020018083116106d857829003601f168201915b5050505050905089565b6060600080600084815260200190815260200160002060090180548060200260200160405190810160405280929190818152602001828054801561076257602002820191906000526020600020905b81548152602001906001019080831161074e575b5050505050905060008467ffffffffffffffff81111561078557610784612704565b5b6040519080825280602002602001820160405280156107b35781602001602082028036833780820191505090505b50905060008251036107c95780925050506108e7565b60005b858110156108e05760008351036107e8578193505050506108e7565b6000835142338460405160200161080193929190612b8d565b6040516020818303038152906040528051906020012060001c6108249190612bf9565b9050600084828151811061083b5761083a612c2a565b5b602002602001015190508084848151811061085957610858612c2a565b5b6020026020010181815250506000808281526020019081526020016000206009018054806020026020016040519081016040528092919081815260200182805480156108c457602002820191906000526020600020905b8154815260200190600101908083116108b0575b50505050509450505080806108d890612c88565b9150506107cc565b5080925050505b92915050565b60608060006109c467ffffffffffffffff81111561090e5761090d612704565b5b60405190808252806020026020018201604052801561093c5781602001602082028036833780820191505090505b50905060006109c467ffffffffffffffff81111561095d5761095c612704565b5b60405190808252806020026020018201604052801561099057816020015b606081526020019060019003908161097b5790505b5090506000805b6109c4811015610ab357600081905060006002600083815260200190815260200160002080546109c690612af3565b80601f01602080910402602001604051908101604052809291908181526020018280546109f290612af3565b8015610a3f5780601f10610a1457610100808354040283529160200191610a3f565b820191906000526020600020905b815481529060010190602001808311610a2257829003601f168201915b50505050509050600081511115610a9e5781868581518110610a6457610a63612c2a565b5b60200260200101818152505080858581518110610a8457610a83612c2a565b5b60200260200101819052508380610a9a90612c88565b9450505b50508080610aab90612c88565b915050610997565b5060008167ffffffffffffffff811115610ad057610acf612704565b5b604051908082528060200260200182016040528015610afe5781602001602082028036833780820191505090505b50905060008267ffffffffffffffff811115610b1d57610b1c612704565b5b604051908082528060200260200182016040528015610b5057816020015b6060815260200190600190039081610b3b5790505b50905060005b83811015610be457858181518110610b7157610b70612c2a565b5b6020026020010151838281518110610b8c57610b8b612c2a565b5b602002602001018181525050848181518110610bab57610baa612c2a565b5b6020026020010151828281518110610bc657610bc5612c2a565b5b60200260200101819052508080610bdc90612c88565b915050610b56565b5081819650965050505050509091565b610bfc611f19565b600080838152602001908152602001600020604051806101400160405290816000820160009054906101000a900473ffffffffffffffffffffffffffffffffffffffff1673ffffffffffffffffffffffffffffffffffffffff1673ffffffffffffffffffffffffffffffffffffffff168152602001600182018054610c8090612af3565b80601f0160208091040260200160405190810160405280929190818152602001828054610cac90612af3565b8015610cf95780601f10610cce57610100808354040283529160200191610cf9565b820191906000526020600020905b815481529060010190602001808311610cdc57829003601f168201915b50505050508152602001600282018054610d1290612af3565b80601f0160208091040260200160405190810160405280929190818152602001828054610d3e90612af3565b8015610d8b5780601f10610d6057610100808354040283529160200191610d8b565b820191906000526020600020905b815481529060010190602001808311610d6e57829003601f168201915b50505050508152602001600382018054610da490612af3565b80601f0160208091040260200160405190810160405280929190818152602001828054610dd090612af3565b8015610e1d5780601f10610df257610100808354040283529160200191610e1d565b820191906000526020600020905b815481529060010190602001808311610e0057829003601f168201915b50505050508152602001600482018054610e3690612af3565b80601f0160208091040260200160405190810160405280929190818152602001828054610e6290612af3565b8015610eaf5780601f10610e8457610100808354040283529160200191610eaf565b820191906000526020600020905b815481529060010190602001808311610e9257829003601f168201915b50505050508152602001600582015481526020016006820160009054906101000a900460ff16151515158152602001600782018054610eed90612af3565b80601f0160208091040260200160405190810160405280929190818152602001828054610f1990612af3565b8015610f665780601f10610f3b57610100808354040283529160200191610f66565b820191906000526020600020905b815481529060010190602001808311610f4957829003601f168201915b50505050508152602001600882018054610f7f90612af3565b80601f0160208091040260200160405190810160405280929190818152602001828054610fab90612af3565b8015610ff85780601f10610fcd57610100808354040283529160200191610ff8565b820191906000526020600020905b815481529060010190602001808311610fdb57829003601f168201915b505050505081526020016009820180548060200260200160405190810160405280929190818152602001828054801561105057602002820191906000526020600020905b81548152602001906001019080831161103c575b5050505050815250509050919050565b60006040518060800160405280600115158152602001858152602001848152602001831515815250905080600160003373ffffffffffffffffffffffffffffffffffffffff1673ffffffffffffffffffffffffffffffffffffffff16815260200190815260200160002060008201518160000160006101000a81548160ff021916908315150217905550602082015181600101556040820151816002015560608201518160030160006101000a81548160ff02191690831515021790555090505050505050565b606060026000838152602001908152602001600020805461114790612af3565b80601f016020809104026020016040519081016040528092919081815260200182805461117390612af3565b80156111c05780601f10611195576101008083540402835291602001916111c0565b820191906000526020600020905b8154815290600101906020018083116111a357829003601f168201915b50505050509050919050565b60006040518061014001604052803373ffffffffffffffffffffffffffffffffffffffff1681526020018c81526020018381526020018981526020018881526020018781526020018615158152602001600086511161123a576040518060200160405280600081525061123c565b855b8152602001600085511161125f5760405180602001604052806000815250611261565b845b8152602001600067ffffffffffffffff81111561128157611280612704565b5b6040519080825280602002602001820160405280156112af5781602001602082028036833780820191505090505b508152509050806000808c815260200190815260200160002060008201518160000160006101000a81548173ffffffffffffffffffffffffffffffffffffffff021916908373ffffffffffffffffffffffffffffffffffffffff16021790555060208201518160010190816113249190612e7c565b50604082015181600201908161133a9190612e7c565b5060608201518160030190816113509190612e7c565b5060808201518160040190816113669190612e7c565b5060a0820151816005015560c08201518160060160006101000a81548160ff02191690831515021790555060e08201518160070190816113a69190612e7c565b506101008201518160080190816113bd9190612e7c565b506101208201518160090190805190602001906113db929190611f84565b5090505086600260008c815260200190815260200160002090816113ff9190612e7c565b5060038190806001815401808255809150506001900390600052602060002090600a020160009091909190915060008201518160000160006101000a81548173ffffffffffffffffffffffffffffffffffffffff021916908373ffffffffffffffffffffffffffffffffffffffff16021790555060208201518160010190816114889190612e7c565b50604082015181600201908161149e9190612e7c565b5060608201518160030190816114b49190612e7c565b5060808201518160040190816114ca9190612e7c565b5060a0820151816005015560c08201518160060160006101000a81548160ff02191690831515021790555060e082015181600701908161150a9190612e7c565b506101008201518160080190816115219190612e7c565b5061012082015181600901908051906020019061153f929190611f84565b50505061154c898b611c3b565b5050505050505050505050565b6104fb600160003373ffffffffffffffffffffffffffffffffffffffff1673ffffffffffffffffffffffffffffffffffffffff168152602001908152602001600020600101819055506103e8600160003373ffffffffffffffffffffffffffffffffffffffff1673ffffffffffffffffffffffffffffffffffffffff1681526020019081526020016000206002018190555060018060003373ffffffffffffffffffffffffffffffffffffffff1673ffffffffffffffffffffffffffffffffffffffff16815260200190815260200160002060030160006101000a81548160ff021916908315150217905550565b60006020528060005260406000206000915090508060000160009054906101000a900473ffffffffffffffffffffffffffffffffffffffff169080600101805461169090612af3565b80601f01602080910402602001604051908101604052809291908181526020018280546116bc90612af3565b80156117095780601f106116de57610100808354040283529160200191611709565b820191906000526020600020905b8154815290600101906020018083116116ec57829003601f168201915b50505050509080600201805461171e90612af3565b80601f016020809104026020016040519081016040528092919081815260200182805461174a90612af3565b80156117975780601f1061176c57610100808354040283529160200191611797565b820191906000526020600020905b81548152906001019060200180831161177a57829003601f168201915b5050505050908060030180546117ac90612af3565b80601f01602080910402602001604051908101604052809291908181526020018280546117d890612af3565b80156118255780601f106117fa57610100808354040283529160200191611825565b820191906000526020600020905b81548152906001019060200180831161180857829003601f168201915b50505050509080600401805461183a90612af3565b80601f016020809104026020016040519081016040528092919081815260200182805461186690612af3565b80156118b35780601f10611888576101008083540402835291602001916118b3565b820191906000526020600020905b81548152906001019060200180831161189657829003601f168201915b5050505050908060050154908060060160009054906101000a900460ff16908060070180546118e190612af3565b80601f016020809104026020016040519081016040528092919081815260200182805461190d90612af3565b801561195a5780601f1061192f5761010080835404028352916020019161195a565b820191906000526020600020905b81548152906001019060200180831161193d57829003601f168201915b50505050509080600801805461196f90612af3565b80601f016020809104026020016040519081016040528092919081815260200182805461199b90612af3565b80156119e85780601f106119bd576101008083540402835291602001916119e8565b820191906000526020600020905b8154815290600101906020018083116119cb57829003601f168201915b5050505050905089565b60016020528060005260406000206000915090508060000160009054906101000a900460ff16908060010154908060020154908060030160009054906101000a900460ff16905084565b60026020528060005260406000206000915090508054611a5b90612af3565b80601f0160208091040260200160405190810160405280929190818152602001828054611a8790612af3565b8015611ad45780601f10611aa957610100808354040283529160200191611ad4565b820191906000526020600020905b815481529060010190602001808311611ab757829003601f168201915b505050505081565b600160003373ffffffffffffffffffffffffffffffffffffffff1673ffffffffffffffffffffffffffffffffffffffff16815260200190815260200160002060000160009054906101000a900460ff16611b3c57611b3b838383611060565b5b6000806000858152602001908152602001600020600501541115611b74576000611b6584611d89565b905080611b725750611c36565b505b604051602001611b8390612f7f565b60405160208183030381529060405280519060200120600080858152602001908152602001600020600701604051602001611bbe9190613017565b6040516020818303038152906040528051906020012014611c35576000600160003373ffffffffffffffffffffffffffffffffffffffff1673ffffffffffffffffffffffffffffffffffffffff16815260200190815260200160002060030160006101000a81548160ff0219169083151502179055505b5b505050565b6000808381526020019081526020016000206009018190806001815401808255809150506001900390600052602060002001600090919091909150555050565b611c83611fd1565b600160003373ffffffffffffffffffffffffffffffffffffffff1673ffffffffffffffffffffffffffffffffffffffff1681526020019081526020016000206040518060800160405290816000820160009054906101000a900460ff1615151515815260200160018201548152602001600282015481526020016003820160009054906101000a900460ff161515151581525050905090565b6060600080838152602001908152602001600020600901805480602002602001604051908101604052809291908181526020018280548015611d7d57602002820191906000526020600020905b815481526020019060010190808311611d69575b50505050509050919050565b600080600160003373ffffffffffffffffffffffffffffffffffffffff1673ffffffffffffffffffffffffffffffffffffffff168152602001908152602001600020600201549050600080600085815260200190815260200160002060050154905060008085815260200190815260200160002060060160009054906101000a900460ff1615611e765760008183611e21919061302e565b905080600160003373ffffffffffffffffffffffffffffffffffffffff1673ffffffffffffffffffffffffffffffffffffffff1681526020019081526020016000206002018190555060019350505050611f14565b80821115611ee15760008183611e8c9190613062565b905080600160003373ffffffffffffffffffffffffffffffffffffffff1673ffffffffffffffffffffffffffffffffffffffff1681526020019081526020016000206002018190555060019350505050611f14565b7ff4d678b8ce6b5157126b1484a53523762a93571537a7d5ae97d8014a44715c9460405160405180910390a16000925050505b919050565b604051806101400160405280600073ffffffffffffffffffffffffffffffffffffffff16815260200160608152602001606081526020016060815260200160608152602001600081526020016000151581526020016060815260200160608152602001606081525090565b828054828255906000526020600020908101928215611fc0579160200282015b82811115611fbf578251825591602001919060010190611fa4565b5b509050611fcd9190611ffd565b5090565b604051806080016040528060001515815260200160008152602001600081526020016000151581525090565b5b80821115612016576000816000905550600101611ffe565b5090565b6000604051905090565b600080fd5b600080fd5b6000819050919050565b6120418161202e565b811461204c57600080fd5b50565b60008135905061205e81612038565b92915050565b60006020828403121561207a57612079612024565b5b60006120888482850161204f565b91505092915050565b600073ffffffffffffffffffffffffffffffffffffffff82169050919050565b60006120bc82612091565b9050919050565b6120cc816120b1565b82525050565b600081519050919050565b600082825260208201905092915050565b60005b8381101561210c5780820151818401526020810190506120f1565b60008484015250505050565b6000601f19601f8301169050919050565b6000612134826120d2565b61213e81856120dd565b935061214e8185602086016120ee565b61215781612118565b840191505092915050565b61216b8161202e565b82525050565b60008115159050919050565b61218681612171565b82525050565b6000610120820190506121a2600083018c6120c3565b81810360208301526121b4818b612129565b905081810360408301526121c8818a612129565b905081810360608301526121dc8189612129565b905081810360808301526121f08188612129565b90506121ff60a0830187612162565b61220c60c083018661217d565b81810360e083015261221e8185612129565b90508181036101008301526122338184612129565b90509a9950505050505050505050565b6000806040838503121561225a57612259612024565b5b60006122688582860161204f565b92505060206122798582860161204f565b9150509250929050565b600081519050919050565b600082825260208201905092915050565b6000819050602082019050919050565b6122b88161202e565b82525050565b60006122ca83836122af565b60208301905092915050565b6000602082019050919050565b60006122ee82612283565b6122f8818561228e565b93506123038361229f565b8060005b8381101561233457815161231b88826122be565b9750612326836122d6565b925050600181019050612307565b5085935050505092915050565b6000602082019050818103600083015261235b81846122e3565b905092915050565b600081519050919050565b600082825260208201905092915050565b6000819050602082019050919050565b600082825260208201905092915050565b60006123ab826120d2565b6123b5818561238f565b93506123c58185602086016120ee565b6123ce81612118565b840191505092915050565b60006123e583836123a0565b905092915050565b6000602082019050919050565b600061240582612363565b61240f818561236e565b9350836020820285016124218561237f565b8060005b8581101561245d578484038952815161243e85826123d9565b9450612449836123ed565b925060208a01995050600181019050612425565b50829750879550505050505092915050565b6000604082019050818103600083015261248981856122e3565b9050818103602083015261249d81846123fa565b90509392505050565b6124af816120b1565b82525050565b6124be81612171565b82525050565b600082825260208201905092915050565b60006124e082612283565b6124ea81856124c4565b93506124f58361229f565b8060005b8381101561252657815161250d88826122be565b9750612518836122d6565b9250506001810190506124f9565b5085935050505092915050565b60006101408301600083015161254c60008601826124a6565b506020830151848203602086015261256482826123a0565b9150506040830151848203604086015261257e82826123a0565b9150506060830151848203606086015261259882826123a0565b915050608083015184820360808601526125b282826123a0565b91505060a08301516125c760a08601826122af565b5060c08301516125da60c08601826124b5565b5060e083015184820360e08601526125f282826123a0565b91505061010083015184820361010086015261260e82826123a0565b91505061012083015184820361012086015261262a82826124d5565b9150508091505092915050565b600060208201905081810360008301526126518184612533565b905092915050565b61266281612171565b811461266d57600080fd5b50565b60008135905061267f81612659565b92915050565b60008060006060848603121561269e5761269d612024565b5b60006126ac8682870161204f565b93505060206126bd8682870161204f565b92505060406126ce86828701612670565b9150509250925092565b600060208201905081810360008301526126f28184612129565b905092915050565b600080fd5b600080fd5b7f4e487b7100000000000000000000000000000000000000000000000000000000600052604160045260246000fd5b61273c82612118565b810181811067ffffffffffffffff8211171561275b5761275a612704565b5b80604052505050565b600061276e61201a565b905061277a8282612733565b919050565b600067ffffffffffffffff82111561279a57612799612704565b5b6127a382612118565b9050602081019050919050565b82818337600083830152505050565b60006127d26127cd8461277f565b612764565b9050828152602081018484840111156127ee576127ed6126ff565b5b6127f98482856127b0565b509392505050565b600082601f830112612816576128156126fa565b5b81356128268482602086016127bf565b91505092915050565b6000806000806000806000806000806101408b8d03121561285357612852612024565b5b60008b013567ffffffffffffffff81111561287157612870612029565b5b61287d8d828e01612801565b9a5050602061288e8d828e0161204f565b995050604061289f8d828e0161204f565b98505060608b013567ffffffffffffffff8111156128c0576128bf612029565b5b6128cc8d828e01612801565b97505060808b013567ffffffffffffffff8111156128ed576128ec612029565b5b6128f98d828e01612801565b96505060a061290a8d828e0161204f565b95505060c061291b8d828e01612670565b94505060e08b013567ffffffffffffffff81111561293c5761293b612029565b5b6129488d828e01612801565b9350506101008b013567ffffffffffffffff81111561296a57612969612029565b5b6129768d828e01612801565b9250506101208b013567ffffffffffffffff81111561299857612997612029565b5b6129a48d828e01612801565b9150509295989b9194979a5092959850565b6129bf816120b1565b81146129ca57600080fd5b50565b6000813590506129dc816129b6565b92915050565b6000602082840312156129f8576129f7612024565b5b6000612a06848285016129cd565b91505092915050565b6000608082019050612a24600083018761217d565b612a316020830186612162565b612a3e6040830185612162565b612a4b606083018461217d565b95945050505050565b608082016000820151612a6a60008501826124b5565b506020820151612a7d60208501826122af565b506040820151612a9060408501826122af565b506060820151612aa360608501826124b5565b50505050565b6000608082019050612abe6000830184612a54565b92915050565b7f4e487b7100000000000000000000000000000000000000000000000000000000600052602260045260246000fd5b60006002820490506001821680612b0b57607f821691505b602082108103612b1e57612b1d612ac4565b5b50919050565b6000819050919050565b612b3f612b3a8261202e565b612b24565b82525050565b60008160601b9050919050565b6000612b5d82612b45565b9050919050565b6000612b6f82612b52565b9050919050565b612b87612b82826120b1565b612b64565b82525050565b6000612b998286612b2e565b602082019150612ba98285612b76565b601482019150612bb98284612b2e565b602082019150819050949350505050565b7f4e487b7100000000000000000000000000000000000000000000000000000000600052601260045260246000fd5b6000612c048261202e565b9150612c0f8361202e565b925082612c1f57612c1e612bca565b5b828206905092915050565b7f4e487b7100000000000000000000000000000000000000000000000000000000600052603260045260246000fd5b7f4e487b7100000000000000000000000000000000000000000000000000000000600052601160045260246000fd5b6000612c938261202e565b91507fffffffffffffffffffffffffffffffffffffffffffffffffffffffffffffffff8203612cc557612cc4612c59565b5b600182019050919050565b60008190508160005260206000209050919050565b60006020601f8301049050919050565b600082821b905092915050565b600060088302612d327fffffffffffffffffffffffffffffffffffffffffffffffffffffffffffffffff82612cf5565b612d3c8683612cf5565b95508019841693508086168417925050509392505050565b6000819050919050565b6000612d79612d74612d6f8461202e565b612d54565b61202e565b9050919050565b6000819050919050565b612d9383612d5e565b612da7612d9f82612d80565b848454612d02565b825550505050565b600090565b612dbc612daf565b612dc7818484612d8a565b505050565b5b81811015612deb57612de0600082612db4565b600181019050612dcd565b5050565b601f821115612e3057612e0181612cd0565b612e0a84612ce5565b81016020851015612e19578190505b612e2d612e2585612ce5565b830182612dcc565b50505b505050565b600082821c905092915050565b6000612e5360001984600802612e35565b1980831691505092915050565b6000612e6c8383612e42565b9150826002028217905092915050565b612e85826120d2565b67ffffffffffffffff811115612e9e57612e9d612704565b5b612ea88254612af3565b612eb3828285612def565b600060209050601f831160018114612ee65760008415612ed4578287015190505b612ede8582612e60565b865550612f46565b601f198416612ef486612cd0565b60005b82811015612f1c57848901518255600182019150602085019450602081019050612ef7565b86831015612f395784890151612f35601f891682612e42565b8355505b6001600288020188555050505b505050505050565b600081905092915050565b50565b6000612f69600083612f4e565b9150612f7482612f59565b600082019050919050565b6000612f8a82612f5c565b9150819050919050565b60008154612fa181612af3565b612fab8186612f4e565b94506001821660008114612fc65760018114612fdb5761300e565b60ff198316865281151582028601935061300e565b612fe485612cd0565b60005b8381101561300657815481890152600182019150602081019050612fe7565b838801955050505b50505092915050565b60006130238284612f94565b915081905092915050565b60006130398261202e565b91506130448361202e565b925082820190508082111561305c5761305b612c59565b5b92915050565b600061306d8261202e565b91506130788361202e565b92508282039050818111156130905761308f612c59565b5b9291505056fea2646970667358221220455599aa198b9b62012586485a0e73b0518520ba559c972e0e3c9ca886f4497664736f6c6343000812003368747470733a2f2f692e736561646e2e696f2f6761652f4c504d65764f7a394f45374f542d4868736b434a33683666414957476d445f613756493878553563593656625f6169336c6c7247626165346b5a34795630324b6e5a4f4d2d78636a516f6234456b6a6147686e6572655a427a594a5f37614762486a547753513f773d353030266175746f3d666f726d617468747470733a2f2f7468756d622e61632d696c6c7573742e636f6d2f63662f63663565383039343762633837336561356365313438393436376332363161325f772e6a706567",
  "linkReferences": {},
  "deployedLinkReferences": {}
}